:020000040800F2
:1000000060210020010100082501000827010008E7
:100010002B0100082F010008330100080000000038
:100020000000000000000000000000003701000890
:1000300039010008000000009B6A00083B0100082D
:100040001B0100081B0100081B0100081B01000820
:100050001B0100081B0100081B0100081B01000810
:100060001B0100081B0100081B0100081B01000800
:100070001B0100081B0100081B0100081B010008F0
:100080001B0100081B0100081B0100081B010008E0
:100090001B0100081B0100081B0100081B010008D0
:1000A0001B0100081B0100081B0100081B010008C0
:1000B0001B0100081B0100081B0100081B010008B0
:1000C0001B0100081B0100081B0100081B010008A0
:1000D0001B0100081B0100081B0100081B01000890
:1000E0001B0100081B0100081B010008DFF80CD0F1
:1000F00006F092FD004800472D0E00086021002008
:100100000648804706480047FEE7FEE7FEE7FEE7B1
:10011000FEE7FEE7FEE7FEE7FEE7FEE7290200084E
:10012000ED000008704700BFFEE700BFFEE700BF1C
:10013000FEE700BFFEE77047704710B501F013F906
:1001400006F0BDF801F020F910BD00000CB500204C
:10015000019000906B48006840F480306949086065
:1001600000BF6848006800F4003000900198401C0F
:100170000190009818B90198B0F5A06FF1D16148CD
:10018000006810F4003F02D00120009001E0002040
:1001900000900098012842D15B48006840F01000B0
:1001A000594908600846006820F0030008600846C6
:1001B000006840F0020008605248406851494860B9
:1001C0000846406848600846406840F480604860DF
:1001D0000846406820F47C1048600846406840F4B7
:1001E000E81048600846006840F08070086000BF72
:1001F0004448006810F0007FFAD04248406820F080
:100200000300404948600846406840F002004860EA
:1002100000BF3C48406800F00C000828F9D10CBD34
:1002200010B5FFF793FF10BD10B53648006840F0D9
:1002300001003449086008464068344908403149A3
:10024000486008460068324908402E490860084660
:10025000006820F4802008600846406820F4FE0012
:1002600048604FF41F008860FFF7DAFF4FF000602E
:100270002849086010BD10B5002100200022214B44
:100280005B6803F00C0121B1042906D0082928D1AC
:1002900007E0214B214C236027E01F4B1F4C2360BC
:1002A00023E0184B5B6803F47010164B5B6803F493
:1002B0008032022303EB904022B9194B4343174C81
:1002C00023600DE00F4B5B6813F4003F04D0144B28
:1002D0004343124C236003E00F4B43430F4C236016
:1002E00003E00D4B0D4C236000BF00BF054B5B6866
:1002F000C3F303130B4CE15C084B1B68CB40074C6A
:10030000236010BD00100240002002400000FFF8F2
:10031000FFFFF6FE08ED00E000127A00000000206A
:1003200000093D000400002010B50446CA4884427C
:1003300008D10121042000F027FB0021042000F057
:1003400023FB46E0C548844208D10121082000F083
:100350001BFB0021082000F017FB3AE0C048844254
:1003600008D10121102000F00FFB0021102000F027
:100370000BFB2EE0BB48844208D10121202000F075
:1003800003FB0021202000F0FFFA22E0B64884425F
:1003900008D10121402000F0F7FA0021402000F0B0
:1003A000F3FA16E0B148844208D10121802000F020
:1003B000EBFA0021802000F0E7FA0AE0AC48844222
:1003C00007D10121801500F0DFFA0021A01500F00F
:1003D000DBFA10BD10B50121084600F0D5FA002166
:1003E000012000F0D1FA10BD2DE9F04102460025B0
:1003F0000026002000230024002791F803C00CF001
:100400000F0591F803C01CF0100F03D091F802C043
:100410004CEA050591F800C0BCF1000F31D014681A
:1004200000202BE04FF0010C0CFA00F3B1F800C0F3
:100430000CEA03069E4220D183004FF00F0C0CFA09
:1004400003F7BC4305FA03FC4CEA040491F803C02B
:10045000BCF1280F06D14FF0010C0CFA00FCC2F8D9
:1004600014C00AE091F803C0BCF1480F05D14FF069
:10047000010C0CFA00FCC2F810C0401C0828D1D3B3
:100480001460B1F800C0BCF1FF0F34DD54680020E7
:100490002EE000F1080C4FF0010808FA0CF3B1F857
:1004A00000C00CEA03069E4221D183004FF00F0CDE
:1004B0000CFA03F7BC4305FA03FC4CEA040491F878
:1004C00003C0BCF1280F05D100F1080C08FA0CF8A4
:1004D000C2F8148091F803C0BCF1480F07D100F1B5
:1004E000080C4FF0010808FA0CF8C2F81080401C04
:1004F0000828CED35460BDE8F0814FF6FF7101802B
:10050000022181700421C170704702460020936867
:100510000B4201D0012000E00020704701468868AE
:1005200080B2704702460020D3680B4201D0012000
:1005300000E0002070470146C86880B27047016142
:100540007047416170470AB1016100E04161704745
:10055000C16070474FF480320A43826181618261D9
:1005600082698269704702460020424B18684FF644
:100570008073184040EA021008433E4B18607047F1
:100580003D49C8617047F0B50A46002300240021A8
:10059000002500F00046B6F1004F02D1354EF1695A
:1005A00001E0344E7168C0F3034583B200F4401695
:1005B000B6F5401F08D121F070612E4E766826F006
:1005C00070662C4F7E6012E000F48016B6F5801F36
:1005D00006D1032606FA05F4A14341F0706106E056
:1005E000460D360103FA06F6B14341F0706122B1BF
:1005F000460D360103FA06F6314300F00046B6F127
:10060000004F02D11B4EF16101E01A4E7160F0BD46
:1006100030B500228B071C0F0F2303FA04F2154B91
:1006200008338C1053F824309343124C08348D1047
:1006300044F8253023468C1053F824308C07240FBF
:1006400000FA04F423430B4C08348D1044F8253091
:1006500030BD0A490860704700080140000C0140A5
:10066000001001400014014000180140001C01402E
:10067000002001400000014000002042DC00204238
:10068000DD48006840F00100DB490860084640682A
:10069000DA490840D849486008460068D849084007
:1006A000D54908600846006820F4802008600846A4
:1006B000406820F4FE0048604FF41F0088607047D7
:1006C000CD49096821F48031CB4A1160114609688F
:1006D00021F480211160B0F5803F03D0B0F5802F68
:1006E0000ED106E0C449096841F48031C24A116064
:1006F00007E0C149096841F4A021BF4A116000E048
:1007000000BF00BF704710B5014600220023002043
:100710004A11012A02D1B84C236806E0022A02D10C
:10072000B54C236A01E0B44C636A01F01F02012456
:1007300094401C4201D0012000E0002010BD38B5DB
:10074000002000900024002500BF3120FFF7DBFFD0
:1007500005460098401C00900098B0F5A06F01D0AD
:10076000002DF2D03120FFF7CEFF08B1012400E0C8
:100770000024204638BD014600209F4A106820F022
:10078000F80040EAC100106070479E490860704759
:1007900002460020984B586820F47C1042EA01037E
:1007A0001843954B58607047964908667047014654
:1007B0000020914A506820F00300084350607047C1
:1007C0008D48406800F00C007047014600208A4ABE
:1007D000506820F0F0000843506070470146002048
:1007E000854A506820F4E060084350607047014635
:1007F0000020814A506820F4605040EAC1005060F7
:10080000704729B17C4A527A02437B4B5A7204E00A
:10081000794A527A8243784B5A7270477A49086013
:10082000704701460020744A506820F44040084355
:10083000506070470021754A11706F4A82F820108D
:10084000012802D0042808D103E001216F4A117069
:1008500004E005216D4A117000E000BF00BF704741
:100860006B49086070476449096A0143624A116232
:100870007047674944390860704730B5002100224D
:10088000002400235C4D6D6805F00C0121B10429A2
:1008900005D0082923D105E05E4D056022E05D4DBD
:1008A00005601FE0544D6D6805F47012524D6D687F
:1008B00005F48034022505EB92421CB9564D554390
:1008C00005600BE04C4D6D6815F4003F03D0524DB0
:1008D0005543056002E04F4D5543056002E04D4D24
:1008E000056000BF00BF444D6D6805F0F0010909C7
:1008F0004A4D6B5C0568DD4045603F4D6D6805F411
:10090000E061090A454D6B5C4568DD4085603A4D04
:100910006D6805F46051C90A404D6B5C4568DD4067
:10092000C560354D6D6805F44041890B3C4D6B5CED
:10093000C568B5FBF3F5056130BD29B12E4A526992
:1009400002432D4B5A6104E02B4A526982432A4BE1
:100950005A61704729B1284A92690243264B9A612D
:1009600004E0254A92698243234B9A61704729B17A
:10097000214AD2690243204BDA6104E01E4AD2695F
:1009800082431D4BDA61704729B11B4AD26802438A
:10099000194BDA6004E0184AD2688243164BDA60D9
:1009A000704729B1144A12690243134B1A6104E0DB
:1009B000114A12698243104B1A6170471449403939
:1009C000086070470F49C86470470B49C871704789
:1009D0000948406A40F08070074948627047014604
:1009E0000020054A92680A4201D0012000E0002060
:1009F0007047014988727047001002400000FFF8FC
:100A0000FFFFF6FE00004242D800424220100240A2
:100A10008004424200127A0000093D0014000020C8
:100A20002400002010B50446FB48844209D101216E
:100A30008803FFF7A9FF00214FF48040FFF7A4FFD0
:100A400032E0F648844209D101214804FFF7A9FFAA
:100A500000214FF40030FFF7A4FF25E0F048844266
:100A600009D101218804FFF79CFF00214FF4802069
:100A7000FFF797FF18E0EB48844209D10121C80431
:100A8000FFF78FFF00214FF40020FFF78AFF0BE0F4
:100A9000E548844208D101210805FFF782FF0021C3
:100AA0004FF48010FFF77DFF10BD2DE9F04786B0B1
:100AB00005460E460024A24600BFA1460027B08985
:100AC00000B100BF2F462C8A4CF6FF700440F0881E
:100AD00004432C82AC894EF6F3100440B08831896F
:100AE0000843718908430443AC81AC8A4FF6FF4048
:100AF0000440B0890443AC8201A8FFF7BEFEC6489B
:100B0000874202D1DDF810A001E0DDF80CA0A88931
:100B100010F4004F08D00AEBCA0000EB0A1031684D
:100B20004900B0FBF1F807E00AEBCA0000EB0A103D
:100B300031688900B0FBF1F86420B8FBF0F00401E3
:100B40002009642101FB1089A88910F4004F08D006
:100B5000322000EBC900B0FBF1F000F007000443C5
:100B600008E0322000EB09106421B0FBF1F000F046
:100B70000F0004432C8106B0BDE8F0874FF41651F6
:100B8000016000218180C18001810C21418100210F
:100B90008181704710B502460020108A4FF2FF0392
:100BA00018400B884C8823438C882343CC882343EC
:100BB0001843108210BD0021018041808180C180D6
:100BC000704721B1828942F40052828104E0828917
:100BD0004DF6FF731A4082817047F0B5034600243A
:100BE000002600250020A1F510676A3F00D100BF54
:100BF0001846C1F3421401F01F06012707FA06F553
:100C0000012C01D10C3004E0022C01D1103000E0A5
:100C100014301AB107682F43076002E00768AF433A
:100C20000760F0BD1AB1838A0B43838202E0838A96
:100C30008B4383827047028A4FF6F0731A40028218
:100C4000028A0A430282704782894FF2FF731A4078
:100C5000828182890A438281704721B1828942F070
:100C60000202828104E082894FF6FD731A4082817C
:100C70007047028A4FF6DF731A400282028A0A43E3
:100C80000282704721B1028A42F48042028204E06B
:100C9000028A4BF6FF731A4002827047C1F30802C2
:100CA0008280704701468888C0F3080070478189B8
:100CB00041F0010181817047028BD2B20283028B25
:100CC00042EA012202837047028B02F47F420283D0
:100CD000028B0A430283704721B1828A42F02002CC
:100CE000828204E0828A4FF6DF731A408282704764
:100CF00021B1828A42F01002828204E0828A4FF699
:100D0000EF731A408282704721B1828A42F0080252
:100D1000828204E0828A4FF6F7731A40828270471B
:100D200021B1828942F40042828103E08289C2F3C8
:100D30000E028281704721B1828A42F4006282826F
:100D400004E0828A4FF2FF731A4082827047828ADF
:100D50004FF6FB731A408282828A0A43828270476E
:100D600021B1828A42F00202828204E0828A4FF636
:100D7000FD731A408282704702460020B1F5007F61
:100D800000D100BF13880B4201D0012000E00020F9
:100D9000704701F40072B2F5007F00D100BFCA4372
:100DA0000280704770B50246002400230025002011
:100DB000A1F510666A3E00D100BFC1F3421501F0F3
:100DC0001F03012606FA03F3012D02D19689334051
:100DD00006E0022D02D1168A334001E0968A3340A4
:100DE0000C12012606FA04F41688344013B10CB133
:100DF000012000E0002070BD10B500220023A1F505
:100E000010646A3C00D100BF0A1201249440A3B2CE
:100E1000DC43048010BD0000003801400044004065
:100E200000480040004C00400050004000B58BB02E
:100E300000F0D5F80AA800F027FA0AAA012108460E
:100E400000F0A7FB0AAB00221BA11D4801F037F9F7
:100E50000AA8032100220592CDE906210890104638
:100E600080210C22174BCDE90132CDE9031002207D
:100E70000023154A15A10090164803F0E2FD0AA8C8
:100E8000032100220592CDE9062108901046802119
:100E90000C22114BCDE90132CDE9031003200023D0
:100EA0000E4A0FA10090104803F0CBFD0AA800F0F5
:100EB00043FC00200BB000BD464C414753000000EE
:100EC000D000002008020020ED0E00085461736B72
:100ED00031000000F800002008040020150F000871
:100EE0005461736B32000000800100200EB510E0E9
:100EF00001211A4800F0D8F82021184800F0D4F851
:100F000002A80021C8230A46CDE90010084604F0D3
:100F1000DEFFEDE70EB508E002A80021C8230A466F
:100F2000CDE90010084604F0D2FFF5E770B504469D
:100F30000D4600BF80210A48FFF71EFF0128F9D1A6
:100F4000A1B20748FFF7AAFE00BF40210448FFF7FF
:100F500013FF0128F9D1002070BD000000080140F6
:100F60000038014030B50146B1F1807F01D3012046
:100F700030BD21F07F40401E4FF0E02250615017FD
:100F80000F22002807DA13071D0E2F4B00F00F0465
:100F9000241F1D5503E013071C0E2C4B1C5400BFCF
:100FA00000204FF0E0229061072010610020DFE771
:100FB00010B5274800684FF47A71B0FBF1F4204671
:100FC000FFF7D0FF224800684FF47A71B0FBF1F4CC
:100FD0002046FFF7C7FF08B100BFFEE710BD00B510
:100FE00085B0FFF7E5FF00F03FF800F04DF8012174
:100FF00044F20400FFF7AEFC4FF40070ADF81000AF
:1010000003208DF8120018208DF8130004A9114850
:10101000FFF7EAF94FF4E13000900020ADF804004A
:10102000ADF80600ADF80800ADF80C000820ADF8EA
:101030000A0069460848FFF738FD01210648FFF716
:10104000C0FD05B000BD000018ED00E000E400E0C8
:1010500000000020000801400038014000BF0100EE
:10106000A0F10100FBD1704710B501210420FFF76A
:1010700071FC1E201B490880032088701020C87056
:101080001948FFF7B1F910BD10B501210420FFF791
:1010900061FC212013490880012088704820C87015
:1010A0001148FFF7A1F910BD70B504460D46294659
:1010B0002046FFF72AFA98B942F21070FFF7CEFFE8
:1010C00029462046FFF721FA40B900BF29462046AD
:1010D000FFF71BFA0028F9D0002070BD0120FCE7C3
:1010E0000120FAE7280000200008014015481648B2
:1010F00016481748174818481848194819481A48F0
:101100001A481B481B481C481C481D481D481E48BF
:101110001E481F481F48204820482148214822488F
:10112000224823482348244824482548254826485F
:10113000264827482748284828482948294800BFE2
:1011400070470000FC6C00085C6C0008606C0008D4
:10115000646C0008686C00086C6C0008706C000817
:10116000746C0008786C00087C6C0008806C0008C7
:10117000846C0008886C00088C6C0008906C000877
:10118000946C0008986C00089C6C0008A06C000827
:10119000A46C0008A86C0008AC6C0008B06C0008D7
:1011A000B46C0008B86C0008BC6C0008C06C000887
:1011B000C46C0008C86C0008CC6C0008D06C000837
:1011C000D46C0008D86C0008DC6C0008E06C0008E7
:1011D000E46C0008E86C0008EC6C0008F06C000897
:1011E000F46C0008F86C0008002400BF19E000BF90
:1011F00000BF05F0FFFC044600BF00BFFB480068CD
:10120000401CFA490860FA480068401CF849086028
:1012100000BF00BF204605F0F1FC00BF00BF05F095
:101220006DFCE4E710B58AB004460020EF49086081
:10123000032000210591CDE9070406910846ED49F8
:101240000968ED4A1268ED4B1B68CDE90132CDE922
:10125000031007200023AFF26F02E9A10090ED48D0
:1012600003F0EFFB0AB010BD00210AE001EB4102E0
:10127000E94B03EB820000220281026042604A1CBB
:10128000D1B20829F2D3704770B5044605F037FC97
:101290000020E2490870E2490870E2490870E2491A
:1012A0000870E24800680A21B0FBF1F0E0490860EC
:1012B000E048006858B1E048056845B1DD48066877
:1012C00003E0761E002028602D1D002EF9D102F0CB
:1012D000E3F9FFF7C9FF204604F0E4FA208800B1E3
:1012E00070BD204601F0BBFE208800B1F8E7204623
:1012F000FFF798FF208800B1F2E7204604F026FCB3
:10130000208800B1ECE7204603F0C8FA208800B13D
:10131000E6E7204601F05AFD208800B1E0E72046CC
:1013200002F06CF8208800B1DAE7204602F0B7F846
:10133000208800B1D4E7204602F0E6FD208800B105
:10134000CEE7204603F07FF9208800B1C8E72046A9
:1013500005F0F0FA208800B1C2E700F0CFFDFFF7FA
:10136000C5FE00BFBCE7AE480078012800D070473A
:10137000AA480078FA2800DBF9E7A8480078401C62
:10138000A649087000BFF2E710B50024A448007811
:10139000012800D010BD00BF05F02CFC044600BFA2
:1013A0009E48007828B900BF204605F027FC00BF02
:1013B000F0E79A480078401E98490870084600787F
:1013C000002805DD00BF204605F018FC00BFE1E75E
:1013D00094480078002805DD00BF204605F00EFC8B
:1013E00000BFD7E702F062F9944908700846007818
:1013F00000EB4000884951F82000914908600846F8
:10140000006890490968884205D100BF204605F070
:10141000F5FB00BFBEE78C480068401C8A490860A5
:101420004FF080508949086000BF204605F0E6FB78
:1014300000BF00BFAEE710B5002478480078002850
:1014400000DD10BD77480078002800DDF9E700BF17
:1014500005F0D0FB044600BF02F028F97749087078
:101460000846007800EB40006B4951F820007449B1
:1014700008600846006873490968884205D100BFC2
:10148000204605F0BBFB00BFDBE76F480068401C4F
:101490006D4908604FF080506C49086000BF2046DD
:1014A00005F0ACFB00BF00BFCBE770B504460025DC
:1014B0005A480078002803DD46F66250208070BD4F
:1014C00057480078012803D045F689602080F6E768
:1014D00054480078FA2803DB45F209202080EEE723
:1014E00000BF00BF05F086FB054600BF00BF4D48AA
:1014F0000078401C4B49087000BF00BF284605F02B
:101500007DFB00BF00BF0020208000BFD7E770B583
:101510000446002541480078002803DD46F6655062
:10152000208070BD3E480078012803D045F68960D0
:101530002080F6E73B48007818B946F664502080D2
:10154000EFE700BF00BF05F055FB054600BF00BF39
:1015500034480078401E3349087008460078002857
:101560000ADD00BF00BF284605F048FB00BF00BFF2
:1015700046F663502080D4E700BF00BF284605F040
:101580003DFB00BF00BFFFF756FF0020208000BFDB
:10159000C7E72DE9F04105460C461646002700BF77
:1015A00000BF05F027FB074600BF00BF012D03D099
:1015B00000201D49087002E001201B49087014B189
:1015C0001B48046006E0194800680A21B0FBF1F0EE
:1015D0001749086000BF00BF384605F00FFB00BF89
:1015E00000BF00203080BDE8F08100003000002006
:1015F00080000020646C0008606C00085C6C0008CF
:1016000075432F4F532D4949492049646C65205437
:1016100061736B00581A0020681B00203400002002
:10162000350000206E00002074000020BC6C000813
:10163000700000208C6C0008886C00086500002099
:10164000C8000020C40000209800002004ED00E045
:1016500010B501460C8924B1012C03D0022C0CD109
:1016600001E000BF14E008684A6802610024C46019
:101670001461D0600A6048600AE008684A68C3687C
:1016800000241C61C4600261D0600B60486000BF30
:1016900000BF10BD2DE9F04104460027F84800784E
:1016A000002804DD48F2D1402080BDE8F081F548F3
:1016B0000078002803DD46F663502080F5E7F24805
:1016C0000078012803D046F67B102080EDE700BFAC
:1016D00000BF05F08FFA074600BF00BFEB48007857
:1016E00000EB4000EA4901EB8006308902280ADA63
:1016F00000BF00BF384605F081FA00BF00BF46F6C4
:101700007A102080D1E73046FFF7A2FF3568686D78
:1017100018B9E0480068A86501E0686DA86500BFD9
:1017200000BF384605F06AFA00BF00BFFFF783FE2E
:101730000020208000BFB8E710B50446D6480078E6
:10174000E8B901F0B3FFD549087008460078CF49E1
:101750000870D248007800EB4000CD4951F82000D5
:10176000CF49086008460068CE4908600120CA4990
:10177000087005F081F943F69920208002E045F6D3
:101780008A60208010BD01460020088047F2F85092
:10179000704730B548B14568C1F8845000F108047D
:1017A000226893681D6AC56113E091F83450022DD8
:1017B00002D0072D08D103E0BBA5C1F8845007E093
:1017C000BBA5C1F8845003E0BCA5C1F8845000BF9C
:1017D00000BF30BDF0B58E6896F8375007893FB925
:1017E0000127078100274F600F600160416023E0FF
:1017F00007897F1C0781026806E0946894F83770B7
:10180000AF4200DD02E05268002AF6D100BF32B9D3
:1018100000274F6043680B60596041600CE0176817
:101820002FB9116000270F604A60016004E013685F
:101830000B604A6059601160F0BD10B5C28701634A
:1018400000230AE000244C600C600C614C610C83A6
:10185000CC61886020315C1CA3B29342F2DB10BDE6
:101860002DE9F041054695F8370000EB4000884926
:1018700001EB80042F69EE6887B946B9002020810A
:101880002060606095F8370001F032FF0EE020899B
:10189000401E208100203061266007E02089401E24
:1018A0002081FE600EB9676000E03761002028618A
:1018B000E860BDE8F08138B504460D4685B16B4659
:1018C00002222946204604F070F9BDF8000018B93C
:1018D000032084F8360006E0022084F8360002E097
:1018E000022084F836002046FFF7BAFF38BD2DE904
:1018F000F04105460C4616461F466A48006880F8C7
:10190000346000206749096881F835003946654828
:101910000068FFF7D0FF6CB104F10808EC60012209
:10192000294660480068FFF788FF29464046FFF7D0
:1019300051FF06E000205B490968C88759490968DA
:101940000863584801682046FFF723FFBDE8F0818F
:1019500010B50489012C03D100240460446011E017
:101960000C6824B94A680024146002600AE04C68DC
:1019700024B90B6800245C60436003E00B684A688C
:101980005A6013600489641E048100244C600C605A
:1019900010BD2DE9F0410446256BE68F0AE0D5F82D
:1019A0000C8008F1080729463846FFF7D1FF20359B
:1019B000701E86B2002EF2DC0020E0872063BDE8B6
:1019C000F08130B50346086BCC8F08E0C5689D42B6
:1019D00002D10361C26104E02030651EACB2002C6C
:1019E000F4DC00BF30BD10B590F8373003EB430393
:1019F000274C04EB83010B893BB901230B810023A6
:101A0000C36003610860486009E00B895B1C0B81BF
:101A10000B68C360002303610A681061086010BD91
:101A200010B590F8373003EB4303194C04EB8301F6
:101A30000B893BB901230B810023C360036108605C
:101A4000486008E00B895B1C0B810023C3604A6877
:101A50000261D060486010BD10B5044694F83700AC
:101A600001F036FE94F8370008490978884203D11E
:101A70002046FFF7D5FF02E02046FFF7B4FF10BD78
:101A8000340000206E00002074000020640000205C
:101A9000681B002070000020350000206500002039
:101AA000C8000020C40000205461736B2051000066
:101AB0005461736B2053656D00000000200000002E
:101AC00010B50446204603F013FF94F8360010F0DA
:101AD000040F02D12046FFF7BFFF10BD70B50546C9
:101AE0000C46164694F8360008284DD2DFE800F080
:101AF0000405080906072A2B00BF00BF00BF44E009
:101B000000BF94F83400032804D132462146284609
:101B1000FFF757FF0020E065A4F86000266415B1C8
:101B20002046FFF736FF2046FFF7CAFF002004F1EA
:101B30003404A0704FF0010060704FF0000004F812
:101B4000340922E000BF94F83400032804D132465F
:101B500021462846FFF735FF0020E065A4F8600025
:101B6000266415B12046FFF714FF204603F0C0FE9F
:101B7000042004F13404A0704FF0010060704FF0B5
:101B8000000004F8340900E000BF00BF70BD30B5AC
:101B9000AFF2D805C1F8845000F1080422681AB1E8
:101BA00093681D6AC56102E0AFF2F005C56130BD02
:101BB0002DE9F04304460F4684F83770256BB4F8DE
:101BC0003E8013E0D5F80C9009F108063089012811
:101BD00007D929463046FFF7BBFE29463046FFF7B6
:101BE000F9FD2035A8F101001FFA80F8B8F1000FC7
:101BF000E8D1BDE8F08300210160416001817047B8
:101C000003895B1C038103684B6000230B6002683F
:101C100002B1116001600389012B00D1416070475E
:101C200030B50346086BCC8F08E0C5689D4202D1F1
:101C30000361C26104E02030651EACB2002CF4DC0C
:101C400000BF30BD70B506460C46154694F8360008
:101C500008284BD2DFE800F0040508090607292A06
:101C600000BF00BF00BF42E000BF94F8340003286B
:101C700004D12A4621463046FFF7D2FF0020E06516
:101C8000A4F8600025642046FFF783FE2046FFF796
:101C900017FF002004F13404A0704FF002006070C0
:101CA0004FF0000004F8340921E000BF94F834003C
:101CB000032804D12A4621463046FFF7B1FF002011
:101CC000E065A4F860002564204603F011FE20467C
:101CD000FFF75FFE042004F13404A0704FF002000F
:101CE00060704FF0000004F8340900E000BF00BF4E
:101CF00070BDF0B50446059E086BCD8F0AE0C7683D
:101D0000A74204D1046142610383C66104E020302C
:101D10006F1EBDB2002DF2DC00BFF0BD2DE9F8430F
:101D200006460C4617469846089D94F83600082843
:101D300053D2DFE800F00405080906072C2D00BF88
:101D400000BF00BF4AE000BF94F83400032807D169
:101D500043463A46214630460095FFF7CAFF03E066
:101D6000E765A4F86080256436B12046FFF711FED0
:101D700021463046FFF70BFF2046FFF7A1FE00206B
:101D800004F13404A070607004F8340926E000BF48
:101D900094F83400032807D143463A46214630469A
:101DA0000095FFF7A6FF03E0E765A4F860802564CF
:101DB000204603F09DFD36B12046FFF7EAFD21469F
:101DC0003046FFF7E4FE042004F13404A0704FF025
:101DD0000000607004F8340900E000BF00BFBDE8F7
:101DE000F88310B5002400BF04F004FF044600BFD0
:101DF0000020394908703948394908603948006875
:101E0000401C384908604FF080503749086000BFD7
:101E1000204604F0F3FE00BF10BD70B50546002655
:101E200032480078012800D070BD00BF00BF04F028
:101E3000E1FE064600BF00BF2C683CB900BF00BFF2
:101E4000304604F0DBFE00BF00BFEDE728488442C7
:101E500007D100BF00BF304604F0D0FE00BF00BF76
:101E6000E2E7A06D10B1A06D401EA065A06D38B175
:101E700000BF00BF304604F0C1FE00BF00BFD3E783
:101E80002889022807DA00BF00BF304604F0B6FEFA
:101E900000BF00BFC8E717480078002807DD00BF73
:101EA00000BF304604F0AAFE00BF00BFBCE72846D2
:101EB000FFF7CEFB2C68606D18B90F480068A0656D
:101EC00001E0606DA06500BF00BF304604F096FEE3
:101ED00000BF00BF00BFA7E765000020E01A002098
:101EE000C80000209800002004ED00E074000020ED
:101EF000581A00206E00002070000020224823485D
:101F00002348244824482548254826482648274869
:101F1000274828482848294829482A482A482B4839
:101F20002B482C482C482D482D482E482E482F4809
:101F30002F483048304831483148324832483348D9
:101F400033483448344835483548364836483748A9
:101F5000374838483848394839483A483A483B4879
:101F60003B483C483C483D483D483E483E483F4849
:101F70003F48404840484148414842484248434819
:101F80004348444800BF7047006D0008686E000871
:101F9000026D0008036D0008046D0008086D00085C
:101FA0000C6D0008096D0008346D0008356D0008DF
:101FB000366D0008386D00083A6D00083C6D000869
:101FC0003E6D0008406D0008606D0008626D0008FD
:101FD000646D0008666D0008686D00086A6D000891
:101FE0006C6D0008986D00089E6D00089F6D0008DC
:101FF000A06D0008A26D0008A46D0008A66D000881
:10200000A86D0008AA6D0008AC6D0008DC6D000822
:10201000DD6D0008DE6D0008DF6D0008E06D000872
:10202000E26D0008E46D00080C6E00080D6E0008FB
:102030000E6E00080F6E0008106E0008126E000889
:10204000146E0008186E0008196E00081A6E000859
:102050001B6E00081C6E00081D6E00081E6E000836
:102060001F6E0008206E0008226E0008236E000814
:10207000246E0008266E0008286E0008296E0008ED
:102080002C6E0008606E0008616E0008626E000829
:10209000646E0008666E0008FAA1C161002141610A
:1020A000F949096811B90021816105E0F64909681B
:1020B0008161F54909684861F349086070472DE975
:1020C000F04104460E4617461D464FF00008EF4803
:1020D0000078002804DD42F6E1602880BDE8F08148
:1020E0001CB945F6C3502880F8E700BF00BF00BF09
:1020F00004F080FD804600BF00BFE5480078401C2A
:10210000E349087000BF00BF404604F077FD00BF00
:1021100000BF00BFDF482060666027620020606269
:1021200004F10800FFF767FD2046FFF7B5FFDA4826
:102130000088401CD849088000BF00BF00BF04F0E1
:1021400059FD804600BF00BFD1480078401ED049ED
:10215000087008460078A0B9D0480088002809DD3A
:1021600000BF00BF404604F049FD00BF00BFFFF7BD
:1021700038FE0DE000BF00BF404604F03FFD00BF49
:1021800006E000BF00BF404604F038FD00BF00BFBE
:1021900000BF0020288000BFA0E770B50446C048FB
:1021A0002060C0A060600020206204F1080528467D
:1021B000FFF721FD70BD426981693AB9B24B1960E0
:1021C00009B100234B610023836109E019B90023A1
:1021D0009361436104E091614A610023836143613B
:1021E00070472DE9FC5F07468846144600200090A2
:1021F000A6480078002805DD43F2C9202080002091
:10220000BDE8FC9F27B945F6C35020800020F7E7C2
:10221000B8F1000F03D0B8F1010F02D100E000BF08
:1022200004E045F6256020800020E9E700BF00BFFC
:1022300000BF00BF04F0DEFC009000BF00BF944868
:102240000078401C9249087000BF00BF009804F05D
:10225000D5FC00BF00BF00BF07F10809B9F808505E
:102260002E46B8F1000F03D0B8F1010F71D16DE027
:102270007EBB3846FFF79FFF87480088401E86498F
:1022800008803846FFF789FF00BF00BF00BF04F099
:10229000B1FC009000BF00BF7D480078401E7C4923
:1022A000087008460078A8B97C480088002809DD35
:1022B00000BF00BF009804F0A1FC00BF00BFFFF703
:1022C00090FD0EE000BF00BF009804F097FC00BF37
:1022D00007E00AE000BF00BF009804F08FFC00BFD9
:1022E00000BF00BF002020802FE000BF00BF00BF64
:1022F00004F080FC009000BF00BF65480078401EDD
:102300006349087008460078A0B96448008800282E
:1023100009DD00BF00BF009804F070FC00BF00BFE3
:10232000FFF75FFD0DE000BF00BF009804F066FC02
:1023300000BF06E000BF00BF009804F05FFC00BFD4
:1023400000BF00BF47F25E10208066E000200190D1
:102350000BE031E0D9F800A0DAF808B05946384669
:10236000019AFFF76FFC681E85B2002DF2D1384646
:10237000FFF721FF48480088401E4749088038463B
:10238000FFF70BFF00BF00BF00BF04F033FC00905D
:1023900000BF00BF3E480078401E3D49087000BFA6
:1023A00000BF009804F02AFC00BF00BF00BFFFF789
:1023B00042F80020208030E000BF00BF00BF04F0E2
:1023C00019FC009000BF00BF31480078401E304922
:1023D000087008460078A0B930480088002809DD58
:1023E00000BF00BF009804F009FC00BF00BFFFF76A
:1023F000F8FC0DE000BF00BF009804F0FFFB00BF39
:1024000006E000BF00BF009804F0F8FB00BF00BF6B
:1024100000BF45F62560208000BF00BF3046EFE6D4
:102420002DE9F04106460F4614461D46DDF818809A
:102430001E48006884661D480068A0F8705000209F
:102440001A490968C8664346012239463046FFF7F3
:102450004EFABDE8F0812DE9F04F8BB00446884676
:1024600093469946DDE914750020019007480078ED
:1024700000281DDD46F2AE10288000200BB0BDE81C
:10248000F08F0000200000004C00002034000020ED
:102490006E000020464C41475000002040000020C4
:1024A0004E4F4E453F464C4147000000C4000020BF
:1024B00034B945F6C350288000200BB0BDE8F08F3A
:1024C00019F4807F02D04FF0010A01E04FF0000ABA
:1024D0000FB10020386009F00F000A9000BF00BF64
:1024E00004F088FB019000BF00BF0A9801287DD04E
:1024F00002287CD0042802D0082879D166E0206A1E
:1025000000EA0806464516D1BAF1010F02D1206A49
:10251000B0432062FC480068C6660FB1606A38604C
:1025200000BF00BF019804F069FB00BF00BF00209E
:1025300028803046C1E719F4004F0BD000BF00BF20
:10254000019804F05BFB00BF00BF46F2B01028808A
:102550000020B2E7ED48007800280BDD00BF00BF87
:10256000019804F04BFB00BF00BF46F66350288083
:102570000020A2E700BFE5480078401CE34908704E
:1025800000BF00BF019804F039FB00BF00BF00BFCF
:102590004B464246214602A8CDF800B0FFF740FF67
:1025A00000BF00BF00BF04F025FB019000BF00BFCB
:1025B000D6480078401ED549087000BF00BF01987A
:1025C00004F01CFB00BF00BF00BF42E1206A00EA2C
:1025D0000806D6B1BAF1010F02D1206AB0432062D9
:1025E000C9480068C6662FB1606A02E058E0BEE0E4
:1025F00023E1386000BF00BF019804F0FFFA00BF7C
:1026000000BF00202880304657E719F4004F0BD058
:1026100000BF00BF019804F0F1FA00BF00BF46F20E
:10262000B0102880002048E7B848007800280BDD6B
:1026300000BF00BF019804F0E1FA00BF00BF46F6FA
:1026400063502880002038E700BFB0480078401C65
:10265000AE49087000BF00BF019804F0CFFA00BF78
:1026600000BF00BF4B464246214602A8CDF800B04D
:10267000FFF7D6FE00BF00BF00BF04F0BBFA019019
:1026800000BF00BFA1480078401EA049087000BFED
:1026900000BF019804F0B2FA00BF00BF00BFD8E04D
:1026A000206A28EA0006464516D1BAF1010F02D188
:1026B000206A3043206294480068C6660FB1606AA1
:1026C000386000BF00BF019804F098FA00BF00BF57
:1026D000002028803046F0E619F4004F0BD000BFF0
:1026E00000BF019804F08AFA00BF00BF46F2B010A4
:1026F00028800020E1E68548007800280BDD00BF37
:1027000000BF019804F07AFA00BF00BF46F663509C
:1027100028800020D1E600BF7C480078401C7B491F
:10272000087000BF00BF019804F068FA00BF00BF46
:1027300000BF4B464246214602A8CDF800B0FFF745
:102740006FFE00BF00BF00BF04F054FA019000BF4D
:1027500000BF6E480078401E6C49087000BF00BF83
:10276000019804F04BFA00BF00BF00BF71E0206A7F
:1027700028EA0006B6B1BAF1010F02D1206A30434F
:10278000206261480068C6660FB1606A386000BFA9
:1027900000BF019804F032FA00BF00BF002028807B
:1027A00030468AE619F4004F0BD000BF00BF0198F5
:1027B00004F024FA00BF00BF46F2B01028800020C9
:1027C0007BE65248007800280BDD00BF00BF01986F
:1027D00004F014FA00BF00BF46F6635028800020C2
:1027E0006BE600BF49480078401C4849087000BFAC
:1027F00000BF019804F002FA00BF00BF00BF4B46C3
:102800004246214602A8CDF800B0FFF709FE00BFFE
:1028100000BF00BF04F0EEF9019000BF00BF3B48CD
:102820000078401E3949087000BF00BF019804F0CD
:10283000E5F900BF00BF00BF0BE000BF00BF01987B
:1028400004F0DCF900BF00BF45F6256028800020B9
:1028500033E600BFFEF7EFFD00BF00BF04F0CAF98A
:10286000019000BF00BF2848006890F8350030B1E3
:1028700001280CD002282AD0032839D118E01FB132
:1028800021480068006C38600020288040E01FB1BB
:102890001D480068006C386000BF00BF019804F05C
:1028A000ADF900BF00BF46F2A9102880002004E661
:1028B0000FB10020386000BF00BF019804F09EF9FE
:1028C00000BF00BF47F2D92028800020F5E51FB1E6
:1028D0000D480068006C386000BF00BF019804F02C
:1028E0008DF900BF00BF45F6C25028800020E4E506
:1028F00000BF00BF019804F081F900BF00BF46F699
:102900002B6028800020D8E5C40000206E00002045
:1029100000BFFE480068C66EBAF1010F20D10A98C8
:1029200001280BD002280AD0042802D008280AD196
:1029300000E000BF206AB043206210E000BF206AC0
:10294000304320620BE000BF00BF019804F056F94D
:1029500000BF00BF45F6256028800020ADE500BF20
:1029600000BF00BF019804F049F900BF00BF00207C
:1029700028803046A1E52DE9F05F07460D46144654
:102980004FF0000BE2480078002805DD46F2AA105F
:1029900020800020BDE8F09F27B945F6C350208075
:1029A0000020F7E74DB1B5F5807F07D0B5F5004FB2
:1029B00005D0B5F5014F04D102E000BF00BF00BF54
:1029C00004E045F6256020800020E3E700BF00BF5B
:1029D00000BF04F00FF9834600BF00BF07F10806EF
:1029E000308958B900BF00BF584604F007F900BF4E
:1029F00000BF46F2AB1020800020CBE700BFC548E7
:102A00000078401CC349087000BF00BF584604F05E
:102A1000F5F800BF00BF00BF4FF00008C2460FE04E
:102A20003068D0F80890524649463846FFF756F8C5
:102A300008F101001FFA80F8B5F5807F00D002E0B0
:102A400030890028ECDC00BF00BF00BF00BF04F0ED
:102A5000D1F8834600BF00BFAE480078401EAD49A4
:102A6000087000BF00BF584604F0C8F800BF00BFA0
:102A700000BF15F4004F01D1FEF7DDFC00202080DF
:102A8000404687E770B504460026A1480078002834
:102A900004DD46F2AE102080002070BD00BF00BFF4
:102AA00004F0A8F8064600BF00BF98480068C56E4D
:102AB00000BF00BF304604F0A1F800BF00BF0020F7
:102AC00020802846E9E770B504460D46164604F115
:102AD0003404A5634FF0000060702070E660A078B9
:102AE000A4F13404082816D2DFE800F00405080930
:102AF0000706101100BF00BF00BF0DE000BF204659
:102B0000FEF7DEFF002084F8360005E000BF042059
:102B100084F8360000E000BF00BF2046FEF739FF12
:102B200070BD2DE9F04F85B00446894692469B461C
:102B3000DDF838800020009000BF00BF04F05AF894
:102B4000009000BF00BFBAF1000F0BD0BAF1010F27
:102B50000ED0BAF5004F06D06FF400401AEB00001B
:102B60000CD106E000BF206A40EA0900206214E0B0
:102B700000BF206A20EA090020620EE000BF00BF0B
:102B8000009804F03BF800BF00BF45F62560A8F8A8
:102B90000000002005B0BDE8F08F00BFC4F824B0ED
:102BA00004F1080001900198008958B900BF00BFE6
:102BB000009804F023F800BF00BF0020A8F8000030
:102BC000206AE7E700BF53480078401C514908706D
:102BD00000BF00BF009804F011F800BF00BF00BFA5
:102BE00001980768BD6879E07868029095F87000F0
:102BF00000F00F000390039801281ED0022829D06E
:102C0000042802D0082830D10CE0206AA96E00EA1E
:102C10000106A86EB04204D15A4631462846FFF755
:102C200052FF55E0206AA96E00EA010626B15A4615
:102C300031462846FFF747FF4AE0A86E216A20EA9E
:102C40000106A86EB04204D15A4631462846FFF725
:102C50003AFF3DE0A86E216A20EA010626B15A46F5
:102C600031462846FFF72FFF32E000BF00BF00BF0C
:102C700003F0C0FF009000BF00BF26480078401E50
:102C80002449087008460078A0B923480088002825
:102C900009DD00BF00BF009803F0B0FF00BF00BF18
:102CA000FFF79FF80DE000BF00BF009803F0A6FFFC
:102CB00000BF06E000BF00BF009803F09FFF00BF09
:102CC00000BF00BF43F6FF20A8F80000002061E726
:102CD00000BF029F0FB1BD6800E00025002D83D129
:102CE00000BF00BF00BF03F085FF009000BF00BF22
:102CF00008480078401E0749087000BF00BF0098D0
:102D000003F07CFF00BF00BF00BF07E0C40000204D
:102D1000340000206E000020400000201AF4004F14
:102D200001D1FEF788FB00BF00BF03F063FF0090F6
:102D300000BF00BF206A049000BF00BF009803F0EE
:102D40005DFF00BF00BF0020A8F80000049821E745
:102D50002DE9FF470546884616461C4635B945F617
:102D6000C3502080002004B0BDE8F0874EB1012E92
:102D700008D0B6F5004F06D06FF40040301804D1EB
:102D800002E000BF00BF00BF04E045F625602080E0
:102D90000020E8E700BF00271048007800280BDD7E
:102DA00000231A4629460E48CDE90086CDE9027473
:102DB00000F01CF80020D6E73B4632464146284644
:102DC0000094FFF7AEFE81464846CCE70021054A55
:102DD0001160054A11800180704700003400002016
:102DE000464C41474C000020500000202DE9F84F90
:102DF00004460D4616461F46DDE90BABDDF828906C
:102E0000DDF834800020009000BF00BF03F0F2FE28
:102E1000009000BF00BFC6480088C64909888842A4
:102E20003BDAC3480088401CC1490880C24800887A
:102E30000988884203DABE480088BF490880BF4835
:102E400000680460BD4800688560BC480068C660D2
:102E5000BA4800680782B9480068C0F81490B748BB
:102E60000068A0F818A0B5480068C0F81CB0B348C6
:102E700000684068B14908600120B1490881B14843
:102E800008604860002000F023FCAF480078AF499C
:102E900008700020A8F8000008E0AD480088401C39
:102EA000AB49088044F25360A8F8000000BF00BF9F
:102EB000009803F0A3FE00BF00BFBDE8F88F2DE926
:102EC000FE4F4FF0000B00BF00BF03F093FE8346A0
:102ED00000BF00BF9F480068D0F800909D48006880
:102EE00086689C480068C7689A480068B0F810A0D7
:102EF00098480068D0F8148096480068058B95487B
:102F00000068C4699348006840689249086000BF3F
:102F100000BF584603F072FE00BF00BF8E49A9EB08
:102F2000010089452CD00ADC8C4819EB000020D028
:102F30008B4940180AD08B4940184BD121E08A496F
:102F4000401825D08949401844D108E002A82346FA
:102F50002A46414600903046FFF7E3FD3BE002A8D9
:102F60002B4652463946CDE90040304600F003FF7B
:102F700031E002AB22462946304601F059FA2AE0F8
:102F800029E002AB22462946304602F042F922E00F
:102F90006E49097801EB4101694A02EB8100FEF7B5
:102FA0003CFF02AB22460021714802F032F9714821
:102FB0000068401E6F4908600846006848B96E48BE
:102FC00000680860002402AB224600216B4802F032
:102FD00020F900E000BF00BFBDE8FE8F002700BF62
:102FE0003CE0002638E052480088C0B900BF00BF6E
:102FF00003F000FE074600BF00BF002050490881D3
:103000000860486000F074FB00BF00BF384603F062
:10301000F5FD00BF00BFFEF70EFA01261CE00025FB
:10302000FFF74DFF6C4256480068844201D954486E
:10303000046000BF00BF03F0DDFD074600BF00BF16
:103040003B480088401E3A49088000BF00BF384610
:1030500003F0D4FD00BF00BF002EC4D0C1E7F0B51F
:1030600089B0054600203A4908804648006820B9E2
:1030700044F25260288009B0F0BD2E480088022832
:1030800003DA44F254602880F5E700203C490860E8
:103090003C4804682646203600270CE03A48206069
:1030A0000020A060E06020826061208366602034A0
:1030B0002036781C87B21F4800888742EEDB203C10
:1030C0003048066866601D48066022480660002099
:1030D00017490880184908802C48006818B946F636
:1030E0002C602880C7E72A4800682A490968884276
:1030F00003D246F62D602880BDE70320002105910C
:10310000CDE90705069122480068234A12681F4B43
:103110001B68CDE90301CDE9013200910B46AFF206
:1031200043121EA1074801F08CFC00BFA3E700007A
:1031300040000020706C0008420000203800002091
:10314000681B0020E01A00206400002066000020B8
:10315000440000203C000020544D5347ADBAB2BE9D
:103160000DF90BFAF2F8F7FF000410FC03F4FDF57B
:10317000501C0020C0000020BC000020D81C0020F3
:10318000480000206C6C00084E4F4E45786C0008DB
:10319000806C0008B86C00087C6C000875432F4FE9
:1031A000532D494949204953522051756575652071
:1031B0005461736B0000000000218161934909682C
:1031C00011B90021C16105E090490968C1618F49C9
:1031D000096888618D49086070472DE9FF4F83B009
:1031E000044615461F46DDE91096002000908848E9
:1031F0000078002805DD45F2B960308007B0BDE8F1
:10320000F08F1DB945F2BB603080F7E7022F03DA7B
:1032100045F2BC603080F1E7B9F1040F03D245F20A
:10322000C1603080EAE74FF0030ABAF1000F0CD01A
:1032300015EA0A0F03D045F2BB603080DEE719EAD9
:103240000A0F02D045F2C1603080AB46A846781E16
:1032500080B201900020029007E0C844CBF80080C3
:10326000C3460298401C80B20290DDE901108842FA
:10327000F3DB0020CBF8000000BF00BF00BF03F06D
:10328000B9FC009000BF00BF62480078401C614953
:10329000087000BF00BF009803F0B0FC00BF00BF83
:1032A00000BF5D4820600498A0606560E560A7826B
:1032B0006782A4F810902046FFF77EFF57480088E9
:1032C000401C5649088000BF00BF00BF03F092FCBD
:1032D000009000BF00BF4F480078401E4D49087065
:1032E00008460078A0B94E480088002809DD00BFD4
:1032F00000BF009803F082FC00BF00BFFEF771FD25
:103300000DE000BF00BF009803F078FC00BF06E0AE
:1033100000BF00BF009803F071FC00BF00BF00BFFA
:103320000020308000BF69E72DE9F04104460D46DA
:1033300000272CB945F2BF6028800020BDE8F0814D
:1033400000BF00BF03F056FC074600BF00BFA08AC5
:1033500058B900BF00BF384603F050FC00BF00BFA3
:1033600045F2C26028800020E8E7E6683068E06047
:10337000A08A401EA08200BF00BF384603F03EFC7A
:1033800000BF00BF002028803046D7E72DE9F0417C
:1033900004460E461546002724B945F2BF60288032
:1033A000BDE8F0811EB945F2BE602880F8E700BF95
:1033B00000BF03F01FFC074600BF00BFA08A618A60
:1033C00088420ADB00BF00BF384603F017FC00BF8D
:1033D00000BF45F2BA602880E2E7E0683060E6604E
:1033E000A08A401CA08200BF00BF384603F006FC44
:1033F00000BF00BF0020288000BFD1E70021034AA2
:103400001160064A118001807047000054000020BE
:10341000340000206E0000204D454D205800002053
:103420004000002070B502460B4610461146103190
:103430005E1EB5B2002408E00160002646600681E9
:10344000C66010301031661CB4B2AC42F4DB00260A
:10345000066046600681C66070BD70B504460E46C3
:1034600015461CB945F21E70288070BD1EB945F284
:103470001D702880F9E731462046FFF7D3FF8348C7
:103480000168701E04EB00100160804804608088B1
:1034900030447E4988800020288000BFE5E710B5D1
:1034A00004467B48006818B945F21E70208010BDA4
:1034B0007848008818B945F21D702080F7E77548F4
:1034C000018873480068FFF7ADFF714800686F49D5
:1034D00008607048008888800020C880208000BF75
:1034E000E5E770B50446002500BF00BF03F082FB8E
:1034F000054600BF00BF0020A08100BF00BF2846D6
:1035000003F07CFB00BF00BF70BD10B501464889C9
:103510004B89002B17DD0A685C4B1B6813605B4C02
:103520004B6823602346DB884C891B1B574CE38088
:1035300023469B884C892344544CA38000234B8111
:103540008B810B604B6010BD018100224281828122
:10355000026042607047F0B504460D46608940B98C
:103560000020288002B1106046F29250188000209E
:10357000F0BD61684E68088928800AB1C86810608B
:1035800008686060606818B900202060608102E00F
:103590006089401E60813D48006808603B480160CA
:1035A0008088401C394FB8803846C088401EF8805B
:1035B000002018803046DBE72DE9F0410D46DDE9BB
:1035C0000674B0F80AC0B0F80880C44505DB46F2BE
:1035D000935CA4F800C0BDE8F081DFF8B0C0BCF88F
:1035E00004C0BCF1000F04D145F21D7CA4F800C05A
:1035F000F1E7DFF898C0DCF80010DFF89080D1F830
:1036000000C0C8F800C0C446BCF804C0ACF1010C4E
:10361000A8F804C0C446BCF806C00CF1010CA8F818
:1036200006C0B0F80AC0BCF1000F06D101604160CD
:103630004FF0010CA0F80AC015E013F0100F07D1ED
:10364000066831604FF0000CC1F800C0016004E072
:10365000D0F804C0C1F800C04160B0F80AC00CF155
:10366000010CA0F80AC0B0F80AC0B0F80C80C4453C
:1036700003DDB0F80AC0A0F80CC04D600A81CF602D
:103680004FF0000CA4F800C000BFA4E75C000020CD
:103690009C6C0008946C0008002004E000211C4A87
:1036A00042F82010401C0028F8D0704770B5002563
:1036B000174C03E005F12000C5B2241D2068002846
:1036C000F8D0206803F09DFA2844C5B2284670BDA2
:1036D00030B5420900F01F030121C3F11F04A140CE
:1036E0000B4C54F822400C43094D45F8224030BDA4
:1036F00030B5420900F01F030121C3F11F04A140AE
:10370000034C54F822408C43014D45F8224030BD13
:103710002C000020FDA1C16100214161FC49096824
:1037200011B90021816105E0F94909688161F84911
:1037300009684861F649086070472DE9F041044680
:103740000F4616461D464FF00008F2480078002844
:1037500004DD42F6E1602880BDE8F0811CB945F641
:10376000C3502880F8E71EB946F294502880F3E74A
:1037700000BF00BF00BF03F03DFA804600BF00BF9E
:10378000E5480078401CE449087000BF00BF40468F
:1037900003F034FA00BF00BF00BFE048206067605C
:1037A000314604F12000FFF7CFFE04F10800FEF7D8
:1037B00022FA2046FFF7AEFFD9480088401CD849BE
:1037C000088000BF00BF00BF03F014FA804600BFAE
:1037D00000BFD1480078401ECF49087008460078E5
:1037E000A0B9D0480088002809DD00BF00BF4046CE
:1037F00003F004FA00BF00BFFEF7F3FA0DE000BFCC
:1038000000BF404603F0FAF900BF06E000BF00BF6A
:10381000404603F0F3F900BF00BF00BF002028803E
:1038200000BF99E710B5044604F12000FFF76DFED4
:10383000BD482060BDA06060002104F12000FFF7BA
:1038400083FE04F10800FEF7D6F910BD42698169D4
:103850003AB9AF4B196009B100234B610023836172
:1038600009E019B900239361436104E091614A6161
:1038700000238361436170472DE9FC5F0746894659
:10388000144600200090A3480078002805DD43F28C
:10389000C92020800020BDE8FC9F27B945F6C35011
:1038A00020800020F7E700BF00BF03F0A3F90090DD
:1038B00000BF00BF07F10808B8F808502E46B9F15C
:1038C000000F03D0B9F1010F64D120E0A6B938464A
:1038D000FFF7BCFF92480088401E91490880384697
:1038E000FFF7A0FF00BF00BF009803F087F900BFFB
:1038F00000BF0020208009E000BF00BF009803F057
:103900007DF900BF00BF47F25E1020804DE000BF90
:1039100081480078401C8049087000BF00BF0098B3
:1039200003F06CF900BF00BF00BF002001900AE067
:10393000D8F800A0DAF808B059463846019AFEF7E0
:1039400081F9681E85B2002DF2D13846FFF77EFF5F
:1039500073480088401E724908803846FFF762FFAE
:1039600000BF00BF00BF03F045F9009000BF00BFDB
:1039700069480078401E6849087000BF00BF009881
:1039800003F03CF900BF00BF00BFFDF754FD00206D
:1039900020800AE000BF00BF009803F02FF900BFAD
:1039A00000BF45F62560208000BF00BF304672E7AB
:1039B0002DE9F04105460C460026564800780028BF
:1039C00005DD4FF46C5020800020BDE8F08125B962
:1039D00045F6C35020800020F7E700BF00BF00BFBE
:1039E00003F008F9064600BF00BF4B480078401CB2
:1039F0004949087000BF00BF304603F0FFF800BF20
:103A000000BF00BF05F12000FFF77FFD074600BFA4
:103A100000BF00BF03F0EEF8064600BF00BF3E48FF
:103A20000078401E3C49087008460078A0B93D481F
:103A30000088002809DD00BF00BF304603F0DEF833
:103A400000BF00BFFEF7CDF90DE000BF00BF30465C
:103A500003F0D4F800BF06E000BF00BF304603F01B
:103A6000CDF800BF00BF00BF002020803846ACE783
:103A70002DE9F04F89B00746894690461E46DDE99C
:103A800012544FF0000B23480078002806DD46F260
:103A9000AE102080002009B0BDE8F08F27B945F6B0
:103AA000C35020800020F6E726B946F2D5202080BA
:103AB0000020F0E7B8F1000F03D0B8F5004F02D1B5
:103AC00000E000BF04E045F6256020800020E2E72A
:103AD00000BF0DB10020286000BF00BF03F08AF8CE
:103AE000834600BF00BF23462A46314607F1200027
:103AF000FFF731FD82462088D0B900BF00BF58468D
:103B000003F07CF800BF00BF5046C4E7200000006F
:103B100068000020340000206E00002051554555FB
:103B20006C000020400000204E4F4E453F510000E9
:103B300018F4004F0BD000BF00BF584603F05EF8EA
:103B400000BF00BF46F2B01020800020A3E7F2487B
:103B5000007800280BDD00BF00BF584603F04EF888
:103B600000BF00BF46F663502080002093E700BFEF
:103B7000E9480078401CE849087000BF00BF58467B
:103B800003F03CF800BF00BF00BF4B46052239469A
:103B900001A8FDF7ACFE00BF00BF00BF03F02AF88C
:103BA000834600BF00BFDC480078401EDA49087039
:103BB00000BF00BF584603F021F800BF00BF00BFA0
:103BC000FDF739FC00BF00BF03F014F8834600BFC7
:103BD00000BFD248006890F8350030B1012815D0F8
:103BE00002282AD0032835D11DE0CC480068D0F83F
:103BF0005CA0CA480068B0F8600030801DB1C748BA
:103C00000068006C2860002020802BE04FF0000A44
:103C1000002030801DB1C1480068006C286046F269
:103C2000A91020801EE04FF0000A0020308005B16E
:103C3000286047F2D920208014E04FF0000A0020CD
:103C400030801DB1B5480068006C286045F6C25050
:103C5000208007E04FF0000A0020308046F62B60FD
:103C6000208000BF00BF00BF00BF584602F0C6FF63
:103C700000BF00BF50460EE72DE9F05F07460D4636
:103C800014464FF0000BA6480078002805DD46F2E8
:103C9000AA1020800020BDE8F09F27B945F6C35048
:103CA00020800020F7E71DB1B5F5807F02D100E04C
:103CB00000BF04E045F6256020800020EBE700BF50
:103CC00000BF00BF02F096FF834600BF00BF07F1B0
:103CD0000806308958B900BF00BF584602F08EFF71
:103CE00000BF00BF46F2AB1020800020D3E700BF2A
:103CF00089480078401C8849087000BF00BF5846BA
:103D000002F07CFF00BF00BF00BF4FF00008C246BA
:103D10000FE03068D0F80890524649463846FDF723
:103D2000DDFE08F101001FFA80F8B5F5807F00D0B4
:103D300002E030890028ECDC00BF00BF00BF00BFFC
:103D400002F058FF834600BF00BF73480078401E52
:103D50007149087000BF00BF584602F04FFF00BF16
:103D600000BF00BF15F4004F01D1FDF764FB002038
:103D7000208040468FE72DE9F04F85B007468A4600
:103D800093461C460020029000BF00BF00BF02F017
:103D900031FF029000BF00BF5F480078401C5E49C1
:103DA000087000BF00BF029802F028FF00BF00BFEC
:103DB00000BF07F108063089002841D114F0100F28
:103DC00001D1804601E04FF01008DDE90E014346C5
:103DD0005A46CDE90001514607F12000FFF7ECFB00
:103DE00000BF00BF00BF02F005FF029000BF00BF90
:103DF00049480078401E4849087008460078A0B934
:103E000048480088002809DD00BF00BF029802F082
:103E1000F5FE00BF00BFFDF7E4FF0DE000BF00BFEF
:103E2000029802F0EBFE00BF06E000BF00BF029860
:103E300002F0E4FE00BF00BF00BF05B0BDE8F08F98
:103E400014F4007F01D0358900E00125D6F80090F8
:103E500011E0D9F808000390D9F8040004900E98F6
:103E60005B465246009038460399FDF757FFDDF850
:103E70001090681E85B2002DEBD100BF00BF00BFBF
:103E800002F0B8FE029000BF00BF23480078401E39
:103E90002149087000BF00BF029802F0AFFE00BFCA
:103EA00000BF00BF14F4004F01D1FDF7C4FA002198
:103EB0000F98018000BFC0E72DE9FF4704460F4679
:103EC000904699460C9D24B945F6C3502880BDE81C
:103ED000FF8700261248007800280BDD00204346AB
:103EE0003A462146CDE90196039500900E48FEF72B
:103EF0007DFFECE74B46424639462046CDE900655A
:103F0000FFF739FF00BFE2E70021084A1160084AC5
:103F100011800180704700006E000020C400002066
:103F20003400002040000020515545556800002015
:103F30006C000020FDA1C16100214161FC490968BC
:103F400011B90021816105E0F94909688161F849E9
:103F500009684861F649086070472DE9F041044658
:103F60000E4617461D464FF00008F248007800281C
:103F700004DD42F6E1602880BDE8F0811CB945F619
:103F8000C3502880F8E700BF00BF02F033FE804630
:103F900000BF00BFE84820602762002060626660C2
:103FA00004F10800FDF727FE2046FFF7C3FFE348B2
:103FB0000088401CE149088000BF00BF404602F075
:103FC0001DFE00BF00BF0020288000BFD4E710B551
:103FD0000446DB482060002020626062D9A0606057
:103FE00004F10800FDF707FE10BD426981693AB986
:103FF000CF4B196009B100234B610023836109E0B5
:1040000019B900239361436104E091614A6100237F
:104010008361436170472DE9FC5F0746894614467A
:1040200000200090C3480078002805DD43F2C92035
:1040300020800020BDE8FC9F27B945F6C3502080B2
:104040000020F7E700BF00BF02F0D4FD009000BFE2
:1040500000BF07F10808B8F808502E46B9F1000F64
:1040600003D0B9F1010F64D120E0A6B93846FFF7BB
:10407000BCFFB2480088401EB04908803846FFF7B0
:10408000A6FF00BF00BF009802F0B8FD00BF00BF50
:104090000020208009E000BF00BF009802F0AEFDC4
:1040A00000BF00BF47F25E1020804DE000BFA74870
:1040B0000078401CA549087000BF00BF009802F0BE
:1040C0009DFD00BF00BF00BF002001900AE0D8F8AE
:1040D00000A0DAF808B059463846019AFDF7B2FD5B
:1040E000681E85B2002DF2D13846FFF77EFF934857
:1040F0000088401E914908803846FFF768FF00BFDE
:1041000000BF00BF02F076FD009000BF00BF8F48E7
:104110000078401E8D49087000BF00BF009802F073
:104120006DFD00BF00BF00BFFDF785F900202080B6
:104130000AE000BF00BF009802F060FD00BF00BFB2
:1041400045F62560208000BF00BF304672E72DE9AC
:10415000F04788B00646894690461C46109D4FF0B1
:10416000000A74480078002806DD46F2AE10288068
:10417000002008B0BDE8F08726B945F6C350288076
:104180000020F6E7B8F1000F03D0B8F5004F02D1D8
:1041900000E000BF04E045F6256028800020E8E745
:1041A00000BF0CB10020206000BF00BF02F022FD64
:1041B000824600BF00BF306A88B1306A401E30625C
:1041C0000CB1706A2060376A00BF00BF504602F031
:1041D00015FD00BF00BF002028803846C9E718F44D
:1041E000004F0CD0376A00BF00BF504602F006FDFA
:1041F00000BF00BF46F2B01028803846B9E75348E8
:10420000007800280BDD00BF00BF504602F0F6FC2E
:1042100000BF00BF46F6635028800020A9E700BF1A
:104220004A480078401C4949087000BF00BF50460A
:1042300002F0E4FC00BF00BF00BF4B46062231463F
:104240006846FDF754FB00BF00BF00BF02F0D2FC80
:10425000824600BF00BF3D480078401E3B490870C1
:1042600000BF00BF504602F0C9FC00BF00BF00BF46
:10427000FDF7E1F800BF00BF02F0BCFC824600BFC2
:1042800000BF3348006890F8350030B101280CD0E9
:1042900002281AD0032821D110E01CB12C48006854
:1042A000006C20600020288024E01CB128480068B1
:1042B000006C206046F2A91028801BE00CB10020A1
:1042C000206047F2D920288014E01CB12048006803
:1042D000006C206045F6C25028800BE046F62B604B
:1042E000288000BF00BF504602F088FC00BF00BF1E
:1042F00000203EE700BF376A00BF00BF504602F013
:104300007DFC00BF00BF384633E72DE9F05F07466C
:104310000D4614464FF0000B06480078002819DDC2
:1043200046F2AA1020800020BDE8F09F2000000087
:10433000780000203400002053454D417C000020CF
:104340004E4F4E453F53454D000000006E0000208B
:10435000C400002027B945F6C35020800020E3E7C1
:104360001DB1B5F5807F02D100E000BF04E045F645
:10437000256020800020D7E700BF00BF00BF02F00B
:1043800039FC834600BF00BF07F10806308958B9E1
:1043900000BF00BF584602F031FC00BF00BF46F22C
:1043A000AB1020800020BFE700BFAA480078401C67
:1043B000A849087000BF00BF584602F01FFC00BFAC
:1043C00000BF00BF4FF00008C2460FE03068D0F8D1
:1043D0000890524649463846FDF780FB08F1010037
:1043E0001FFA80F8B5F5807F00D002E03089002800
:1043F000ECDC00BF00BF00BF00BF02F0FBFB834648
:1044000000BF00BF93480078401E9249087000BF6B
:1044100000BF584602F0F2FB00BF00BF00BF15F41A
:10442000004F01D1FDF707F80020208040467BE7D0
:104430002DE9FF5F0446884691461D460020019005
:1044400000BF00BF02F0D6FB019000BF00BF04F127
:104450000807388900284FD10420012804D00228F9
:1044600014D0042834D123E0206AFF280DD100BFE6
:1044700000BF019802F0C2FB00BF00BF46F6C55066
:104480002880002004B0BDE8F09F22E0206AA0F55B
:104490007F41FF390BD100BF00BF019802F0AEFB96
:1044A00000BF00BF46F6C55028800020EAE710E0B4
:1044B000206A401C0BD100BF00BF019802F09EFB98
:1044C00000BF00BF46F6C55028800020DAE700E0B4
:1044D00000BF00BF206A401C2062D4F820A0C4F8AE
:1044E000249000BF00BF019802F088FB00BF00BF0E
:1044F000002028805046C5E700BF56480078401C81
:104500005449087000BF00BF019802F077FB00BF5C
:1045100000BF00BF18F4007F01D03E8900E00126F3
:10452000D7F800B011E0DBF808000290DBF80400D7
:10453000039000231A46CDF8009020460299FDF71B
:10454000EDFBDDF80CB0701E86B2002EEBD1D4F876
:1045500020A000BF00BF00BF02F04CFB019000BFD5
:1045600000BF3C480078401E3A49087000BF00BFB9
:10457000019802F043FB00BF00BF00BF18F4004FDA
:1045800001D1FCF758FF0020288050467AE72DE93A
:10459000FF4105460F46144635B945F6C350208005
:1045A000002004B0BDE8F08100262B4800780028E8
:1045B0000CDD0020034602462946CDE9017603942E
:1045C00000902648FEF712FC0020EAE72346324618
:1045D00039462846FFF72CFF80464046E1E72DE9A3
:1045E000F04104460E4615464FF000081A48007880
:1045F000002804DD46F6C6502880BDE8F0811CB9CD
:1046000045F6C3502880F8E70020288000BF00BF8F
:1046100002F0F0FA804600BF00BF206A08B12662AF
:1046200008E004F10807388908B9266202E047F279
:104630005E10288000BF00BF404602F0DFFA00BFD6
:1046400000BF00BFD9E70021054A1160054A11806B
:10465000018070476E0000203400002053454D411A
:10466000780000207C0000202DE9F04105464FF045
:1046700000080020AC490860AC490880AC490860DB
:10468000AC490860AC490860AC4806680FE000BF60
:1046900000BF02F0AFFA804600BF00BFD6F88060CE
:1046A00000BF00BF404602F0A9FA00BF00BF002EC5
:1046B000EDD101F074FB02F0A5F9A148046812E005
:1046C00000BF00BF02F096FA804600BF00BF04F1B1
:1046D00020070020B881A46900BF00BF404602F057
:1046E0008DFA00BF00BF002CEAD100202880BDE871
:1046F000F081F8B5044600266A460021022001F048
:1047000061FBBDF8000018B1BDF800002080F8BDC5
:1047100000BF00BF02F06EFA064600BF00BF0020D7
:104720008849086000BF00BF304602F067FA00BF4A
:1047300000BF00258448006884490968884205D97B
:104740008148006881490968B0FBF1F525B97E48C8
:1047500000680A21B0FBF1F56A460021284601F005
:1047600031FB00BF00BF02F045FA064600BF00BFA4
:1047700000206F490860734800687549086001208F
:104780007449087000BF00BF304602F037FA00BF1E
:1047900000BF0020208000BFB9E708B54FF0000837
:1047A00000BF06E06949096848006A46002101F037
:1047B00009FB684800780128F4D16846FFF754FFE8
:1047C00000256148006861490968884205D95E484A
:1047D00000685E490968B0FBF1F525B95A480068E0
:1047E0000A21B0FBF1F558E0002700BF00BF02F03E
:1047F00001FA804600BF00BF524800685649086071
:1048000000205049086000BF00BF404602F0F6F9A2
:1048100000BF00BF4E4800684F490968884213D95D
:104820004B48006860B14C480068642148434849DF
:104830000968B0FBF1F0C0F164004849087006E077
:1048400064204649087002E064204449087002F080
:1048500060F93A48046808E06B4604F17402111DDF
:10486000204600F0CFFED4F88040002CF4D13C4824
:104870000078012805D10020394908706846FFF703
:10488000F3FE7E422A480068864201D92848066025
:104890006A460021284601F095FAA5E710B58AB0CE
:1048A00004460020274908602B4908602849086011
:1048B000284908702A4908702A48006820B946F635
:1048C0002C6020800AB010BD27480068274909687D
:1048D000884203D246F62D602080F3E72448007812
:1048E000072803D346F273202080EBE70320002142
:1048F0000591CDE90704069108461B4909681D4A40
:104900001268184B1B68CDE90132CDE90310184835
:1049100000780023AFF27D1217A100901B4800F031
:1049200090F800BFCEE700004800002042000020C1
:1049300090000020A8000020B40000209C0000206F
:104940006800002080000020BC6C0008A46C0008F7
:10495000840000208C000020880000207E000020C1
:1049600094000020A86C0008B06C0008B86C000827
:10497000A06C0008AC6C000875432F4F532D4949BB
:10498000492053746174205461736B00C81B00206C
:104990000021C167FA49096819B90021C0F88010DF
:1049A00006E0F7490968C0F88010F5490968C8674A
:1049B000F349086070470022026082604260C26072
:1049C000026142618261C261EEA202620022426221
:1049D0008262C2620263C2870264C265A0F860207C
:1049E0008266A0F87020C266002106E0002300F174
:1049F000640242F821304A1CD1B20029F6D00022CC
:104A000000F134000261426080F83E20426402649A
:104A100002814FF0004242614FF000028261C261A8
:104A2000026242620270427082704FF00802C270ED
:104A30004FF000028264C264D4A20265A0F1340087
:104A400070472DE9FF4F87B004469046DDE91BA56E
:104A5000DDE91496179F00200390CD4800780028C8
:104A600005DD47F24A1028800BB0BDE8F08F1CB975
:104A700047F2AD102880F7E7B8F1000F03D147F2F5
:104A80004F102880F0E71EB946F62C602880EBE72F
:104A9000C0480068874203D246F62D602880E3E7CD
:104AA0001698B84203D346F62E602880DCE7B9F1A9
:104AB000080F03D346F273202880D5E7B9F1000F21
:104AC00006D1B548844203D046F273202880CBE754
:104AD000B9F1070F06D1B148844203D046F27320E2
:104AE0002880C1E72046FFF766FF002028801AF0E3
:104AF000010F11D01AF0020F0ED00596069008E0B3
:104B00000021059801600598001D05900698401C3D
:104B100006900698B842F3D3169806EB80000490EE
:104B2000CDE9007A32464046049B0A9901F0F5FF30
:104B30000590C4F828800A98E0620898206284F8FA
:104B40003790059820600498A060199860651998BE
:104B500018B993480068A06501E01998A0651A98F3
:104B600060606662A763A4F83CA04FF0000B08E009
:104B7000002104F1640040F82B100BF101001FFA32
:104B800080FBBBF1000FF3D0204601F0C3FF00BF54
:104B900000BF00BF02F02EF8039000BF00BF8148A5
:104BA0000078401C7F49087000BF00BF039802F0E6
:104BB00025F800BF00BF00BF94F83700FEF788FD5E
:104BC0002046FCF72DFF2046FFF7E2FE76480088DE
:104BD000401C754908807548007801282DD000BF19
:104BE00000BF00BF02F006F8039000BF00BF6D4891
:104BF0000078401E6B49087008460078A0B96C48E0
:104C00000088002809DD00BF00BF039801F0F6FF0F
:104C100000BF00BFFDF7E5F80DE000BF00BF03983F
:104C200001F0ECFF00BF06E000BF00BF039801F0F9
:104C3000E5FF00BF00BF00BF16E700BF00BF00BF19
:104C400001F0D8FF039000BF00BF56480078401E17
:104C50005449087000BF00BF039801F0CFFF00BFA8
:104C600000BF00BFFCF7E7FB00BFFDE6C26FD0F856
:104C7000801042B9424B196009B10023CB67002371
:104C8000C0F880300CE021B90023C2F88030C3673F
:104C900006E0C2F88010CA670023C0F88030C367FE
:104CA000704770B504460D46002639480078002844
:104CB00003DD47F24E10288070BD3848844203D18E
:104CC00047F24C102880F7E73348844203D147F27B
:104CD0004D102880F0E77CB900BF00BF01F08AFFCB
:104CE000064600BF00BF3348046800BF00BF30461F
:104CF00001F084FF00BF00BF00BF00BF00BF01F094
:104D000079FF064600BF00BF26480078401C2549B1
:104D1000087000BF00BF304601F070FF00BF00BF49
:104D200000BF94F83600082849D2DFE800F00409F3
:104D30000E10080A0F112046FCF792FD70E06FE09C
:104D400000BF204600F0D4FD6AE000BF00BF00BFF6
:104D5000204600F0CDFD94F8340008282CD2DFE87E
:104D600000F004070508090A0B0600BF00BF24E095
:104D700000BF00BF00BF00BF2046FCF70AFE1CE0DA
:104D80009C0000203F5461736B0000002000000075
:104D900034000020B86C0008E01A0020581A0020E7
:104DA000700000206E000020A000002035000020D0
:104DB00040000020C400002000BF00BF30E000BF62
:104DC00000BF00BF01F016FF064600BF00BFF74856
:104DD0000078401EF549087008460078A0B9F448EC
:104DE0000088002809DD00BF00BF304601F006FF43
:104DF00000BF00BFFCF7F5FF0DE000BF00BF30466D
:104E000001F0FCFE00BF06E000BF00BF304601F02D
:104E1000F5FE00BF00BF00BF46F62A6028804BE7C2
:104E200000BF204601F077FE2046FFF71FFFE14854
:104E30000088401EDF4908802046FFF7BCFDFF20A8
:104E400084F8360000BF00BF00BF01F0D3FE064665
:104E500000BF00BFD5480078401ED449087000BF8D
:104E600000BF304601F0CAFE00BF00BF00BFFCF724
:104E7000E2FA0020288000BF1EE72DE9F041044639
:104E80000D4616464FF000082DB146F679103080D9
:104E90000020BDE8F08100BF00BF01F0ABFE8046FE
:104EA00000BF00BF0CB9C448046804F1640050F8A6
:104EB000257000BF00BF404601F0A0FE00BF00BF4C
:104EC000002030803846E4E72DE9F04104460D46E5
:104ED00017461E464FF0000825B146F6791030807F
:104EE000BDE8F08100BF00BF01F084FE804600BF36
:104EF00000BF0CB9B048046804F1640040F82570A4
:104F000000BF00BF404601F079FE00BF00BF002097
:104F1000308000BFE4E770B504460D460026A74880
:104F20000078002803DD47F25510288070BD00BFCF
:104F300000BF01F05FFE064600BF00BF1CB19E48E7
:104F4000006884420AD100BF00BF304601F056FE1F
:104F500000BF00BF47F257102880E7E700202880F5
:104F600094F8360008287BD2DFE800F00405060735
:104F70001243556700BF00BF00BF00BF00BF3046EF
:104F800001F03CFE00BF00BF47F25310288072E0E2
:104F900000BF86480078401C8449087000BF00BFED
:104FA000304601F02BFE00BF00BF00BF14F8720FA7
:104FB000401E207014F8720928B9002084F83600C9
:104FC0002046FCF77DFD00BF00BF00BF01F012FED0
:104FD000064600BF00BF75480078401E7349087040
:104FE00000BF00BF304601F009FE00BF00BF00BF98
:104FF00041E014F8720F401E207014F8720910B9C5
:10500000012084F8360000BF00BF304601F0F6FDF5
:1050100000BF00BF2FE014F8720F401E207014F87C
:10502000720910B9022084F8360000BF00BF304674
:1050300001F0E4FD00BF00BF1DE014F8720F401E38
:10504000207014F8720910B9032084F8360000BFEC
:1050500000BF304601F0D2FD00BF00BF0BE0FFE70C
:1050600000BF00BF304601F0C9FD00BF00BF46F6DB
:105070002A6028805AE700BFFCF7DDF900BF55E73A
:105080002DE9F0470746884614461D464FF00009B3
:105090004A480078002805DD46F2AE10288000203E
:1050A000BDE8F0870CB10020206000BF00BF01F018
:1050B000A1FD814600BF00BF3F480068406CC8B1F9
:1050C0003D480068406C401E3B49096848643A48C6
:1050D0000068466C1CB138480068006C206000BF56
:1050E00000BF484601F08AFD00BF00BF00202880B5
:1050F0003046D5E718F4004F0BD000BF00BF48463C
:1051000001F07CFD00BF00BF46F2B01028800020F7
:10511000C6E72648007800280BDD00BF00BF4846E0
:1051200001F06CFD00BF00BF46F6635028800020F0
:10513000B6E700BF1D480078401C1C49087000BF3E
:1051400000BF484601F05AFD00BF00BF00BF3B460C
:10515000072200210846FCF7CAFB00BF00BF00BFC2
:1051600001F048FD814600BF00BF10480078401E96
:105170000E49087000BF00BF484601F03FFD00BF68
:1051800000BF00BFFCF757F900BF00BF01F032FDC0
:10519000814600BF00BF0848006890F8350078B12C
:1051A000012815D0032823D11BE000006E00002049
:1051B00040000020A0000020C40000203400002097
:1051C0001CB1F7480068006C20600020288013E0C4
:1051D0001CB1F3480068006C206046F2A9102880DA
:1051E0000AE00CB10020206047F2D920288003E0BB
:1051F00046F62B60288000BF00BFE9480068466C77
:1052000000BF00BF484601F0F9FC00BF00BF3046B8
:1052100046E72DE9F8430446884617461D464FF0F9
:10522000000900BF00BF00BF01F0E4FC814600BFE1
:1052300000BFDC480078401CDA49087000BF00BF9E
:10524000484601F0DBFC00BF00BF00BF0CB9D448EA
:10525000046827640020288094F83600082871D25A
:10526000DFE800F00405EAEB0607ECED00BF00BF45
:1052700000BF0420012804D0022839D004286FD1AF
:1052800070E0606CFF2832D100BF00BF00BF01F0AA
:10529000B1FC814600BF00BFC2480078401EC14932
:1052A000087008460078A0B9BF480088002809DDCA
:1052B00000BF00BF484601F0A1FC00BF00BFFCF7E3
:1052C00090FD0DE000BF00BF484601F097FC00BF15
:1052D00006E000BF00BF484601F090FC00BF00BFE1
:1052E00000BF46F6C55028800020BDE8F88370E076
:1052F000606CA0F57F41FF3933D100BF00BF00BF14
:1053000001F078FC814600BF00BFA6480078401E2F
:10531000A449087008460078A8B9A3480088002866
:1053200009DD00BF00BF484601F068FC00BF00BFB8
:10533000FCF757FD0EE000BF00BF484601F05EFCE1
:1053400000BF07E0D4E000BF00BF484601F056FCB4
:1053500000BF00BF00BF46F6C55028800020C4E74C
:1053600036E036E0606C401C31D100BF00BF00BFAA
:1053700001F040FC814600BF00BF8A480078401E13
:105380008849087008460078A0B987480088002836
:1053900009DD00BF00BF484601F030FC00BF00BF80
:1053A000FCF71FFD0DE000BF00BF484601F026FCE2
:1053B00000BF06E000BF00BF484601F01FFC00BF71
:1053C00000BF00BF46F6C550288000208DE700E0F2
:1053D00000BF00BF606C401C6064666C00BF00BF13
:1053E00000BF01F007FC814600BF00BF6D48007898
:1053F000401E6C49087008460078A0B96A480088C9
:10540000002809DD00BF00BF484601F0F7FB00BFE0
:1054100000BFFCF7E6FC0DE000BF00BF484601F00E
:10542000EDFB00BF06E000BF00BF484601F0E6FB11
:1054300000BF00BF00BF8DE000BF00BF00BF94F8F9
:105440003400072822D100231A4621461846009727
:10545000FCF764FC666C00BF00BF00BF01F0CAFB34
:10546000814600BF00BF4F480078401E4D4908707C
:1054700000BF00BF484601F0C1FB00BF00BF00BF36
:1054800018F4004F33D1FBF7D6FF30E0606C401CBE
:105490006064666C00BF00BF00BF01F0ABFB8146DB
:1054A00000BF00BF3F480078401E3E4908700846D4
:1054B0000078A0B93C480088002809DD00BF00BF83
:1054C000484601F09BFB00BF00BFFCF78AFC0DE0E3
:1054D00000BF00BF484601F091FB00BF06E000BFDF
:1054E00000BF484601F08AFB00BF00BF00BF31E0AB
:1054F00000BF00BF00BF01F07DFB814600BF00BFC1
:1055000028480078401E2749087008460078A0B94E
:1055100025480088002809DD00BF00BF484601F08B
:105520006DFB00BF00BFFCF75CFC0DE000BF00BFDF
:10553000484601F063FB00BF06E000BF00BF4846DD
:1055400001F05CFB00BF00BF00BF46F62A60288068
:10555000002600BF00BF3046C7E62DE9FF410546E3
:105560000F46144600261148007800280EDD002062
:105570000090034602462946CDE9026401900C489A
:10558000FDF734FC002004B0BDE8F081234632462C
:1055900039462846FFF73DFE80464046F3E70000C7
:1055A000C40000206E0000204000002034000020D5
:1055B000545349472DE9F04104460F4615464FF034
:1055C0000008C2480078002805DD46F6C65028804D
:1055D0000020BDE8F08100BF00BF01F00BFB80465A
:1055E00000BF00BF0CB9BA480468666C676400BFAE
:1055F00000BF404601F002FB00BF00BF0020288032
:105600003046E6E72DE9F04705460E4617461C46AC
:105610004FF0000AAD480078002804DD47F258102A
:105620002080BDE8F0871EB946F2D5202080F8E73B
:105630001FB946F2D5202080F3E700BF00BF01F07C
:10564000D9FA824600BF00BF0DB9A1480568286895
:1056500068B900BF00BF504601F0D0FA00BF00BFDC
:1056600000203060386047F252102080D9E795F86A
:105670003C0010F0010F0DD100BF00BF504601F0FB
:10568000BDFA00BF00BF00203060386047F2541000
:105690002080C6E700BF00BF504601F0AFFA00BF50
:1056A00000BF4FF00008D5F8249003E009F1040989
:1056B00008F10108D9F800000028F7D0C6F80080EA
:1056C000A86BA0EB080038600020208000BFA8E78E
:1056D00070B504460D4600267C480078002803DD9E
:1056E00047F25C10288070BD7A48844203D147F2AB
:1056F0005A102880F7E77848844203D147F25B10BC
:105700002880F0E700BF00BF01F074FA064600BF32
:1057100000BF0CB96E4804686D48006884420ED121
:105720006E48007800280ADD00BF00BF304601F057
:1057300065FA00BF00BF46F663502880D3E700201B
:10574000288094F8360008286CD2DFE800F0043195
:105750003F4D5B5C5D5E00BF60480078401C5F4968
:10576000087000BF00BF304601F048FA00BF00BF1C
:1057700000BF042084F83600012084F8720020461F
:10578000FCF76EF800BF00BF00BF01F033FA064619
:1057900000BF00BF51480078401E5049087000BF4C
:1057A00000BF304601F02AFA00BF00BF00BF44E04E
:1057B000052084F83600012084F8720000BF00BF85
:1057C000304601F01BFA00BF00BF36E0062084F827
:1057D0003600012084F8720000BF00BF304601F09F
:1057E0000DFA00BF00BF28E0072084F83600012032
:1057F00084F8720000BF00BF304601F0FFF900BF1F
:1058000000BF1AE000BF00BF00BF94F87200401C48
:1058100084F8720000BF00BF304601F0EFF900BF0E
:1058200000BF0AE000BF00BF304601F0E7F900BF4B
:1058300000BF46F62A60288055E700BFFBF7FBFD56
:1058400000BF50E72DE9F04104460D4616460027FB
:105850001E480078002804DD46F6C6503080BDE8BA
:10586000F08100BF00BF01F0C5F9074600BF00BFCF
:105870000CB9174804681DB919480068606500E054
:105880006565D4E91501884201D9606DA06500BF46
:1058900000BF384601F0B2F900BF00BF00203080E1
:1058A00000BFDCE700210F4A11600F4A11800F4A48
:1058B00011600180704708B50548006801F02CF9B7
:1058C00069460020FFF7EDF908BD00003400002014
:1058D000C4000020581A0020E01A00206E000020AA
:1058E000700000209C000020A000002098000020F4
:1058F00010B5C269BAB1002404651468844205D1A8
:105900004169116039B100248C6104E08169436907
:105910004B6103B19961002444618461C461C46432
:105920009488641E948010BD2DE9F05F4FF0000B49
:1059300000BF00BF00BF01F05DF9834600BF00BF9C
:10594000FE480078401CFD49087000BF00BF584663
:1059500001F054F900BF00BF00BF4FF0000AF84843
:105960000068401CF649086008460068F549098847
:10597000B0FBF1F201FB12001FFA80F9F24800EBD4
:10598000C9073C68002684E0002C79D0D4F8148044
:1059900094F83600082877D2DFE800F00408051BE9
:1059A000063E075100BF00BF00BF6EE0E449E06C57
:1059B0000968401A2065E249E06C0968884206D10E
:1059C000002084F836002046FCF77AF800E0012633
:1059D0005BE0DB49E06C0968401A2065D849E06C5F
:1059E0000968884216D10020E065A4F860002064B0
:1059F0002046FBF7CEFF2046FCF762F8002004F1BA
:105A00003404A0704FF0030060704FF0000004F801
:105A1000340900E0012638E0C949E06C0968401A01
:105A20002065C749E06C0968884206D1042084F8E3
:105A300036002046FFF75CFF00E0012625E0C04964
:105A4000E06C0968401A2065BD49E06C096888422D
:105A500018D10020E065A4F8600020642046FBF720
:105A600098FF2046FFF744FF042004F13404A0709F
:105A70004FF0030060704FF0000004F8340902E0BA
:105A800006E001E0012600E000BF00BF444600E060
:105A90000126002E3FF478AFCAF10005AB4800683C
:105AA000854201D9A948056000BF00BF00BF01F0D1
:105AB000A1F8834600BF00BFA0480078401E9F4960
:105AC000087008460078A0B9A1480088002809DDC0
:105AD00000BF00BF584601F091F800BF00BFFCF7BF
