:020000040800F2
:100000000015002001010008250100082701000853
:100010002B0100082F010008330100080000000038
:100020000000000000000000000000003701000890
:100030003901000800000000073D00083B010008EE
:100040001B0100081B0100081B0100081B01000820
:100050001B0100081B0100081B0100081B01000810
:100060001B0100081B0100081B0100081B01000800
:100070001B0100081B0100081B0100081B010008F0
:100080001B0100081B0100081B0100081B010008E0
:100090001B0100081B0100081B0100081B010008D0
:1000A0001B0100081B0100081B0100081B010008C0
:1000B0001B0100081B0100081B0100081B010008B0
:1000C0001B0100081B0100081B0100081B010008A0
:1000D0001B0100081B0100081B0100081B01000890
:1000E0001B0100081B0100081B010008DFF80CD0F1
:1000F00003F0C8FE00480047250A0008001500204C
:100100000648804706480047FEE7FEE7FEE7FEE7B1
:10011000FEE7FEE7FEE7FEE7FEE7FEE7290200084E
:10012000ED000008704700BFFEE700BFFEE700BF1C
:10013000FEE700BFFEE77047704710B500F04FFEC6
:1001400003F0ADFD00F05CFE10BD00000CB500201A
:10015000019000906B48006840F480306949086065
:1001600000BF6848006800F4003000900198401C0F
:100170000190009818B90198B0F5A06FF1D16148CD
:10018000006810F4003F02D00120009001E0002040
:1001900000900098012842D15B48006840F01000B0
:1001A000594908600846006820F0030008600846C6
:1001B000006840F0020008605248406851494860B9
:1001C0000846406848600846406840F480604860DF
:1001D0000846406820F47C1048600846406840F4B7
:1001E000E81048600846006840F08070086000BF72
:1001F0004448006810F0007FFAD04248406820F080
:100200000300404948600846406840F002004860EA
:1002100000BF3C48406800F00C000828F9D10CBD34
:1002200010B5FFF793FF10BD10B53648006840F0D9
:1002300001003449086008464068344908403149A3
:10024000486008460068324908402E490860084660
:10025000006820F4802008600846406820F4FE0012
:1002600048604FF41F008860FFF7DAFF4FF000602E
:100270002849086010BD10B5002100200022214B44
:100280005B6803F00C0121B1042906D0082928D1AC
:1002900007E0214B214C236027E01F4B1F4C2360BC
:1002A00023E0184B5B6803F47010164B5B6803F493
:1002B0008032022303EB904022B9194B4343174C81
:1002C00023600DE00F4B5B6813F4003F04D0144B28
:1002D0004343124C236003E00F4B43430F4C236016
:1002E00003E00D4B0D4C236000BF00BF054B5B6866
:1002F000C3F303130B4CE15C084B1B68CB40074C6A
:10030000236010BD00100240002002400000FFF8F2
:10031000FFFFF6FE08ED00E000127A00000000206A
:1003200000093D000400002010B50446CA4884427C
:1003300008D10121042000F027FB0021042000F057
:1003400023FB46E0C548844208D10121082000F083
:100350001BFB0021082000F017FB3AE0C048844254
:1003600008D10121102000F00FFB0021102000F027
:100370000BFB2EE0BB48844208D10121202000F075
:1003800003FB0021202000F0FFFA22E0B64884425F
:1003900008D10121402000F0F7FA0021402000F0B0
:1003A000F3FA16E0B148844208D10121802000F020
:1003B000EBFA0021802000F0E7FA0AE0AC48844222
:1003C00007D10121801500F0DFFA0021A01500F00F
:1003D000DBFA10BD10B50121084600F0D5FA002166
:1003E000012000F0D1FA10BD2DE9F04102460025B0
:1003F0000026002000230024002791F803C00CF001
:100400000F0591F803C01CF0100F03D091F802C043
:100410004CEA050591F800C0BCF1000F31D014681A
:1004200000202BE04FF0010C0CFA00F3B1F800C0F3
:100430000CEA03069E4220D183004FF00F0C0CFA09
:1004400003F7BC4305FA03FC4CEA040491F803C02B
:10045000BCF1280F06D14FF0010C0CFA00FCC2F8D9
:1004600014C00AE091F803C0BCF1480F05D14FF069
:10047000010C0CFA00FCC2F810C0401C0828D1D3B3
:100480001460B1F800C0BCF1FF0F34DD54680020E7
:100490002EE000F1080C4FF0010808FA0CF3B1F857
:1004A00000C00CEA03069E4221D183004FF00F0CDE
:1004B0000CFA03F7BC4305FA03FC4CEA040491F878
:1004C00003C0BCF1280F05D100F1080C08FA0CF8A4
:1004D000C2F8148091F803C0BCF1480F07D100F1B5
:1004E000080C4FF0010808FA0CF8C2F81080401C04
:1004F0000828CED35460BDE8F0814FF6FF7101802B
:10050000022181700421C170704702460020936867
:100510000B4201D0012000E00020704701468868AE
:1005200080B2704702460020D3680B4201D0012000
:1005300000E0002070470146C86880B27047016142
:100540007047416170470AB1016100E04161704745
:10055000C16070474FF480320A43826181618261D9
:1005600082698269704702460020424B18684FF644
:100570008073184040EA021008433E4B18607047F1
:100580003D49C8617047F0B50A46002300240021A8
:10059000002500F00046B6F1004F02D1354EF1695A
:1005A00001E0344E7168C0F3034583B200F4401695
:1005B000B6F5401F08D121F070612E4E766826F006
:1005C00070662C4F7E6012E000F48016B6F5801F36
:1005D00006D1032606FA05F4A14341F0706106E056
:1005E000460D360103FA06F6B14341F0706122B1BF
:1005F000460D360103FA06F6314300F00046B6F127
:10060000004F02D11B4EF16101E01A4E7160F0BD46
:1006100030B500228B071C0F0F2303FA04F2154B91
:1006200008338C1053F824309343124C08348D1047
:1006300044F8253023468C1053F824308C07240FBF
:1006400000FA04F423430B4C08348D1044F8253091
:1006500030BD0A490860704700080140000C0140A5
:10066000001001400014014000180140001C01402E
:10067000002001400000014000002042DC00204238
:10068000DD48006840F00100DB490860084640682A
:10069000DA490840D849486008460068D849084007
:1006A000D54908600846006820F4802008600846A4
:1006B000406820F4FE0048604FF41F0088607047D7
:1006C000CD49096821F48031CB4A1160114609688F
:1006D00021F480211160B0F5803F03D0B0F5802F68
:1006E0000ED106E0C449096841F48031C24A116064
:1006F00007E0C149096841F4A021BF4A116000E048
:1007000000BF00BF704710B5014600220023002043
:100710004A11012A02D1B84C236806E0022A02D10C
:10072000B54C236A01E0B44C636A01F01F02012456
:1007300094401C4201D0012000E0002010BD38B5DB
:10074000002000900024002500BF3120FFF7DBFFD0
:1007500005460098401C00900098B0F5A06F01D0AD
:10076000002DF2D03120FFF7CEFF08B1012400E0C8
:100770000024204638BD014600209F4A106820F022
:10078000F80040EAC100106070479E490860704759
:1007900002460020984B586820F47C1042EA01037E
:1007A0001843954B58607047964908667047014654
:1007B0000020914A506820F00300084350607047C1
:1007C0008D48406800F00C007047014600208A4ABE
:1007D000506820F0F0000843506070470146002048
:1007E000854A506820F4E060084350607047014635
:1007F0000020814A506820F4605040EAC1005060F7
:10080000704729B17C4A527A02437B4B5A7204E00A
:10081000794A527A8243784B5A7270477A49086013
:10082000704701460020744A506820F44040084355
:10083000506070470021754A11706F4A82F820108D
:10084000012802D0042808D103E001216F4A117069
:1008500004E005216D4A117000E000BF00BF704741
:100860006B49086070476449096A0143624A116232
:100870007047674944390860704730B5002100224D
:10088000002400235C4D6D6805F00C0121B10429A2
:1008900005D0082923D105E05E4D056022E05D4DBD
:1008A00005601FE0544D6D6805F47012524D6D687F
:1008B00005F48034022505EB92421CB9564D554390
:1008C00005600BE04C4D6D6815F4003F03D0524DB0
:1008D0005543056002E04F4D5543056002E04D4D24
:1008E000056000BF00BF444D6D6805F0F0010909C7
:1008F0004A4D6B5C0568DD4045603F4D6D6805F411
:10090000E061090A454D6B5C4568DD4085603A4D04
:100910006D6805F46051C90A404D6B5C4568DD4067
:10092000C560354D6D6805F44041890B3C4D6B5CED
:10093000C568B5FBF3F5056130BD29B12E4A526992
:1009400002432D4B5A6104E02B4A526982432A4BE1
:100950005A61704729B1284A92690243264B9A612D
:1009600004E0254A92698243234B9A61704729B17A
:10097000214AD2690243204BDA6104E01E4AD2695F
:1009800082431D4BDA61704729B11B4AD26802438A
:10099000194BDA6004E0184AD2688243164BDA60D9
:1009A000704729B1144A12690243134B1A6104E0DB
:1009B000114A12698243104B1A6170471449403939
:1009C000086070470F49C86470470B49C871704789
:1009D0000948406A40F08070074948627047014604
:1009E0000020054A92680A4201D0012000E0002060
:1009F0007047014988727047001002400000FFF8FC
:100A0000FFFFF6FE00004242D800424220100240A2
:100A10008004424200127A0000093D0014000020C8
:100A20002400002000B58BB000F087F80AA800F081
:100A300085F90AA8032100220592CDE90621089034
:100A4000104680210C22094BCDE90132CDE903107B
:100A500002200023064A07A10090074801F0ECFCA1
:100A60000AA800F0A5FB00200BB000BD1801002073
:100A70007D0A00084C454400A00000200EB51BE094
:100A800001221E210D48FFF75EFD02A8002164230C
:100A90000A46CDE90010084602F009FF00221E2197
:100AA0000648FFF750FD02A8002164230A46CDE95D
:100AB0000010084602F0FBFEE2E7000000080140DB
:100AC00030B50146B1F1807F01D3012030BD21F066
:100AD0007F40401E4FF0E022506150170F22002847
:100AE00007DA13071D0E184B00F00F04241F1D55C5
:100AF00003E013071C0E154B1C5400BF00204FF0E1
:100B0000E0229061072010610020DFE710B5104857
:100B100000684FF47A71B0FBF1F42046FFF7D0FF84
:100B20000B4800684FF47A71B0FBF1F42046FFF7F0
:100B3000C7FF08B100BFFEE710BD10B5FFF7E6FF25
:100B400000F00EF810BD000018ED00E000E400E039
:100B50000000002000BF0100A0F10100FBD17047A0
:100B600010B501210420FFF7F5FE1E201B49088067
:100B7000032088701020C8701948FFF735FC10BD9D
:100B800010B501210420FFF7E5FE0120134908807C
:100B900088704820C8701248FFF726FC10BD70B559
:100BA00004460D4629462046FFF7AFFC98B942F2AD
:100BB0001070FFF7CFFF29462046FFF7A6FC40B98B
:100BC00000BF29462046FFF7A0FC0028F9D00020EE
:100BD00070BD0120FCE70120FAE70000280000209A
:100BE000000801400F4810481048114811481248A9
:100BF0001248134813481448144815481548164815
:100C000016481748174818481848194819481A48E4
:100C10001A481B481B481C481C481D481D481E48B4
:100C200000BF7047683F0008C83E0008CC3E00087F
:100C3000D03E0008D43E0008D83E0008DC3E000844
:100C4000E03E0008E43E0008E83E0008EC3E0008F4
:100C5000F03E0008F43E0008F83E0008FC3E0008A4
:100C60000C3F0008103F0008143F0008183F000820
:100C70001C3F0008203F0008243F0008283F0008D0
:100C80002C3F0008303F0008343F0008383F000880
:100C90003C3F0008403F0008443F0008002400BFDC
:100CA00019E000BF00BF03F0DBF8044600BF00BF3F
:100CB000FD480068401CFC490860FC480068401C76
:100CC000FA49086000BF00BF204603F0CDF800BF1E
:100CD00000BF03F049F8E4E710B58AB004460020ED
:100CE000F1490860032000210591CDE90704069130
:100CF0000846EF490968EF4A1268EF4B1B68CDE9D7
:100D00000132CDE9031007200023AFF26F02EBA1FF
:100D10000090EF4801F090FB0AB010BD00210AE0FE
:100D200001EB4102EB4B03EB8200002202810260E7
:100D300042604A1CD1B20829F2D3704770B504460C
:100D400003F013F80020E4490870E4490870E4490E
:100D50000870E4490870E44800680A21B0FBF1F02B
:100D6000E2490860E248006858B1E248056845B1C8
:100D7000DF48066803E0761E002028602D1D002E47
:100D8000F9D101F05DF9FFF7C9FF204602F080FAC2
:100D9000208800B170BD204600F076FF208800B1A9
:100DA000F8E72046FFF798FF208800B1F2E72046D9
:100DB00002F0BCFB208800B1ECE7204601F077FA96
:100DC000208800B1E6E7204601F026F9208800B12E
:100DD000E0E700F0B5FDFFF705FF00BFDAE7BF4829
:100DE0000078012800D07047BB480078FA2800DB63
:100DF000F9E7B9480078401CB749087000BFF2E72E
:100E000010B50024B5480078012800D010BD00BFFF
:100E100003F026F8044600BFAF48007828B900BFA9
:100E2000204603F021F800BFF0E7AB480078401EF1
:100E3000A949087008460078002805DD00BF204653
:100E400003F012F800BFE1E7A5480078002805DDAF
:100E500000BF204603F008F800BFD7E701F0FAF81A
:100E6000A54908700846007800EB4000994951F800
:100E70002000A249086008460068A1490968884224
:100E800005D100BF204602F0EFFF00BFBEE79D483E
:100E90000068401C9B4908604FF080509A490860E8
:100EA00000BF204602F0E0FF00BF00BFAEE710B574
:100EB000002489480078002800DD10BD88480078AB
:100EC000002800DDF9E700BF02F0CAFF044600BFBA
:100ED00001F0C0F8884908700846007800EB40002F
:100EE0007C4951F82000854908600846006884491B
:100EF0000968884205D100BF204602F0B5FF00BF57
:100F0000DBE780480068401C7E4908604FF0805055
:100F10007D49086000BF204602F0A6FF00BF00BF69
:100F2000CBE770B5044600256B480078002803DD48
:100F300046F66250208070BD68480078012803D0D2
:100F400045F689602080F6E765480078FA2803DBDB
:100F500045F209202080EEE700BF00BF02F080FFCD
:100F6000054600BF00BF5E480078401C5C49087021
:100F700000BF00BF284602F077FF00BF00BF00207F
:100F8000208000BFD7E770B504460025524800789E
:100F9000002803DD46F66550208070BD4F4800787C
:100FA000012803D045F689602080F6E74C48007898
:100FB00018B946F664502080EFE700BF00BF02F08A
:100FC0004FFF054600BF00BF45480078401E44491A
:100FD00008700846007800280ADD00BF00BF2846D8
:100FE00002F042FF00BF00BF46F663502080D4E706
:100FF00000BF00BF284602F037FF00BF00BFFFF769
:1010000056FF0020208000BFC7E72DE9F0410546CC
:101010000C461646002700BF00BF02F021FF07461E
:1010200000BF00BF012D03D000202E49087002E050
:1010300001202C49087014B12C48046006E02A48AD
:1010400000680A21B0FBF1F02849086000BF00BF2A
:10105000384602F009FF00BF00BF00203080BDE825
:10106000F08110B501460C8924B1012C03D0022C6B
:101070000CD101E000BF14E008684A680261002456
:10108000C4601461D0600A6048600AE008684A6879
:10109000C36800241C61C4600261D0600B604860BA
:1010A00000BF00BF10BD000030000020680000201D
:1010B000D03E0008CC3E0008C83E000875432F4FC4
:1010C000532D4949492049646C65205461736B0074
:1010D000C00E0020B00F002034000020350000209A
:1010E0005F00002064000020283F0008600000200E
:1010F000F83E0008F43E00085D0000209800002043
:10110000940000208000002004ED00E02DE9F04173
:1011100004460027F6480078002804DD48F2D14054
:101120002080BDE8F081F3480078002803DD46F612
:1011300063502080F5E7F0480078012803D046F698
:101140007B102080EDE700BF00BF02F089FE07465C
:1011500000BF00BFE948007800EB4000E84901EB20
:101160008006308902280ADA00BF00BF384602F044
:101170007BFE00BF00BF46F67A102080D1E73046E4
:10118000FFF76FFF3568686D18B9DE480068A8651D
:1011900001E0686DA86500BF00BF384602F064FE3C
:1011A00000BF00BFFFF783FE0020208000BFB8E72C
:1011B00010B50446D4480078E8B900F04BFFD34995
:1011C000087008460078CD490870D048007800EBD8
:1011D0004000CB4951F82000CD490860084600681E
:1011E000CC4908600120C849087002F07BFD43F635
:1011F0009920208002E045F68A60208010BD0146DB
:101200000020088047F2F850704730B540B145687B
:101210004D6700F10804226893681D6AC56110E0FB
:1012200091F83450022D02D0072D06D102E0BAA564
:101230004D6705E0BAA54D6702E0BCA54D6700BF4C
:1012400000BF30BDF0B58E6896F8375007893FB9BA
:101250000127078100274F600F600160416023E094
:1012600007897F1C0781026806E0946894F837704C
:10127000AF4200DD02E05268002AF6D100BF32B969
:1012800000274F6043680B60596041600CE01768AD
:101290002FB9116000270F604A60016004E01368F5
:1012A0000B604A6059601160F0BD10B5C2870163E0
:1012B00000230AE000244C600C600C614C610C833C
:1012C000CC61886020315C1CA3B29342F2DB10BD7C
:1012D0002DE9F041054695F8370000EB40008849BC
:1012E00001EB80042F69EE6887B946B900202081A0
:1012F0002060606095F8370000F0CEFE0EE0208997
:10130000401E208100203061266007E02089401EB9
:101310002081FE600EB9676000E03761002028611F
:10132000E860BDE8F08138B504460D4685B16B46EE
:1013300002222946204602F028F9BDF8000018B91B
:10134000032084F8360006E0022084F8360002E02C
:10135000022084F836002046FFF7BAFF38BD2DE999
:10136000F04105460C4616461F466A48006880F85C
:10137000346000206749096881F8350039466548BE
:101380000068FFF7D0FF6CB104F10808EC6001229F
:10139000294660480068FFF788FF29464046FFF766
:1013A00051FF06E000205B490968C8875949096870
:1013B0000863584801682046FFF727FFBDE8F08121
:1013C00010B50489012C03D100240460446011E0AD
:1013D0000C6824B94A680024146002600AE04C6872
:1013E00024B90B6800245C60436003E00B684A6822
:1013F0005A6013600489641E048100244C600C60F0
:1014000010BD2DE9F0410446256BE68F0AE0D5F8C2
:101410000C8008F1080729463846FFF7D1FF203530
:10142000701E86B2002EF2DC0020E0872063BDE84B
:10143000F08130B50346086BCC8F08E0C5689D424B
:1014400002D10361C26104E02030651EACB2002C01
:10145000F4DC00BF30BD10B590F8373003EB430328
:10146000274C04EB83010B893BB901230B8100233B
:10147000C36003610860486009E00B895B1C0B8155
:101480000B68C360002303610A681061086010BD27
:1014900010B590F8373003EB4303194C04EB83018C
:1014A0000B893BB901230B810023C36003610860F2
:1014B000486008E00B895B1C0B810023C3604A680D
:1014C0000261D060486010BD10B5044694F8370042
:1014D00000F0D2FD94F8370008490978884203D11A
:1014E0002046FFF7D5FF02E02046FFF7B4FF10BD0E
:1014F000340000205F000020640000205C00002019
:10150000B00F002060000020350000205D000020AA
:1015100098000020940000205461736B205100005B
:101520005461736B2053656D0000000020000000C3
:1015300010B50446204601F0D1FE94F8360010F0B4
:10154000040F02D12046FFF7BFFF10BD70B505465E
:101550000C46164694F83600082845D2DFE800F01D
:10156000040508090607262700BF00BF00BF3CE0AE
:1015700000BF94F83400032804D13246214628469F
:10158000FFF757FF266415B12046FFF73AFF2046C4
:10159000FFF7CEFF002004F13404A0704FF00100EB
:1015A00060704FF0000004F834091EE000BF94F8AA
:1015B0003400032804D1324621462846FFF739FF7C
:1015C000266415B12046FFF71CFF204601F086FE79
:1015D000042004F13404A0704FF0010060704FF05B
:1015E000000004F8340900E000BF00BF70BD30B552
:1015F000AFF2C8054D6700F1080422681AB193687C
:101600001D6AC56102E0AFF2DC05C56130BD2DE9A0
:10161000F04304460F4684F83770256BB4F83E80DB
:1016200013E0D5F80C9009F108063089012807D994
:1016300029463046FFF7C4FE29463046FFF702FE32
:101640002035A8F101001FFA80F8B8F1000FE8D1A9
:10165000BDE8F0830021016041600181704703898A
:101660005B1C038103684B6000230B60026802B1BE
:10167000116001600389012B00D14160704730B5D2
:101680000346086BCC8F08E0C5689D4202D1036118
:10169000C26104E02030651EACB2002CF4DC00BF57
:1016A00030BD70B506460C46154694F8360008283D
:1016B00043D2DFE800F0040508090607252600BF2D
:1016C00000BF00BF3AE000BF94F83400032804D103
:1016D0002A4621463046FFF7D2FF25642046FFF711
:1016E00090FE2046FFF724FF002004F13404A07090
:1016F0004FF0020060704FF0000004F834091DE064
:1017000000BF94F83400032804D12A46214630460D
:10171000FFF7B5FF2564204601F0E0FD2046FFF706
:1017200070FE042004F13404A0704FF002006070D9
:101730004FF0000004F8340900E000BF00BF70BDA6
:10174000F0B50446059E086BCD8F0AE0C768A74236
:1017500004D1046142610383C66104E020306F1E3E
:10176000BDB2002DF2DC00BFF0BD2DE9F843064606
:101770000C4617469846089D94F8360008284DD226
:10178000DFE800F0040508090607292A00BF00BFAA
:1017900000BF44E000BF94F83400032807D143465B
:1017A0003A46214630460095FFF7CAFF00E025641F
:1017B00036B12046FFF725FE21463046FFF717FFDA
:1017C0002046FFF7B5FE002004F13404A0706070DD
:1017D00004F8340923E000BF94F83400032807D14B
:1017E00043463A46214630460095FFF7A9FF00E000
:1017F0002564204601F072FD36B12046FFF701FE58
:1018000021463046FFF7F3FE042004F13404A070B3
:101810004FF00000607004F8340900E000BF00BF22
:10182000BDE8F88310B5002400BF02F019FB0446A0
:1018300000BF00203949087039483A4908603A48E1
:101840000068401C384908604FF0805037490860F4
:1018500000BF204602F008FB00BF10BD70B5054672
:10186000002633480078012800D070BD00BF00BFBB
:1018700002F0F6FA064600BF00BF2C683CB900BF74
:1018800000BF304602F0F0FA00BF00BFEDE7294884
:10189000844207D100BF00BF304602F0E5FA00BF26
:1018A00000BFE2E7A06D10B1A06D401EA065A06D65
:1018B00038B100BF00BF304602F0D6FA00BF00BF0B
:1018C000D3E72889022807DA00BF00BF304602F0BC
:1018D000CBFA00BF00BFC8E717480078002807DD33
:1018E00000BF00BF304602F0BFFA00BF00BFBCE738
:1018F0002846FFF7B6FB2C68606D18B90F480068E2
:10190000A06501E0606DA06500BF00BF304602F039
:10191000ABFA00BF00BF00BFA7E700005D000020DA
:10192000380F0020980000208000002004ED00E027
:1019300064000020C00E00205F0000206000002036
:1019400019481A481A481B481B481C481C481D487F
:101950001D481E481E481F481F482048204821484F
:10196000214822482248234823482448244825481F
:1019700025482648264827482748284828482948EF
:1019800029482A482A482B482B482C482C482D48BF
:101990002D482E482E482F482F483048304831488F
:1019A000314800BF704700006C3F0008D440000879
:1019B0006E3F00086F3F0008703F0008743F00084A
:1019C000783F0008753F0008A83F0008AA3F0008BC
:1019D000AC3F0008CC3F0008CE3F0008D03F0008D5
:1019E000D83F0008044000080A4000080B400008E7
:1019F0000C4000080E40000810400008124000088B
:101A0000144000081640000818400008484000082C
:101A10004E40000850400008784000087E40000812
:101A20008040000884400008854000088640000887
:101A30008740000888400008894000088A40000864
:101A40008B4000088C4000088E4000088F40000842
:101A5000904000089240000894400008954000081B
:101A600098400008CC400008D24000082DE9F84F0B
:101A700004460D4616461F46DDE90BABDDF82890FF
:101A8000DDF834800020009000BF00BF02F0E8F9CC
:101A9000009000BF00BFB0480088B0490988884264
:101AA0003BDAAD480088401CAB490880AC48008850
:101AB0000988884203DAA8480088A9490880A9480B
:101AC00000680460A74800688560A6480068C66092
:101AD000A44800680782A3480068C0F81490A14891
:101AE0000068A0F818A09F480068C0F81CB09D4886
:101AF000006840689B49086001209B4908819B4819
:101B000008604860002000F0B7FA994800789949C9
:101B100008700020A8F8000008E097480088401CE2
:101B20009549088044F25360A8F8000000BF00BF48
:101B3000009802F099F900BF00BFBDE8F88F2DE9C9
:101B4000F84F4FF0000B00BF00BF02F089F9834649
:101B500000BF00BF8948006806688848006884683C
:101B600086480068D0F80C8084480068B0F810A05F
:101B700082480068D0F8149080480068078B7F483E
:101B80000068C5697D48006840687C49086000BFFE
:101B900000BF584602F068F900BF00BF7849701ACC
:101BA0008E4214D009DC774830180FD0764940189F
:101BB0000AD07649401822D10AE0754940180ED063
:101BC000744940181BD100E01AE019E018E017E052
:101BD0006B462A463946204601F008F810E0654970
:101BE000097801EB4101604A02EB8100FFF736FE04
:101BF0006B462A460021684800F0F8FF00E000BF6D
:101C000000BFBDE8F88F002700BF3CE0002638E0A9
:101C100051480088C0B900BF00BF02F021F9074653
:101C200000BF00BF0020504908810860486000F0F4
:101C300033FA00BF00BF384602F016F900BF00BFFC
:101C4000FFF735F901261CE00025FFF778FF6C420D
:101C500052480068844201D95048046000BF00BF68
:101C600002F0FEF8074600BF00BF3B480088401E58
:101C70003949088000BF00BF384602F0F5F800BFC0
:101C800000BF002EC4D0C1E7F0B589B005460020E2
:101C9000394908804248006820B944F252602880DF
:101CA00009B0F0BD2D480088022803DA44F25460E0
:101CB0002880F5E70020394908603948046826463D
:101CC000203600270CE0374820600020A060E0604C
:101CD000208260612083666020342036781C87B2C1
:101CE0001E4800888742EEDB203C2D48066866606F
:101CF0001C480660214806600020174908801849E2
:101D000008802948006818B946F62C602880C7E783
:101D10002648006826490968884203D246F62D60A5
:101D20002880BDE7032000210591CDE90705069134
:101D30001E4800681F4A12681B4B1B68CDE903014F
:101D4000CDE9013200910B46AFF245121AA10748C6
:101D500000F072FB00BFA3E740000020DC3E00085B
:101D60004200002038000020B00F0020380F002073
:101D70005C0000205E000020440000203C000020A9
:101D8000544D5347ADBAB2BE0DF90BFAF2F8F7FF56
:101D9000000410FC03F4FDF588100020480000202A
:101DA000D83E00084E4F4E45E43E0008EC3E000889
:101DB000243F0008E83E000875432F4F532D494942
:101DC0004920495352205175657565205461736BE4
:101DD00000000000002181619349096811B90021C8
:101DE000C16105E090490968C1618F49096888614E
:101DF0008D49086070472DE9FF4F83B004461546B2
:101E00001F46DDE9109600200090884800780028E1
:101E100005DD45F2B960308007B0BDE8F08F1DB92F
:101E200045F2BB603080F7E7022F03DA45F2BC6071
:101E30003080F1E7B9F1040F03D245F2C160308080
:101E4000EAE74FF0030ABAF1000F0CD015EA0A0FC7
:101E500003D045F2BB603080DEE719EA0A0F02D0FA
:101E600045F2C1603080AB46A846781E80B2019032
:101E70000020029007E0C844CBF80080C3460298D7
:101E8000401C80B20290DDE901108842F3DB0020A3
:101E9000CBF8000000BF00BF00BF01F0E1FF0090E1
:101EA00000BF00BF62480078401C6149087000BF55
:101EB00000BF009801F0D8FF00BF00BF00BF5D4821
:101EC00020600498A0606560E560A7826782A4F83E
:101ED00010902046FFF77EFF57480088401C564967
:101EE000088000BF00BF00BF01F0BAFF009000BF34
:101EF00000BF4F480078401E4D49087008460078E2
:101F0000A0B94E480088002809DD00BF00BF009836
:101F100001F0AAFF00BF00BFFFF784FC0DE000BF87
:101F200000BF009801F0A0FF00BF06E000BF00BFA7
:101F3000009801F099FF00BF00BF00BF0020308073
:101F400000BF69E72DE9F04104460D4600272CB992
:101F500045F2BF6028800020BDE8F08100BF00BFCF
:101F600001F07EFF074600BF00BFA08A58B900BF3E
:101F700000BF384601F078FF00BF00BF45F2C260E5
:101F800028800020E8E7E6683068E060A08A401E0C
:101F9000A08200BF00BF384601F066FF00BF00BF4F
:101FA000002028803046D7E72DE9F04104460E4650
:101FB0001546002724B945F2BF602880BDE8F081AE
:101FC0001EB945F2BE602880F8E700BF00BF01F0EF
:101FD00047FF074600BF00BFA08A618A88420ADB2C
:101FE00000BF00BF384601F03FFF00BF00BF45F211
:101FF000BA602880E2E7E0683060E660A08A401CB2
:10200000A08200BF00BF384601F02EFF00BF00BF16
:102010000020288000BFD1E70021034A1160064A52
:1020200011800180704700004C0000203400002027
:102030005F0000204D454D20500000204000002052
:10204000002004E000211C4A42F82010401C002817
:10205000F8D0704770B50025174C03E005F120005B
:10206000C5B2241D20680028F8D0206801F0FFFECA
:102070002844C5B2284670BD30B5420900F01F03A0
:102080000121C3F11F04A1400B4C54F822400C4322
:10209000094D45F8224030BD30B5420900F01F031C
:1020A0000121C3F11F04A140034C54F822408C438A
:1020B000014D45F8224030BD2C00002070B504468B
:1020C000002600209C4908609C4908809C490860C3
:1020D0009C4908609C4805680EE000BF00BF01F005
:1020E000BFFE064600BF00BF2D6F00BF00BF3046D9
:1020F00001F0BAFE00BF00BF002DEED101F03FFBA2
:102100000020208070BDF8B5044600266A460021F4
:10211000022001F047FBBDF8000018B1BDF8000037
:102120002080F8BD00BF00BF01F09AFE064600BF48
:1021300000BF00208549086000BF00BF304601F0A5
:1021400093FE00BF00BF00258148006881490968EF
:10215000884205D97E4800687E490968B0FBF1F5E0
:1021600025B97B4800680A21B0FBF1F56A460021D9
:10217000284601F017FB00BF00BF01F071FE0646C4
:1021800000BF00BF00206E490860704800687249B7
:10219000086001207149087000BF00BF304601F09F
:1021A00063FE00BF00BF0020208000BFB9E708B574
:1021B0004FF0000800BF06E06649096848006A461B
:1021C000002101F0EFFA654800780128F4D1684653
:1021D000FFF774FF00255E4800685E490968884281
:1021E00005D95B4800685B490968B0FBF1F525B982
:1021F000574800680A21B0FBF1F557E0002700BFFF
:1022000000BF01F02DFE804600BF00BF4F480068B0
:102210005349086000204D49086000BF00BF404698
:1022200001F022FE00BF00BF4B4800684C4909681E
:10223000884213D94848006860B149480068642161
:10224000484345490968B0FBF1F0C0F164004549D5
:10225000087006E064204349087002E064204149A8
:10226000087001F08CFD3848046807E06B4604F103
:102270006402111D204600F0B0FE246F002CF5D141
:1022800039480078012805D1002037490870684690
:10229000FFF714FF7E422A480068864201D9284889
:1022A00006606A460021284601F07CFAA6E710B5D0
:1022B0008AB004460020254908602949086026495B
:1022C000086026490870284908702848006820B925
:1022D00046F62C6020800AB010BD254800682549CC
:1022E0000968884203D246F62D602080F3E7224831
:1022F0000078072803D346F273202080EBE7032001
:1023000000210591CDE9070406910846184909689E
:102310001A4A1268154B1B68CDE90132CDE903104A
:10232000154800780023AFF2791215A100901948E2
:1023300000F082F800BFCEE74800002042000020F5
:102340007800002090000020840000206800002019
:10235000283F0008103F00086C0000207400002097
:1023600070000020650000207C000020143F000861
:102370001C3F0008243F00080C3F0008183F0008DD
:1023800075432F4F532D494949205374617420548C
:1023900061736B00101000200021C166FE490968BE
:1023A00011B90021016705E0FB4909680167FA4995
:1023B0000968C866F84908607047002202608260B8
:1023C0004260C260026142618261C261F3A2026244
:1023D000002242628262C2620263C28702640021FA
:1023E00006E0002300F15C0242F821304A1CD1B221
:1023F0000029F6D0002200F134000261426080F82A
:102400002C204263026302814FF0004242614FF090
:1024100000028261C2610262426202704270827096
:102420004FF00802C2704FF000028263C263DDA267
:102430000264A0F1340070472DE9FF4F87B00446D5
:102440009046DDE91BA5DDE91496179F0020039057
:10245000D5480078002805DD47F24A1028800BB0E7
:10246000BDE8F08F1CB947F2AD102880F7E7B8F14E
:10247000000F03D147F24F102880F0E71EB946F64F
:102480002C602880EBE7C9480068874203D246F6F3
:102490002D602880E3E71698B84203D346F62E60F5
:1024A0002880DCE7B9F1080F03D346F273202880B7
:1024B000D5E7B9F1000F06D1BD48844203D046F2FA
:1024C00073202880CBE7B9F1070F06D1B9488442C1
:1024D00003D046F273202880C1E72046FFF76DFF46
:1024E000002028801AF0010F11D01AF0020F0ED030
:1024F0000596069008E00021059801600598001DEA
:1025000005900698401C06900698B842F3D316989A
:1025100006EB80000490CDE9007A32464046049BE9
:102520000A9901F030FC0590C4F828800A98E0620E
:102530000898206284F83790059820600498A0607D
:1025400019986065199818B99B480068A06501E062
:102550001998A0651A9860606662A763A4F83CA009
:102560004FF0000B08E0002104F15C0040F82B1054
:102570000BF101001FFA80FBBBF1000FF3D02046E6
:1025800001F0FEFB00BF00BF00BF01F069FC03903B
:1025900000BF00BF89480078401C8849087000BF10
:1025A00000BF039801F060FC00BF00BF00BF94F8BB
:1025B0003700FFF761FD2046FEF76AFF2046FFF770
:1025C000EBFE7F480088401C7D4908807D480078EC
:1025D00001282DD000BF00BF00BF01F041FC0390D7
:1025E00000BF00BF75480078401E74490870084657
:1025F0000078A0B974480088002809DD00BF00BF3A
:10260000039801F031FC00BF00BFFFF70BF90DE0AC
:1026100000BF00BF039801F027FC00BF06E000BF29
:1026200000BF039801F020FC00BF00BF00BF16E709
:1026300000BF00BF00BF01F013FC039000BF00BF4C
:102640005E480078401E5D49087000BF00BF0398D7
:1026500001F00AFC00BF00BF00BFFEF728FC00BF6E
:10266000FDE6C26E016F3AB94B4B196009B1002308
:10267000CB660023036709E019B900231367C3661B
:1026800004E01167CA6600230367C366704770B52C
:1026900004460D46002644480078002803DD47F232
:1026A0004E10288070BD4348844203D147F24C103D
:1026B0002880F7E73E48844203D147F24D10288036
:1026C000F0E77CB900BF00BF01F0CAFB064600BFBF
:1026D00000BF3E48046800BF00BF304601F0C4FBA5
:1026E00000BF00BF00BF00BF00BF01F0B9FB06463E
:1026F00000BF00BF31480078401C3049087000BF5F
:1027000000BF304601F0B0FB00BF00BF00BF94F82F
:10271000360008282DD2DFE800F004090E10080A60
:102720000F112046FEF7D4FD72E071E000BF204695
:1027300000F0D4FD6CE000BF00BF00BF204600F0F9
:10274000CDFD94F83400082810D2DFE800F004072B
:102750000508090A0B0600BF00BF08E000BF00BF64
:1027600000BF00BF2046FEF74CFE00E000BF00BFE8
:102770004EE000BF00BF00BF01F072FB064600BF85
:1027800000BF0E480078401E0C49087008460078CB
:1027900088BB0D4800881BE0840000203F54617313
:1027A0006B0000002000000034000020243F0008DF
:1027B000380F0020C00E0020600000205F000020C5
:1027C00088000020350000204000002094000020F8
:1027D000002809DD00BF00BF304601F045FB00BF07
:1027E00000BFFFF71FF80EE000BF00BF304601F04A
:1027F0003BFB00BF07E0FFE700BF00BF304601F032
:1028000033FB00BF00BF00BF46F62A60288049E7BF
:1028100000BF204601F0B5FA2046FFF722FFFE4830
:102820000088401EFC4908802046FFF7C6FDFF20B7
:1028300084F8360000BF00BF00BF01F011FB064660
:1028400000BF00BFF5480078401EF449087000BF83
:1028500000BF304601F008FB00BF00BF00BFFEF71D
:1028600026FB0020288000BF1CE72DE9F04104462C
:102870000D4616464FF000082DB146F6791030800F
:102880000020BDE8F08100BF00BF01F0E9FA8046FA
:1028900000BF00BF0CB9E248046804F15C0050F8C6
:1028A000257000BF00BF404601F0DEFA00BF00BF48
:1028B000002030803846E4E72DE9F04104460D461B
:1028C00017461E464FF0000825B146F679103080B5
:1028D000BDE8F08100BF00BF01F0C2FA804600BF32
:1028E00000BF0CB9CE48046804F15C0040F82570C4
:1028F00000BF00BF404601F0B7FA00BF00BF002094
:10290000308000BFE4E770B504460D460026C54898
:102910000078002803DD47F25510288070BD00BF05
:1029200000BF01F09DFA064600BF00BF1CB1BC48C5
:10293000006884420AD100BF00BF304601F094FA1B
:1029400000BF00BF47F257102880E7E7002028802B
:1029500094F8360008287BD2DFE800F0040506076B
:102960001243556700BF00BF00BF00BF00BF304625
:1029700001F07AFA00BF00BF47F25310288072E0DE
:1029800000BFA6480078401CA449087000BF00BFE3
:10299000304601F069FA00BF00BF00BF14F8600FB5
:1029A000401E207014F8600928B9002084F8360011
:1029B0002046FEF7BDFD00BF00BF00BF01F050FA8A
:1029C000064600BF00BF95480078401E9349087036
:1029D00000BF00BF304601F047FA00BF00BF00BF94
:1029E00041E014F8600F401E207014F8600910B91F
:1029F000012084F8360000BF00BF304601F034FAF1
:102A000000BF00BF2FE014F8600F401E207014F8C4
:102A1000600910B9022084F8360000BF00BF3046BC
:102A200001F022FA00BF00BF1DE014F8600F401E45
:102A3000207014F8600910B9032084F8360000BF34
:102A400000BF304601F010FA00BF00BF0BE0FFE707
:102A500000BF00BF304601F007FA00BF00BF46F6D6
:102A60002A6028805AE700BFFEF721FA00BF55E729
:102A70002DE9F0470746884614461D464FF00009E9
:102A800068480078002805DD46F2AE102880002056
:102A9000BDE8F0870CB10020206000BF00BF01F04E
:102AA000DFF9814600BF00BF5D480068406CC8B1D7
:102AB0005B480068406C401E5949096848645848A2
:102AC0000068466C1CB156480068006C206000BF6E
:102AD00000BF484601F0C8F900BF00BF00202880B1
:102AE0003046D5E718F4004F0BD000BF00BF484672
:102AF00001F0BAF900BF00BF46F2B01028800020F4
:102B0000C6E74648007800280BDD00BF00BF4846F6
:102B100001F0AAF900BF00BF46F6635028800020EC
:102B2000B6E700BF3D480078401C3C49087000BF34
:102B300000BF484601F098F900BF00BF00BF3B4608
:102B4000072200210846FEF70AFC00BF00BF00BFB5
:102B500001F086F9814600BF00BF30480078401E72
:102B60002E49087000BF00BF484601F07DF900BF44
:102B700000BF00BFFEF79BF900BF00BF01F070F976
:102B8000814600BF00BF2648006890F8350020B19C
:102B900001280AD0032818D110E01CB12048006891
:102BA000006C20600020288013E01CB11C480068E5
:102BB000006C206046F2A91028800AE00CB10020C9
:102BC000206047F2D920288003E046F62B60288059
:102BD00000BF00BF12480068466C00BF00BF4846F7
:102BE00001F042F900BF00BF304651E72DE9F8433C
:102BF0000446884617461D464FF0000900BF00BF37
:102C000000BF01F02DF9814600BF00BF03480078E6
:102C1000401C0249087007E0880000205F00002087
:102C2000940000203400002000BF00BF484601F09F
:102C30001BF900BF00BF00BF0CB9FE480468276441
:102C40000020288094F83600082871D2DFE800F0D0
:102C50000405EAEB0607ECED00BF00BF00BF04204F
:102C6000012804D0022839D004286FD170E0606CAC
:102C7000FF2832D100BF00BF00BF01F0F1F881464C
:102C800000BF00BFEC480078401EEB4908700846C2
:102C90000078A0B9E9480088002809DD00BF00BF1E
:102CA000484601F0E1F800BF00BFFEF7BBFD0DE0B4
:102CB00000BF00BF484601F0D7F800BF06E000BFE4
:102CC00000BF484601F0D0F800BF00BF00BF46F685
:102CD000C55028800020BDE8F88370E0606CA0F546
:102CE0007F41FF3933D100BF00BF00BF01F0B8F80A
:102CF000814600BF00BFD0480078401ECE49087012
:102D000008460078A8B9CD480088002809DD00BF32
:102D100000BF484601F0A8F800BF00BFFEF782FDE3
:102D20000EE000BF00BF484601F09EF800BF07E07C
:102D3000D4E000BF00BF484601F096F800BF00BFD6
:102D400000BF46F6C55028800020C4E736E036E0D4
:102D5000606C401C31D100BF00BF00BF01F080F8A3
:102D6000814600BF00BFB4480078401EB2490870D9
:102D700008460078A0B9B1480088002809DD00BFE6
:102D800000BF484601F070F800BF00BFFEF74AFDE3
:102D90000DE000BF00BF484601F066F800BF06E046
:102DA00000BF00BF484601F05FF800BF00BF00BF92
:102DB00046F6C550288000208DE700E000BF00BF28
:102DC000606C401C6064666C00BF00BF00BF01F017
:102DD00047F8814600BF00BF97480078401E9649DB
:102DE000087008460078A0B994480088002809DDDA
:102DF00000BF00BF484601F037F800BF00BFFEF734
:102E000011FD0DE000BF00BF484601F02DF800BFE6
:102E100006E000BF00BF484601F026F800BF00BF33
:102E200000BF8DE000BF00BF00BF94F8340007284A
:102E300022D100231A46214618460097FEF795FC3A
:102E4000666C00BF00BF00BF01F00AF8814600BFFA
:102E500000BF79480078401E7749087000BF00BF66
:102E6000484601F001F800BF00BF00BF18F4004F52
:102E700033D1FEF71CF830E0606C401C6064666C77
:102E800000BF00BF00BF00F0EBFF814600BF00BFE6
:102E900069480078401E6849087008460078A0B963
:102EA00066480088002809DD00BF00BF484600F0E2
:102EB000DBFF00BF00BFFEF7B5FC0DE000BF00BFA9
:102EC000484600F0D1FF00BF06E000BF00BF484603
:102ED00000F0CAFF00BF00BF00BF31E000BF00BF6D
:102EE00000BF00F0BDFF814600BF00BF5248007820
:102EF000401E5149087008460078A0B94F48008824
:102F0000002809DD00BF00BF484600F0ADFF00BF4C
:102F100000BFFEF787FC0DE000BF00BF484600F091
:102F2000A3FF00BF06E000BF00BF484600F09CFFC3
:102F300000BF00BF00BF46F62A602880002600BF01
:102F400000BF3046C7E62DE9FF4105460F4614464F
:102F500000263B48007800280EDD00200090034644
:102F600002462946CDE9026401903648FEF77EFD0F
:102F7000002004B0BDE8F081234632463946284699
:102F8000FFF734FE80464046F3E72DE9F041044662
:102F90000F4615464FF0000829480078002805DD47
:102FA00046F6C65028800020BDE8F08100BF00BF73
:102FB00000F056FF804600BF00BF0CB91D480468F2
:102FC000666C676400BF00BF404600F04DFF00BF65
:102FD00000BF002028803046E6E72DE9F04705468F
:102FE0000E4617461C464FF0000A15480078002888
:102FF00004DD47F258102080BDE8F0871EB946F284
:10300000D5202080F8E71FB946F2D5202080F3E7CD
:1030100000BF00BF00F024FF824600BF00BF0DB913
:10302000044805682868C0B900BF00BF504600F0DA
:103030001BFF09E0940000205F00002040000020FA
:10304000340000205453494700BF00BF00203060C7
:10305000386047F252102080CEE795F83C0010F01F
:10306000010F0DD100BF00BF504600F0FDFE00BFB4
:1030700000BF00203060386047F254102080BBE76A
:1030800000BF00BF504600F0EFFE00BF00BF4FF092
:103090000008D5F8249003E009F1040908F10108BB
:1030A000D9F800000028F7D0C6F80080A86BA0EB84
:1030B000080038600020208000BF9DE770B50446FE
:1030C0000D4600267C480078002803DD47F25C109E
:1030D000288070BD7948844203D147F25A10288075
:1030E000F7E77748844203D147F25B102880F0E786
:1030F00000BF00BF00F0B4FE064600BF00BF0CB921
:10310000704804686F48006884420ED16E480078A9
:1031100000280ADD00BF00BF304600F0A5FE00BF5A
:1031200000BF46F663502880D3E70020288094F83B
:10313000360008286CD2DFE800F004313F4D5B5CBC
:103140005D5E00BF60480078401C5F49087000BFAA
:1031500000BF304600F088FE00BF00BF00BF042063
:1031600084F83600012084F860002046FEF7B0F8AD
:1031700000BF00BF00BF00F073FE064600BF00BFE7
:1031800051480078401E5049087000BF00BF3046CB
:1031900000F06AFE00BF00BF00BF44E0052084F8D5
:1031A0003600012084F8600000BF00BF304600F008
:1031B0005BFE00BF00BF36E0062084F83600012029
:1031C00084F8600000BF00BF304600F04DFE00BF35
:1031D00000BF28E0072084F83600012084F8600052
:1031E00000BF00BF304600F03FFE00BF00BF1AE046
:1031F00000BF00BF00BF94F86000401C84F860006E
:1032000000BF00BF304600F02FFE00BF00BF0AE045
:1032100000BF00BF304600F027FE00BF00BF46F6EB
:103220002A60288055E700BFFDF741FE00BF50E748
:103230002DE9F04104460D46164600271E48007849
:10324000002804DD46F6C6503080BDE8F08100BF9E
:1032500000BF00F005FE074600BF00BF0CB91948CB
:1032600004681DB919480068606500E06565D4E927
:103270001501884201D9606DA06500BF00BF3846C6
:1032800000F0F2FD00BF00BF0020308000BFDCE78F
:1032900000210F4A11600F4A11800F4A116001800E
:1032A000704708B50748006800F06CFD69460020CB
:1032B000FFF7EDF908BD000034000020C00E00202B
:1032C000380F0020940000205F00002060000020E4
:1032D00084000020880000208000002010B5C26912
:1032E000BAB1002404651468844205D141691160B3
:1032F00039B100248C6104E0816943694B6103B1F9
:103300009961002444618461C461C4649488641E2A
:10331000948010BD2DE9F05F4FF0000B00BF00BF9F
:1033200000BF00F09DFD834600BF00BFFE4800784F
:10333000401CFD49087000BF00BF584600F094FDD6
:1033400000BF00BF00BF4FF0000AF8480068401CF3
:10335000F649086008460068F5490988B0FBF1F2B3
:1033600001FB12001FFA80F9F24800EBC9073C6824
:1033700000267EE0002C7BD0D4F8148094F8360030
:10338000082871D2DFE800F00408051B063B074E51
:1033900000BF00BF00BF68E0E449E06C0968401A64
:1033A0002065E249E06C0968884206D1002084F873
:1033B00036002046FEF7BCF800E0012655E0DB4968
:1033C000E06C0968401A2065D849E06C09688842B9
:1033D00013D1002020642046FEF713F82046FEF7A4
:1033E000A7F8002004F13404A0704FF003006070CF
:1033F0004FF0000004F8340900E0012635E0CB4925
:10340000E06C0968401A2065C849E06C0968884288
:1034100006D1042084F836002046FFF75FFF00E065
:10342000012622E0C149E06C0968401A2065BF49C5
:10343000E06C0968884215D1002020642046FDF721
:10344000E0FF2046FFF74AFF042004F13404A07097
:103450004FF0030060704FF0000004F8340902E000
:1034600006E001E0012600E000BF00BF444600E0A6
:103470000126002E3FF47EAFCAF10005AE48006879
:10348000854201D9AC48056000BF00BF00BF00F015
:10349000E7FC834600BF00BFA3480078401EA24956
:1034A000087008460078A0B9A4480088002809DD03
:1034B00000BF00BF584600F0D7FC00BF00BFFEF7BA
:1034C000B1F90DE000BF00BF584600F0CDFC00BFD1
:1034D00006E000BF00BF584600F0C6FC00BF00BFBA
:1034E00000BFBDE8F09F1CB500BF0EE001AB6A460F
:1034F00000210846FFF7BCFABDF8040028B990483F
:103500000078012801D1FFF705FFEFE7002108E06F
:10351000884A02EBC100002202608280C2804A1CFD
:1035200091B2834A12889142F2DB704710B58AB09B
:10353000044600207D4908607F490860FFF7E6FFE8
:1035400080480078072804D346F2732020800AB010
:1035500010BD032000210591CDE9070406917A48AA
:1035600002687A4800687A4B1B68CDE90130CDE9E2
:103570000321744800780023AFF2950275A10090F2
:103580007948FEF759FF00BFE1E72DE9F04F0C46FF
:1035900016461D46042E1ED1DFF89091D9F80090F2
:1035A000A4EB0909A9F1010313F5803F0DD94FF0F0
:1035B0000009C0F84C90C0F85090C0F81C9047F239
:1035C0007E29A5F80090BDE8F08FC46403F10109DD
:1035D000C0F850903FE084B3082E25D1D0F8489031
:1035E00009EB0407DFF84491D9F80090A7EB09092B
:1035F000A9F10103A34201D2C76406E0DFF82C91D0
:10360000D9F80090A144C0F84C90DFF820A1D0F880
:103610004C90DAF800A0A9EB0A09C0F85090D0F855
:103620004C90C0F8489016E0DFF80091D9F800906F
:10363000A144C0F84C9004650DE0FFE74FF000098D
:10364000C0F84C90C0F85090C0F81C9047F27E290A
:10365000A5F80090B7E7DFF8D8A0BAF800A0D0F836
:103660004C90B9FBFAFB0AFB1B991FFA89F8DFF8AB
:10367000C49009EBC802B2F80490B9F1000F0BD165
:103680004FF00009C0F81490C0F8189010604FF087
:103690000109A2F804903EE0116834E0DFF88CA044
:1036A000D1F84C90DAF800A0A9EB0A09C1F85090C3
:1036B000D0F85090D1F850A0D1450ED9D1F814903F
:1036C000B9F1000F01D049691DE04FF00009C0F8C1
:1036D000149081614861002115E0D1F81890B9F18A
:1036E000000F07D14FF00009C0F8189041618861C0
:1036F000106007E0D1F818C0C0F818C04161CCF8DC
:103700001400886100210029C8D1B2F8049009F1A1
:103710000109A2F80490B2F80690B2F804A0D145CD
:1037200026DAB2F8049021E05F0000208C0000202F
:10373000403F0008580E002090000020400000206C
:10374000350000202C3F0008383F0008343F0008B7
:10375000303F000875432F4F532D49494920546984
:10376000636B205461736B0088100020A2F80690F0
:10377000C2614FF00009A5F8009000BF23E70020C8
:1037800006E0064A02EBC0010022CA80421C90B249
:10379000034A12889042F4DB70470000580E002064
:1037A000403F00082DE9F04105460E46144600272B
:1037B000FE480078002804DD47F275202080BDE82F
:1037C000F081FB480078002803DD46F66350208036
:1037D000F5E736B1022E05D0042E0AD0082E09D105
:1037E00001E000BF00BF1DB947F27E202080E6E760
:1037F00004E003E045F625602080E0E700BF00BF5D
:1038000000BF00BF00F02CFB074600BF00BFE84828
:103810000078401CE649087000BF00BF384600F041
:1038200023FB00BF00BF00BF0120E249096881F807
:103830003600234632462946DE480068FFF7A5FEDB
:103840002088A8B100BF00BF00BF00F009FB0746F9
:1038500000BF00BFD6480078401ED549087000BFA1
:1038600000BF384600F000FB00BF00BF00BFA6E766
:10387000D0480068FDF72CFD00BF00BF00BF00F07E
:10388000EFFA074600BF00BFC9480078401EC8498C
:10389000087000BF00BF384600F0E6FA00BF00BF66
:1038A00000BFFDF704FB0020208000BF87E72DE963
:1038B000FF5F05460E4617469846DDE90EA4002038
:1038C0000090BA480078002804DD47F27520208077
:1038D000BDE8FF9FB6480078002803DD46F6635038
:1038E0002080F5E70AF00E0BBBF1000F09D0BBF109
:1038F000020F07D0BBF1040F10D0BBF1080F0ED19F
:1039000001E000BF00BFB8F1000F06D12FB926B902
:103910001DB947F27E202080DAE704E003E045F697
:1039200025602080D4E700BF3AF01E0001D00120BE
:1039300000E0002003900398012803D145F625609C
:103940002080C5E7CAF3001002900298C0B9B8F50C
:103950007A7F03D347F27B202080B9E73B2F03DD3A
:1039600047F27A202080B3E73B2E03DD47F279202F
:103970002080ADE7632D12DD47F278202080A7E795
:1039800042F20F70864203DD47F2792020809FE7E4
:10399000B5F57A7F03DB47F27820208098E78648E8
:1039A000D0F800904FF4FA70B0FBF9F0404400FBFF
:1039B00009F04FF47A71B0FBF1F14FF461606843A4
:1039C000C6EB061200EB8200384400FB09100190A0
:1039D0000198002856D000BF00BF00BF00F040FA99
:1039E000009000BF00BF72480078401C704908700A
:1039F00000BF00BF009800F037FA00BF00BF00BF53
:103A000001206C49096881F8360023465A46694806
:103A100001990068FFF7B9FD2088A8B100BF00BF79
:103A200000BF00F01DFA009000BF00BF60480078A2
:103A3000401E5F49087000BF00BF009800F014FAF4
:103A400000BF00BF00BF43E75A480068FDF740FCD5
:103A500000BF00BF00BF00F003FA009000BF00BF2E
:103A600053480078401E5249087000BF00BF0098BC
:103A700000F0FAF900BF00BF00BFFDF718FA002000
:103A8000208002E047F27E20208000BF20E770B552
:103A900005460C46002645480078002803DD47F21D
:103AA0007620208070BD1DB947F251102080F9E7C3
:103AB00000BF00BF00F0D4F9064600BF00BF95F874
:103AC000360008287AD2DFE800F0040F3E49545F40
:103AD00096A100BF00BF304600F0C6F900BF00BF8E
:103AE00047F251102080A7E000BF31480078401C09
:103AF0002F49087000BF00BF304600F0B5F900BF85
:103B000000BF00BF002085F836002846FFF7E6FB1F
:103B10002846FDF7D9FC00BF00BF00BF00F0A0F9A8
:103B2000064600BF00BF22480078401E20490870AA
:103B300000BF00BF304600F097F900BF00BF00BFD4
:103B40000020208078E000BF00BF304600F08CF9F4
:103B500000BF00BF47F2511020806DE000BF00BFE2
:103B6000304600F081F900BF00BF47F251102080BD
:103B700062E000BF00BF304600F076F900BF00BF32
:103B800047F25110208057E000BF09480078401CE0
:103B90000749087000BF00BF304600F065F900BF5C
:103BA00000BF00BF042085F8360008E03400002084
:103BB0005F00002094000020283F000831E02846E4
:103BC000FFF78CFB00BF00BF00BF00F049F90646BD
:103BD00000BF00BF3E480078401E3D49087000BF4E
:103BE00000BF304600F040F900BF00BF00BF47F201
:103BF0005910208020E000BF00BF304600F034F9AB
:103C000000BF00BF47F25110208015E000BF00BF89
:103C1000304600F029F900BF00BF47F25110208064
:103C20000AE000BF00BF304600F01EF900BF00BF31
:103C300046F62A60208000BF00BFFDF738F900BFBC
:103C400030E770B50446002600BF00BF00F008F959
:103C5000064600BF00BF1F48056800BF00BF3046D2
:103C600000F002F900BF00BF00202080284670BD90
:103C700070B504460D46002600BF00BF00F0F0F806
:103C8000064600BF00BF1348046000BF00BF3046B7
:103C900000F0EAF800BF00BF0020288070BD10B51A
:103CA00086B000F0CFF8002405A800210091CDE9EE
:103CB000011403900848007800EB4000074A02EB2B
:103CC000800100231A460648FDF7D0FE06B010BD5D
:103CD0005F0000208C0000205C000020B00F00205E
:103CE0005449434B18484FF0FF010170002080F306
:103CF00009881648016881F3088815484FF08051FB
:103D0000016062B6FEE772B6EFF3098028B1203891
:103D100080E8F00F0F490968086000B50E48804739
:103D20005DF804EB0D480E490A78027009480D4908
:103D30000A680260106890E8F00F203080F309886C
:103D40004EF0040E62B6704722ED00E09C000020A9
:103D500004ED00E094000020433E00085C000020D9
:103D60005D00002098000020704737480068374900
:103D7000096800EB8100001F3549086070477047F3
:103D8000704770477047F0B50446DDE9055602EB11
:103D900085004FF0807C071F3846C7F800C0071F1A
:103DA00038463C60DFF8ACC0071F3846C7F800C093
:103DB0004FF0123C071F3846C7F800C04FF0033CD5
:103DC000071F3846C7F800C04FF0023C071F3846AF
:103DD000C7F800C0071F38463B60071F38463960E8
:103DE0004FF0113C071F3846C7F800C04FF0103C99
:103DF000071F3846C7F800C04FF0093C071F384678
:103E0000C7F800C04FF0083C071F3846C7F800C08D
:103E10004FF0073C071F3846C7F800C04FF0063C7C
:103E2000071F3846C7F800C04FF0053C071F38464B
:103E3000C7F800C04FF0043C071F3846C7F800C061
:103E4000F0BD704770470000F43E0008F83E0008DF
:103E50009C000020A332000872B6704762B670471B
:103E6000EFF3108072B6704780F310887047B0FA95
:103E700080F0704790FAA0F0704730BF704720BFC5
:103E800070470000064C074D06E0E06840F0010373
:103E900094E8070098471034AC42F6D3FCF72AF9AF
:103EA000D8400008F840000802E008C8121F08C106
:103EB000002AFAD170477047002001E001C1121FAB
:103EC000002AFBD170470000180300200C000000FE
:103ED0008000000000020000180500200A00000019
:103EE00040010000580600200C0000008000000087
:103EF00000020000580800208000000000020000BE
:103F000000000000000000000000000006000000AB
:103F10000A000000580A00200C0000008000000089
:103F20000002000040000000E8030000050000005F
:103F3000580C00200C00000080000000000200006F
:103F40000D000000680000000000000000000000FC
:103F50000000000000000000000000000000000061
:103F60000000000000000000A80B0000010001009C
:103F7000785634120100000000000000000000002C
:103F80000000000000000000000000000000000031
:103F90000000000000000000000000000000000021
:103FA00000000000000000002000010000000000F0
:103FB0000000000000000000000000000000000001
:103FC00000000000000000000000000001002000D0
:103FD00000000000000000000000000000000000E1
:103FE00000000000000000000000000000000000D1
:103FF00000000000000000000000000000000000C1
:1040000000000000000000000000000120000C0083
:104010002000080004000400000000000000000070
:104020000000000000000000000000000000000090
:104030000000000000000000000000000000000080
:10404000000000000000000000000000000001006F
:104050000000000000000000000000000000000060
:104060000000000000000000000000000000000050
:1040700000000000000000000000000000000C0034
:1040800060000000040101000100010001000001C6
:10409000780008000101000000000000000000009E
:1040A0000000000000000000000000000000000010
:1040B0000000000000000000000000000000000000
:1040C00000000000000000000000000000000000F0
:1040D0000000F8758A020000F84000080000002087
:1040E000A0000000A83E000898410008A0000020A1
:1040F00060140000B83E000800A24A04000000005E
:104100000000000001020304060708090000000087
:104110000102030401020304060708090204060859
:10412000000000000000000000000000000000008F
:10413000000000000000000000000000000000007F
:10414000000000000000000000000000000000006F
:10415000000000000000000000000000000000005F
:10416000000000000000000000000000000000004F
:10417000000000000000000000000000000000003F
:10418000000000000000000000000000000000002F
:08419000000000000000000027
:04000005080000ED02
:00000001FF
