:020000040800F2
:10000000C81A002001010008250100082701000886
:100010002B0100082F010008330100080000000038
:100020000000000000000000000000003701000890
:100030003901000800000000275300083B010008B8
:100040001B0100081B0100081B0100081B01000820
:100050001B0100081B0100081B0100081B01000810
:100060001B0100081B0100081B0100081B01000800
:100070001B0100081B0100081B0100081B010008F0
:100080001B0100081B0100081B0100081B010008E0
:100090001B0100081B0100081B0100081B010008D0
:1000A0001B0100081B0100081B0100081B010008C0
:1000B0001B0100081B0100081B0100081B010008B0
:1000C0001B0100081B0100081B0100081B010008A0
:1000D0001B0100081B0100081B0100081B01000890
:1000E0001B0100081B0100081B010008DFF80CD0F1
:1000F00005F0FCF9004800472D0E0008C81A002042
:100100000648804706480047FEE7FEE7FEE7FEE7B1
:10011000FEE7FEE7FEE7FEE7FEE7FEE7290200084E
:10012000ED000008704700BFFEE700BFFEE700BF1C
:10013000FEE700BFFEE77047704710B501F0D3F946
:1001400004F003FD01F0E0F910BD00000CB5002043
:10015000019000906B48006840F480306949086065
:1001600000BF6848006800F4003000900198401C0F
:100170000190009818B90198B0F5A06FF1D16148CD
:10018000006810F4003F02D00120009001E0002040
:1001900000900098012842D15B48006840F01000B0
:1001A000594908600846006820F0030008600846C6
:1001B000006840F0020008605248406851494860B9
:1001C0000846406848600846406840F480604860DF
:1001D0000846406820F47C1048600846406840F4B7
:1001E000E81048600846006840F08070086000BF72
:1001F0004448006810F0007FFAD04248406820F080
:100200000300404948600846406840F002004860EA
:1002100000BF3C48406800F00C000828F9D10CBD34
:1002200010B5FFF793FF10BD10B53648006840F0D9
:1002300001003449086008464068344908403149A3
:10024000486008460068324908402E490860084660
:10025000006820F4802008600846406820F4FE0012
:1002600048604FF41F008860FFF7DAFF4FF000602E
:100270002849086010BD10B5002100200022214B44
:100280005B6803F00C0121B1042906D0082928D1AC
:1002900007E0214B214C236027E01F4B1F4C2360BC
:1002A00023E0184B5B6803F47010164B5B6803F493
:1002B0008032022303EB904022B9194B4343174C81
:1002C00023600DE00F4B5B6813F4003F04D0144B28
:1002D0004343124C236003E00F4B43430F4C236016
:1002E00003E00D4B0D4C236000BF00BF054B5B6866
:1002F000C3F303130B4CE15C084B1B68CB40074C6A
:10030000236010BD00100240002002400000FFF8F2
:10031000FFFFF6FE08ED00E000127A00000000206A
:1003200000093D000400002010B50446CA4884427C
:1003300008D10121042000F027FB0021042000F057
:1003400023FB46E0C548844208D10121082000F083
:100350001BFB0021082000F017FB3AE0C048844254
:1003600008D10121102000F00FFB0021102000F027
:100370000BFB2EE0BB48844208D10121202000F075
:1003800003FB0021202000F0FFFA22E0B64884425F
:1003900008D10121402000F0F7FA0021402000F0B0
:1003A000F3FA16E0B148844208D10121802000F020
:1003B000EBFA0021802000F0E7FA0AE0AC48844222
:1003C00007D10121801500F0DFFA0021A01500F00F
:1003D000DBFA10BD10B50121084600F0D5FA002166
:1003E000012000F0D1FA10BD2DE9F04102460025B0
:1003F0000026002000230024002791F803C00CF001
:100400000F0591F803C01CF0100F03D091F802C043
:100410004CEA050591F800C0BCF1000F31D014681A
:1004200000202BE04FF0010C0CFA00F3B1F800C0F3
:100430000CEA03069E4220D183004FF00F0C0CFA09
:1004400003F7BC4305FA03FC4CEA040491F803C02B
:10045000BCF1280F06D14FF0010C0CFA00FCC2F8D9
:1004600014C00AE091F803C0BCF1480F05D14FF069
:10047000010C0CFA00FCC2F810C0401C0828D1D3B3
:100480001460B1F800C0BCF1FF0F34DD54680020E7
:100490002EE000F1080C4FF0010808FA0CF3B1F857
:1004A00000C00CEA03069E4221D183004FF00F0CDE
:1004B0000CFA03F7BC4305FA03FC4CEA040491F878
:1004C00003C0BCF1280F05D100F1080C08FA0CF8A4
:1004D000C2F8148091F803C0BCF1480F07D100F1B5
:1004E000080C4FF0010808FA0CF8C2F81080401C04
:1004F0000828CED35460BDE8F0814FF6FF7101802B
:10050000022181700421C170704702460020936867
:100510000B4201D0012000E00020704701468868AE
:1005200080B2704702460020D3680B4201D0012000
:1005300000E0002070470146C86880B27047016142
:100540007047416170470AB1016100E04161704745
:10055000C16070474FF480320A43826181618261D9
:1005600082698269704702460020424B18684FF644
:100570008073184040EA021008433E4B18607047F1
:100580003D49C8617047F0B50A46002300240021A8
:10059000002500F00046B6F1004F02D1354EF1695A
:1005A00001E0344E7168C0F3034583B200F4401695
:1005B000B6F5401F08D121F070612E4E766826F006
:1005C00070662C4F7E6012E000F48016B6F5801F36
:1005D00006D1032606FA05F4A14341F0706106E056
:1005E000460D360103FA06F6B14341F0706122B1BF
:1005F000460D360103FA06F6314300F00046B6F127
:10060000004F02D11B4EF16101E01A4E7160F0BD46
:1006100030B500228B071C0F0F2303FA04F2154B91
:1006200008338C1053F824309343124C08348D1047
:1006300044F8253023468C1053F824308C07240FBF
:1006400000FA04F423430B4C08348D1044F8253091
:1006500030BD0A490860704700080140000C0140A5
:10066000001001400014014000180140001C01402E
:10067000002001400000014000002042DC00204238
:10068000DD48006840F00100DB490860084640682A
:10069000DA490840D849486008460068D849084007
:1006A000D54908600846006820F4802008600846A4
:1006B000406820F4FE0048604FF41F0088607047D7
:1006C000CD49096821F48031CB4A1160114609688F
:1006D00021F480211160B0F5803F03D0B0F5802F68
:1006E0000ED106E0C449096841F48031C24A116064
:1006F00007E0C149096841F4A021BF4A116000E048
:1007000000BF00BF704710B5014600220023002043
:100710004A11012A02D1B84C236806E0022A02D10C
:10072000B54C236A01E0B44C636A01F01F02012456
:1007300094401C4201D0012000E0002010BD38B5DB
:10074000002000900024002500BF3120FFF7DBFFD0
:1007500005460098401C00900098B0F5A06F01D0AD
:10076000002DF2D03120FFF7CEFF08B1012400E0C8
:100770000024204638BD014600209F4A106820F022
:10078000F80040EAC100106070479E490860704759
:1007900002460020984B586820F47C1042EA01037E
:1007A0001843954B58607047964908667047014654
:1007B0000020914A506820F00300084350607047C1
:1007C0008D48406800F00C007047014600208A4ABE
:1007D000506820F0F0000843506070470146002048
:1007E000854A506820F4E060084350607047014635
:1007F0000020814A506820F4605040EAC1005060F7
:10080000704729B17C4A527A02437B4B5A7204E00A
:10081000794A527A8243784B5A7270477A49086013
:10082000704701460020744A506820F44040084355
:10083000506070470021754A11706F4A82F820108D
:10084000012802D0042808D103E001216F4A117069
:1008500004E005216D4A117000E000BF00BF704741
:100860006B49086070476449096A0143624A116232
:100870007047674944390860704730B5002100224D
:10088000002400235C4D6D6805F00C0121B10429A2
:1008900005D0082923D105E05E4D056022E05D4DBD
:1008A00005601FE0544D6D6805F47012524D6D687F
:1008B00005F48034022505EB92421CB9564D554390
:1008C00005600BE04C4D6D6815F4003F03D0524DB0
:1008D0005543056002E04F4D5543056002E04D4D24
:1008E000056000BF00BF444D6D6805F0F0010909C7
:1008F0004A4D6B5C0568DD4045603F4D6D6805F411
:10090000E061090A454D6B5C4568DD4085603A4D04
:100910006D6805F46051C90A404D6B5C4568DD4067
:10092000C560354D6D6805F44041890B3C4D6B5CED
:10093000C568B5FBF3F5056130BD29B12E4A526992
:1009400002432D4B5A6104E02B4A526982432A4BE1
:100950005A61704729B1284A92690243264B9A612D
:1009600004E0254A92698243234B9A61704729B17A
:10097000214AD2690243204BDA6104E01E4AD2695F
:1009800082431D4BDA61704729B11B4AD26802438A
:10099000194BDA6004E0184AD2688243164BDA60D9
:1009A000704729B1144A12690243134B1A6104E0DB
:1009B000114A12698243104B1A6170471449403939
:1009C000086070470F49C86470470B49C871704789
:1009D0000948406A40F08070074948627047014604
:1009E0000020054A92680A4201D0012000E0002060
:1009F0007047014988727047001002400000FFF8FC
:100A0000FFFFF6FE00004242D800424220100240A2
:100A10008004424200127A0000093D0014000020C8
:100A20002400002010B50446FB48844209D101216E
:100A30008803FFF7A9FF00214FF48040FFF7A4FFD0
:100A400032E0F648844209D101214804FFF7A9FFAA
:100A500000214FF40030FFF7A4FF25E0F048844266
:100A600009D101218804FFF79CFF00214FF4802069
:100A7000FFF797FF18E0EB48844209D10121C80431
:100A8000FFF78FFF00214FF40020FFF78AFF0BE0F4
:100A9000E548844208D101210805FFF782FF0021C3
:100AA0004FF48010FFF77DFF10BD2DE9F04786B0B1
:100AB00005460E460024A24600BFA1460027B08985
:100AC00000B100BF2F462C8A4CF6FF700440F0881E
:100AD00004432C82AC894EF6F3100440B08831896F
:100AE0000843718908430443AC81AC8A4FF6FF4048
:100AF0000440B0890443AC8201A8FFF7BEFEC6489B
:100B0000874202D1DDF810A001E0DDF80CA0A88931
:100B100010F4004F08D00AEBCA0000EB0A1031684D
:100B20004900B0FBF1F807E00AEBCA0000EB0A103D
:100B300031688900B0FBF1F86420B8FBF0F00401E3
:100B40002009642101FB1089A88910F4004F08D006
:100B5000322000EBC900B0FBF1F000F007000443C5
:100B600008E0322000EB09106421B0FBF1F000F046
:100B70000F0004432C8106B0BDE8F0874FF41651F6
:100B8000016000218180C18001810C21418100210F
:100B90008181704710B502460020108A4FF2FF0392
:100BA00018400B884C8823438C882343CC882343EC
:100BB0001843108210BD0021018041808180C180D6
:100BC000704721B1828942F40052828104E0828917
:100BD0004DF6FF731A4082817047F0B5034600243A
:100BE000002600250020A1F510676A3F00D100BF54
:100BF0001846C1F3421401F01F06012707FA06F553
:100C0000012C01D10C3004E0022C01D1103000E0A5
:100C100014301AB107682F43076002E00768AF433A
:100C20000760F0BD1AB1838A0B43838202E0838A96
:100C30008B4383827047028A4FF6F0731A40028218
:100C4000028A0A430282704782894FF2FF731A4078
:100C5000828182890A438281704721B1828942F070
:100C60000202828104E082894FF6FD731A4082817C
:100C70007047028A4FF6DF731A400282028A0A43E3
:100C80000282704721B1028A42F48042028204E06B
:100C9000028A4BF6FF731A4002827047C1F30802C2
:100CA0008280704701468888C0F3080070478189B8
:100CB00041F0010181817047028BD2B20283028B25
:100CC00042EA012202837047028B02F47F420283D0
:100CD000028B0A430283704721B1828A42F02002CC
:100CE000828204E0828A4FF6DF731A408282704764
:100CF00021B1828A42F01002828204E0828A4FF699
:100D0000EF731A408282704721B1828A42F0080252
:100D1000828204E0828A4FF6F7731A40828270471B
:100D200021B1828942F40042828103E08289C2F3C8
:100D30000E028281704721B1828A42F4006282826F
:100D400004E0828A4FF2FF731A4082827047828ADF
:100D50004FF6FB731A408282828A0A43828270476E
:100D600021B1828A42F00202828204E0828A4FF636
:100D7000FD731A408282704702460020B1F5007F61
:100D800000D100BF13880B4201D0012000E00020F9
:100D9000704701F40072B2F5007F00D100BFCA4372
:100DA0000280704770B50246002400230025002011
:100DB000A1F510666A3E00D100BFC1F3421501F0F3
:100DC0001F03012606FA03F3012D02D19689334051
:100DD00006E0022D02D1168A334001E0968A3340A4
:100DE0000C12012606FA04F41688344013B10CB133
:100DF000012000E0002070BD10B500220023A1F505
:100E000010646A3C00D100BF0A1201249440A3B2CE
:100E1000DC43048010BD0000003801400044004065
:100E200000480040004C00400050004000B58BB02E
:100E300000F0B1F90AA800F0F9FA0AAA012108465F
:100E400000F067FC0AAB01221BA11D4801F0FFFC6A
:100E50000AA8032100220592CDE906210890104638
:100E600080210C22174BCDE90132CDE9031002207D
:100E70000023154A15A10090164802F033FA0AA87B
:100E8000032100220592CDE9062108901046802119
:100E90000C22114BCDE90132CDE9031003200023D0
:100EA0000E4A0FA10090104802F01CFA0AA800F0A8
:100EB00003FD00200BB000BD53454D310000000084
:100EC000C4000020DC010020FD0E00085461736B9B
:100ED00031000000EC000020DC030020570F000868
:100EE0005461736B320000006401002000BF7E4A31
:100EF000126882F01E027C4B1A60704788B07BA398
:100F00000FCBCDE90523CDE9030123E007A800239A
:100F10001A4619460090794801F093FD1E21784841
:100F200004F0D8FA0D2203A9754804F0BAFA7449FE
:100F300074A004F0EDFA07A800210B460122CDE9C8
:100F40000010084603F009FC07AA4FF400716B4833
:100F500001F097FFDAE786B06BA207CA02AB07C3BE
:100F600026E005A800231A4619460090634801F0C0
:100F700068FD1E21624804F0ADFA614802990160E3
:100F8000039941609DF81010017201465DA004F0C4
:100F9000BFFA05A800210B460122CDE90010084642
:100FA00003F0DBFB05AA4FF40071544801F069FF20
:100FB000D7E7002500241CE0002518E001220221CB
:100FC00049480C38FFF7BFFA002400E0641C514880
:100FD0008442FBDB0022022143480C38FFF7B3FABE
:100FE000002400E0641C4B488442FBDB6D1C0A2D8E
:100FF000E4DBE1E7002500241CE0002518E00122E5
:10100000042139480C38FFF79EFA002400E0641CE4
:1010100040488442FBDB0022042133480C38FFF7B0
:1010200092FA002400E0641C3A488442FBDB6D1C09
:101030000A2DE4DBE1E7002500241CE0002518E090
:101040000122082128480C38FFF77DFA002400E02F
:10105000641C30488442FBDB0022082122480C3803
:10106000FFF771FA002400E0641C2A488442FBDB8D
:101070006D1C0A2DE4DBE1E7002500241CE00025BF
:1010800018E00122102118480C38FFF75CFA002400
:1010900000E0641C1F488442FBDB00221021124840
:1010A0000C38FFF750FA002400E0641C1948844211
:1010B000FBDB6D1C0A2DE4DBE1E770B504460D4651
:1010C00000BF80211448FFF757FE0128F9D1A1B2D3
:1010D0001148FFF7E3FD00BF40210F48FFF74CFE2A
:1010E0000128F9D1002070BD0C08014048656C6CE6
:1010F0006F20576F726C640A00000000C40000206B
:10110000DC050020257300004D6F726E696E670A62
:1011100000000000FFFF05000038014030B5014627
:10112000B1F1807F01D3012030BD21F07F40401E0E
:101130004FF0E022506150170F22002807DA130702
:101140001D0E2F4B00F00F04241F1D5503E0130745
:101150001C0E2C4B1C5400BF00204FF0E02290616D
:10116000072010610020DFE710B5274800684FF422
:101170007A71B0FBF1F42046FFF7D0FF22480068F7
:101180004FF47A71B0FBF1F42046FFF7C7FF08B1C6
:1011900000BFFEE710BD00B585B0FFF7E5FF00F02A
:1011A0003FF800F04DF8012144F20400FFF7D2FBB4
:1011B0004FF40070ADF8100003208DF812001820D5
:1011C0008DF8130004A91148FFF70EF94FF4E13030
:1011D00000900020ADF80400ADF80600ADF808005E
:1011E000ADF80C000820ADF80A0069460848FFF782
:1011F0005CFC01210648FFF7E4FC05B000BD0000DF
:1012000018ED00E000E400E00000002000080140CC
:101210000038014000BF0100A0F10100FBD1704780
:1012200010B501210420FFF795FB1E201B49088003
:10123000032088701020C8701948FFF7D5F810BD3A
:1012400010B501210420FFF785FB212013490880F8
:10125000012088704820C8701148FFF7C5F810BDFC
:1012600070B504460D4629462046FFF74EF998B959
:1012700042F21070FFF7CEFF29462046FFF745F9EE
:1012800040B900BF29462046FFF73FF90028F9D0B2
:10129000002070BD0120FCE70120FAE728000020B3
:1012A00000080140134814481448154815481648CA
:1012B00016481748174818481848194819481A482E
:1012C0001A481B481B481C481C481D481D481E48FE
:1012D0001E481F481F4820482048214821482248CE
:1012E000224823482348244824482548254826489E
:1012F00000BF7047C056000820560008245600085A
:10130000285600082C5600083056000834560008AD
:10131000385600083C56000840560008445600085D
:10132000485600084C56000850560008545600080D
:1013300064560008685600086C560008705600088D
:1013400074560008785600087C560008805600083D
:1013500084560008885600088C56000890560008ED
:1013600094560008985600089C560008A05600089D
:10137000A4560008A8560008AC560008B05600084D
:10138000B4560008B8560008BC560008002400BF38
:1013900019E000BF00BF04F073F8044600BF00BFAF
:1013A000F6480068401CF5490860F5480068401C94
:1013B000F349086000BF00BF204604F065F800BF95
:1013C00000BF03F0E1FFE4E710B58AB00446002057
:1013D000EA490860032000210591CDE90704069140
:1013E0000846E8490968E84A1268E84B1B68CDE9F5
:1013F0000132CDE9031007200023AFF26F02E4A110
:101400000090E84801F06EFF0AB010BD00210AE02C
:1014100001EB4102E44B03EB8200002202810260F7
:1014200042604A1CD1B20829F2D3704770B5044615
:1014300003F0ABFF0020DD490870DD490870DD498D
:101440000870DD490870DD4800680A21B0FBF1F042
:10145000DB490860DB48006858B1DB48056845B1E6
:10146000D848066803E0761E002028602D1D002E57
:10147000F9D101F09BF9FFF7C9FF204602F05EFEAB
:10148000208800B170BD204600F0AEFF208800B17A
:10149000F8E72046FFF798FF208800B1F2E72046E2
:1014A00002F09AFF208800B1ECE7204601F053FEDD
:1014B000208800B1E6E7204601F064F9208800B1F9
:1014C000E0E7204601F039FD208800B1DAE7204648
:1014D00003F076FE208800B1D4E700F0B5FDFFF7F9
:1014E000E1FE00BFCEE7B2480078012800D0704787
:1014F000AE480078FA2800DBF9E7AC480078401CD9
:10150000AA49087000BFF2E710B50024A848007887
:10151000012800D010BD00BF03F0B2FF044600BF99
:10152000A248007828B900BF204603F0ADFF00BFF5
:10153000F0E79E480078401E9C49087008460078F5
:10154000002805DD00BF204603F09EFF00BFE1E755
:1015500098480078002805DD00BF204603F094FF7E
:1015600000BFD7E701F02CF99849087008460078C9
:1015700000EB40008C4951F820009549086008466E
:10158000006894490968884205D100BF204603F0ED
:101590007BFF00BFBEE790480068401C8E49086092
:1015A0004FF080508D49086000BF204603F06CFF6B
:1015B00000BF00BFAEE710B500247C4800780028CB
:1015C00000DD10BD7B480078002800DDF9E700BF92
:1015D00003F056FF044600BF01F0F2F87B490870A3
:1015E0000846007800EB40006F4951F82000784928
:1015F00008600846006877490968884205D100BF3D
:10160000204603F041FF00BFDBE773480068401C41
:10161000714908604FF080507049086000BF204653
:1016200003F032FF00BF00BFCBE770B504460025D2
:101630005E480078002803DD46F66250208070BDC9
:101640005B480078012803D045F689602080F6E7E2
:1016500058480078FA2803DB45F209202080EEE79D
:1016600000BF00BF03F00CFF054600BF00BF51489C
:101670000078401C4F49087000BF00BF284603F0A7
:1016800003FF00BF00BF0020208000BFD7E770B578
:101690000446002545480078002803DD46F66550DD
:1016A000208070BD42480078012803D045F689604B
:1016B0002080F6E73F48007818B946F6645020804D
:1016C000EFE700BF00BF03F0DBFE054600BF00BF31
:1016D00038480078401E37490870084600780028CE
:1016E0000ADD00BF00BF284603F0CEFE00BF00BFEA
:1016F00046F663502080D4E700BF00BF284603F0C1
:10170000C3FE00BF00BFFFF756FF0020208000BFD0
:10171000C7E72DE9F04105460C461646002700BFF5
:1017200000BF03F0ADFE074600BF00BF012D03D090
:1017300000202149087002E001201F49087014B1FF
:101740001F48046006E01D4800680A21B0FBF1F064
:101750001B49086000BF00BF384603F095FE00BF7C
:1017600000BF00203080BDE8F08110B501460C8933
:10177000B4B3012C36D0022C3FD134E0300000202D
:101780007000002028560008245600082056000843
:1017900075432F4F532D4949492049646C652054A6
:1017A00061736B000C140020FC1400203400002036
:1017B000350000205F0000206400002080560008F3
:1017C00060000020505600084C5600085D000020C4
:1017D000B8000020B40000208800002004ED00E0E4
:1017E000FFE700BF14E008684A6802610024C46093
:1017F0001461D0600A6048600AE008684A68C368FB
:1018000000241C61C4600261D0600B60486000BFAE
:1018100000BF10BD2DE9F04104460027F6480078CE
:10182000002804DD48F2D1402080BDE8F081F34873
:101830000078002803DD46F663502080F5E7F04885
:101840000078012803D046F67B102080EDE700BF2A
:1018500000BF03F015FE074600BF00BFE94800784F
:1018600000EB4000E84901EB8006308902280ADAE3
:1018700000BF00BF384603F007FE00BF00BF46F6BA
:101880007A102080D1E73046FFF76FFF3568686D2A
:1018900018B9DE480068A86501E0686DA86500BF5A
:1018A00000BF384603F0F0FD00BF00BFFFF783FE26
:1018B0000020208000BFB8E710B50446D448007867
:1018C000E8B900F07DFFD349087008460078CD499B
:1018D0000870D048007800EB4000CB4951F8200058
:1018E000CD49086008460068CC4908600120C84915
:1018F000087003F007FD43F69920208002E045F6CA
:101900008A60208010BD01460020088047F2F85010
:10191000704730B540B145684D6700F10804226852
:1019200093681D6AC56110E091F83450022D02D011
:10193000072D06D102E0BAA54D6705E0BAA54D67AF
:1019400002E0BCA54D6700BF00BF30BDF0B58E689A
:1019500096F8375007893FB90127078100274F6064
:101960000F600160416023E007897F1C07810268E6
:1019700006E0946894F83770AF4200DD02E05268E8
:10198000002AF6D100BF32B900274F6043680B60D0
:10199000596041600CE017682FB9116000270F6093
:1019A0004A60016004E013680B604A60596011608E
:1019B000F0BD10B5C287016300230AE000244C602B
:1019C0000C600C614C610C83CC61886020315C1C24
:1019D000A3B29342F2DB10BD2DE9F041054695F824
:1019E000370000EB4000884901EB80042F69EE6866
:1019F00087B946B9002020812060606095F83700E3
:101A000000F000FF0EE02089401E208100203061A0
:101A1000266007E02089401E2081FE600EB96760C5
:101A200000E0376100202861E860BDE8F08138B54A
:101A300004460D4685B16B4602222946204602F037
:101A4000FAFCBDF8000018B9032084F8360006E05F
:101A5000022084F8360002E0022084F83600204696
:101A6000FFF7BAFF38BD2DE9F04105460C46164692
:101A70001F466A48006880F834600020674909689A
:101A800081F83500394665480068FFF7D0FF6CB132
:101A900004F10808EC600122294660480068FFF75D
:101AA00088FF29464046FFF751FF06E000205B49CA
:101AB0000968C88759490968086358480168204679
:101AC000FFF727FFBDE8F08110B50489012C03D191
:101AD00000240460446011E00C6824B94A680024C2
:101AE000146002600AE04C6824B90B6800245C6052
:101AF000436003E00B684A685A6013600489641EFF
:101B0000048100244C600C6010BD2DE9F0410446B6
:101B1000256BE68F0AE0D5F80C8008F10807294606
:101B20003846FFF7D1FF2035701E86B2002EF2DC5A
:101B30000020E0872063BDE8F08130B50346086BE4
:101B4000CC8F08E0C5689D4202D10361C26104E008
:101B50002030651EACB2002CF4DC00BF30BD10B5E7
:101B600090F8373003EB4303274C04EB83010B89D8
:101B70003BB901230B810023C36003610860486007
:101B800009E00B895B1C0B810B68C36000230361B8
:101B90000A681061086010BD10B590F8373003EB8B
:101BA0004303194C04EB83010B893BB901230B81DF
:101BB0000023C36003610860486008E00B895B1C78
:101BC0000B810023C3604A680261D060486010BD89
:101BD00010B5044694F8370000F004FE94F837007E
:101BE00008490978884203D12046FFF7D5FF02E073
:101BF0002046FFF7B4FF10BD340000205F00002036
:101C0000640000205C000020FC1400206000002024
:101C1000350000205D000020B8000020B400002046
:101C20005461736B205100005461736B2053656DD8
:101C3000000000002000000010B50446204602F01D
:101C4000A3FA94F8360010F0040F02D12046FFF7F3
:101C5000BFFF10BD70B505460C46164694F8360019
:101C6000082845D2DFE800F0040508090607262702
:101C700000BF00BF00BF3CE000BF94F83400032861
:101C800004D1324621462846FFF757FF266415B196
:101C90002046FFF73AFF2046FFF7CEFF002004F171
:101CA0003404A0704FF0010060704FF0000004F8A1
:101CB00034091EE000BF94F83400032804D13246F2
:101CC00021462846FFF739FF266415B12046FFF765
:101CD0001CFF204602F058FA042004F13404A070DE
:101CE0004FF0010060704FF0000004F8340900E08C
:101CF00000BF00BF70BD30B5AFF2C8054D6700F141
:101D0000080422681AB193681D6AC56102E0AFF247
:101D1000DC05C56130BD2DE9F04304460F4684F86B
:101D20003770256BB4F83E8013E0D5F80C9009F1BC
:101D300008063089012807D929463046FFF7C4FE36
:101D400029463046FFF702FE2035A8F101001FFAB0
:101D500080F8B8F1000FE8D1BDE8F0830021016000
:101D600041600181704703895B1C038103684B60FC
:101D700000230B60026802B1116001600389012B2E
:101D800000D14160704730B50346086BCC8F08E046
:101D9000C5689D4202D10361C26104E02030651E26
:101DA000ACB2002CF4DC00BF30BD70B506460C466A
:101DB000154694F83600082843D2DFE800F0040501
:101DC00008090607252600BF00BF00BF3AE000BF94
:101DD00094F83400032804D12A4621463046FFF700
:101DE000D2FF25642046FFF790FE2046FFF724FF30
:101DF000002004F13404A0704FF0020060704FF036
:101E0000000004F834091DE000BF94F834000328F2
:101E100004D12A4621463046FFF7B5FF2564204607
:101E200002F0B2F92046FFF770FE042004F13404FA
:101E3000A0704FF0020060704FF0000004F8340909
:101E400000E000BF00BF70BDF0B50446059E086B02
:101E5000CD8F0AE0C768A74204D1046142610383C1
:101E6000C66104E020306F1EBDB2002DF2DC00BF61
:101E7000F0BD2DE9F84306460C4617469846089DE6
:101E800094F8360008284DD2DFE800F00405080970
:101E90000607292A00BF00BF00BF44E000BF94F836
:101EA0003400032807D143463A4621463046009580
:101EB000FFF7CAFF00E0256436B12046FFF725FE94
:101EC00021463046FFF717FF2046FFF7B5FE0020FA
:101ED00004F13404A070607004F8340923E000BFFA
:101EE00094F83400032807D143463A462146304649
:101EF0000095FFF7A9FF00E02564204602F044F9B1
:101F000036B12046FFF701FE21463046FFF7F3FECB
:101F1000042004F13404A0704FF00000607004F855
:101F2000340900E000BF00BFBDE8F88310B500240D
:101F300000BF03F0A5FA044600BF0020394908702D
:101F400039483A4908603A480068401C38490860F6
:101F50004FF080503749086000BF204603F094FAE4
:101F600000BF10BD70B50546002633480078012833
:101F700000D070BD00BF00BF03F082FA064600BF6C
:101F800000BF2C683CB900BF00BF304603F07CFAAC
:101F900000BF00BFEDE72948844207D100BF00BF62
:101FA000304603F071FA00BF00BFE2E7A06D10B148
:101FB000A06D401EA065A06D38B100BF00BF3046C7
:101FC00003F062FA00BF00BFD3E72889022807DACE
:101FD00000BF00BF304603F057FA00BF00BFC8E79C
:101FE00017480078002807DD00BF00BF304603F027
:101FF0004BFA00BF00BFBCE72846FFF7B6FB2C68D2
:10200000606D18B90F480068A06501E0606DA065BB
:1020100000BF00BF304603F037FA00BF00BF00BF6B
:10202000A7E700005D00002084140020B800002015
:102030008800002004ED00E0640000200C14002063
:102040005F000020600000201C481D481D481E48FD
:102050001E481F481F482048204821482148224840
:102060002248234823482448244825482548264810
:1020700026482748274828482848294829482A48E0
:102080002A482B482B482C482C482D482D482E48B0
:102090002E482F482F483048304831483148324880
:1020A0003248334833483448344835483548364850
:1020B000364837483748384800BF7047C45600088C
:1020C0002C580008C6560008C7560008C856000815
:1020D000CC560008D0560008CD560008005700081E
:1020E0000257000804570008245700082657000824
:1020F00028570008305700085C570008625700084E
:1021000063570008645700086657000868570008BE
:102110006A5700086C5700086E570008705700088F
:10212000A0570008A6570008A8570008D057000875
:10213000D1570008D2570008D3570008D4570008D9
:10214000D6570008D8570008DC570008DD570008AC
:10215000DE570008DF570008E0570008E157000885
:10216000E2570008E3570008E4570008E657000864
:10217000E7570008E8570008EA570008EC5700083E
:10218000ED570008F05700082458000825580008AB
:1021900026580008285800082A5800082DE9F84F4A
:1021A00004460D4616461F46DDE90BABDDF82890C8
:1021B000DDF834800020009000BF00BF03F060F91C
:1021C000009000BF00BFBC480088BC490988884215
:1021D0003BDAB9480088401CB7490880B8480088F5
:1021E0000988884203DAB4480088B5490880B548B0
:1021F00000680460B34800688560B2480068C66043
:10220000B04800680782AF480068C0F81490AD4835
:102210000068A0F818A0AB480068C0F81CB0A94836
:1022200000684068A74908600120A7490881A748BD
:1022300008604860002000F0D5FAA5480078A5495C
:1022400008700020A8F8000008E0A3480088401C9F
:10225000A149088044F25360A8F8000000BF00BF05
:10226000009803F011F900BF00BFBDE8F88F2DE919
:10227000F84F4FF0000B00BF00BF03F001F9834699
:1022800000BF00BF954800680668944800688468ED
:1022900092480068D0F80C8090480068B0F810A010
:1022A0008E480068D0F814908C480068078B8B48E3
:1022B0000068C5698948006840688849086000BFAF
:1022C00000BF584603F0E0F800BF00BF8449701A11
:1022D0008E421AD009DC834830180FD0824940184A
:1022E0000AD0824940183AD110E08149401814D0F0
:1022F0008049401833D100E032E031E06B462A4695
:102300003946204600F00EFD2AE029E06B462A46B9
:102310003946204601F0C0FB22E06E49097801EB06
:102320004101694A02EB8100FFF71CFE6B462A4619
:102330000021714801F0B0FB70480068401E6F49F1
:1023400008600846006848B96D48006808600025C4
:102350006B462A4600216B4801F09EFB00E000BF5F
:1023600000BFBDE8F88F002700BF3CE0002638E042
:1023700051480088C0B900BF00BF03F081F807468C
:1023800000BF00BF0020504908810860486000F08D
:1023900039FA00BF00BF384603F076F800BF00BF2F
:1023A000FFF709F901261CE00025FFF760FF6C42EA
:1023B00055480068844201D95348046000BF00BFFB
:1023C00003F05EF8074600BF00BF3B480088401E90
:1023D0003949088000BF00BF384603F055F800BFF8
:1023E00000BF002EC4D0C1E7F0B589B0054600207B
:1023F000394908804548006820B944F25260288075
:1024000009B0F0BD2D480088022803DA44F2546078
:102410002880F5E700203C4908603C4804682646CF
:10242000203600270CE03A4820600020A060E060E1
:10243000208260612083666020342036781C87B259
:102440001E4800888742EEDB203C30480668666004
:102450001C4806602148066000201749088018497A
:1024600008802C48006818B946F62C602880C7E719
:102470002948006829490968884203D246F62D6038
:102480002880BDE7032000210591CDE907050691CD
:1024900021480068224A12681E4B1B68CDE90301DF
:1024A000CDE9013200910B46AFF245121DA107485C
:1024B00000F018FF00BFA3E74000002034560008DA
:1024C0004200002038000020FC140020841400206A
:1024D0005C0000205E000020440000203C00002042
:1024E000544D5347ADBAB2BE0DF90BFAF2F8F7FFEF
:1024F000000410FC03F4FDF5D4150020B00000200A
:10250000AC0000204C160020480000203056000887
:102510004E4F4E453C560008445600087C56000875
:102520004056000875432F4F532D494949204953C0
:1025300052205175657565205461736B0000000071
:10254000002181619349096811B90021C16105E049
:1025500090490968C1618F49096888618D4908609F
:1025600070472DE9FF4F83B0044615461F46DDE94D
:1025700010960020009088480078002805DD45F27C
:10258000B960308007B0BDE8F08F1DB945F2BB607F
:102590003080F7E7022F03DA45F2BC603080F1E7C4
:1025A000B9F1040F03D245F2C1603080EAE74FF081
:1025B000030ABAF1000F0CD015EA0A0F03D045F256
:1025C000BB603080DEE719EA0A0F02D045F2C16035
:1025D0003080AB46A846781E80B201900020029061
:1025E00007E0C844CBF80080C3460298401C80B284
:1025F0000290DDE901108842F3DB0020CBF80000F7
:1026000000BF00BF00BF02F03BFF009000BF00BF53
:1026100062480078401C6149087000BF00BF009804
:1026200002F032FF00BF00BF00BF5D482060049889
:10263000A0606560E560A7826782A4F810902046DC
:10264000FFF77EFF57480088401C5649088000BFAE
:1026500000BF00BF02F014FF009000BF00BF4F4852
:102660000078401E4D49087008460078A0B94E48D1
:102670000088002809DD00BF00BF009802F004FFB9
:1026800000BF00BFFFF752FC0DE000BF00BF009885
:1026900002F0FAFE00BF06E000BF00BF009802F0A3
:1026A000F3FE00BF00BF00BF0020308000BF69E71D
:1026B0002DE9F04104460D4600272CB945F2BF60D4
:1026C00028800020BDE8F08100BF00BF02F0D8FEE6
:1026D000074600BF00BFA08A58B900BF00BF3846F8
:1026E00002F0D2FE00BF00BF45F2C2602880002089
:1026F000E8E7E6683068E060A08A401EA08200BF7C
:1027000000BF384602F0C0FE00BF00BF0020288096
:102710003046D7E72DE9F04104460E46154600271E
:1027200024B945F2BF602880BDE8F0811EB945F2AA
:10273000BE602880F8E700BF00BF02F0A1FE074698
:1027400000BF00BFA08A618A88420ADB00BF00BFC9
:10275000384602F099FE00BF00BF45F2BA602880FB
:10276000E2E7E0683060E660A08A401CA08200BF1B
:1027700000BF384602F088FE00BF00BF002028805E
:1027800000BFD1E70021034A1160064A1180018091
:10279000704700004C000020340000205F00002043
:1027A0004D454D205000002040000020002004E056
:1027B00000211C4A42F82010401C0028F8D0704725
:1027C00070B50025174C03E005F12000C5B2241DAB
:1027D00020680028F8D0206802F059FE2844C5B2CD
:1027E000284670BD30B5420900F01F030121C3F136
:1027F0001F04A1400B4C54F822400C43094D45F8EE
:10280000224030BD30B5420900F01F030121C3F161
:102810001F04A140034C54F822408C43014D45F85D
:10282000224030BD2C000020FDA1C161002141618A
:10283000FC49096811B90021816105E0F94909687D
:102840008161F84909684861F649086070472DE9D7
:10285000F04104460E4617461D464FF00008F24868
:102860000078002804DD42F6E1602880BDE8F081B0
:102870001CB945F6C3502880F8E700BF00BF02F03E
:10288000FFFD804600BF00BFE848206027620020AF
:102890006062666004F10800FFF760FA2046FFF707
:1028A000C3FFE3480088401CE149088000BF00BF27
:1028B000404602F0E9FD00BF00BF0020288000BFB5
:1028C000D4E710B50446DB48206000202062606237
:1028D000D9A0606004F10800FFF740FA10BD42691A
:1028E00081693AB9CF4B196009B100234B610023CC
:1028F000836109E019B900239361436104E09161A8
:102900004A6100238361436170472DE9FC5F0746FC
:102910008946144600200090C3480078002805DD51
:1029200043F2C92020800020BDE8FC9F27B945F66E
:10293000C35020800020F7E700BF00BF02F0A0FDD9
:10294000009000BF00BF07F10808B8F808502E46F5
:10295000B9F1000F03D0B9F1010F64D120E0A6B99D
:102960003846FFF7BCFFB2480088401EB0490880D7
:102970003846FFF7A6FF00BF00BF009802F084FDB5
:1029800000BF00BF0020208009E000BF00BF00980A
:1029900002F07AFD00BF00BF47F25E1020804DE0DC
:1029A00000BFA7480078401CA549087000BF00BFC1
:1029B000009802F069FD00BF00BF00BF0020019039
:1029C0000AE0D8F800A0DAF808B059463846019A6B
:1029D000FFF7EBF9681E85B2002DF2D13846FFF7FC
:1029E0007EFF93480088401E914908803846FFF7D3
:1029F00068FF00BF00BF00BF02F042FD009000BFB3
:102A000000BF8F480078401E8D49087000BF00BF8E
:102A1000009802F039FD00BF00BF00BFFEF7CBFDFC
:102A2000002020800AE000BF00BF009802F02CFDCB
:102A300000BF00BF45F62560208000BF00BF3046C4
:102A400072E72DE9F04788B00646894690461C4655
:102A5000109D4FF0000A74480078002806DD46F209
:102A6000AE102880002008B0BDE8F08726B945F6F2
:102A7000C35028800020F6E7B8F1000F03D0B8F566
:102A8000004F02D100E000BF04E045F62560288039
:102A90000020E8E700BF0CB10020206000BF00BFAD
:102AA00002F0EEFC824600BF00BF306A88B1306A97
:102AB000401E30620CB1706A2060376A00BF00BFF0
:102AC000504602F0E1FC00BF00BF002028803846DD
:102AD000C9E718F4004F0CD0376A00BF00BF50465A
:102AE00002F0D2FC00BF00BF46F2B010288038468A
:102AF000B9E75348007800280BDD00BF00BF5046FF
:102B000002F0C2FC00BF00BF46F6635028800020E0
:102B1000A9E700BF4A480078401C4949087000BF37
:102B200000BF504602F0B0FC00BF00BF00BF4B46E4
:102B3000062231466846FEF796FF00BF00BF00BF81
:102B400002F09EFC824600BF00BF3D480078401E58
:102B50003B49087000BF00BF504602F095FC00BF23
:102B600000BF00BFFEF727FD00BF00BF02F088FCDA
:102B7000824600BF00BF3348006890F8350030B18E
:102B800001280CD002281AD0032821D110E01CB152
:102B90002C480068006C20600020288024E01CB1D4
:102BA00028480068006C206046F2A91028801BE0CD
:102BB0000CB10020206047F2D920288014E01CB11D
:102BC00020480068006C206045F6C25028800BE069
:102BD00046F62B60288000BF00BF504602F054FC30
:102BE00000BF00BF00203EE700BF376A00BF00BF44
:102BF000504602F049FC00BF00BF384633E72DE9DC
:102C0000F05F07460D4614464FF0000B064800786B
:102C1000002819DD46F2AA1020800020BDE8F09FB0
:102C200020000000680000203400002053454D4182
:102C30006C0000204E4F4E453F53454D00000000B4
:102C40005F000020B400002027B945F6C350208063
:102C50000020E3E71DB1B5F5807F02D100E000BFA1
:102C600004E045F6256020800020D7E700BF00BFC4
:102C700000BF02F005FC834600BF00BF07F1080655
:102C8000308958B900BF00BF584602F0FDFB00BFB5
:102C900000BF46F2AB1020800020BFE700BFAA486B
:102CA0000078401CA849087000BF00BF584602F0D9
:102CB000EBFB00BF00BF00BF4FF00008C2460FE0B3
:102CC0003068D0F80890524649463846FEF7C2FFB1
:102CD00008F101001FFA80F8B5F5807F00D002E00E
:102CE00030890028ECDC00BF00BF00BF00BF02F04D
:102CF000C7FB834600BF00BF93480078401E92493F
:102D0000087000BF00BF584602F0BEFB00BF00BF06
:102D100000BF15F4004F01D1FEF74DFC00202080CC
:102D200040467BE72DE9FF5F0446884691461D46F5
:102D30000020019000BF00BF02F0A2FB019000BF85
:102D400000BF04F10807388900284FD1042001286A
:102D500004D0022814D0042834D123E0206AFF28AC
:102D60000DD100BF00BF019802F08EFB00BF00BF75
:102D700046F6C5502880002004B0BDE8F09F22E050
:102D8000206AA0F57F41FF390BD100BF00BF019839
:102D900002F07AFB00BF00BF46F6C5502880002035
:102DA000EAE710E0206A401C0BD100BF00BF019889
:102DB00002F06AFB00BF00BF46F6C5502880002025
:102DC000DAE700E000BF00BF206A401C2062D4F8B0
:102DD00020A0C4F8249000BF00BF019802F054FB6B
:102DE00000BF00BF002028805046C5E700BF5648FE
:102DF0000078401C5449087000BF00BF019802F0E1
:102E000043FB00BF00BF00BF18F4007F01D03E8924
:102E100000E00126D7F800B011E0DBF808000290CE
:102E2000DBF80400039000231A46CDF800902046FA
:102E30000299FFF71EF8DDF80CB0701E86B2002E66
:102E4000EBD1D4F820A000BF00BF00BF02F018FBF8
:102E5000019000BF00BF3C480078401E3A4908700E
:102E600000BF00BF019802F00FFB00BF00BF00BF12
:102E700018F4004F01D1FEF79EFB00202880504639
:102E80007AE72DE9FF4105460F46144635B945F668
:102E9000C3502080002004B0BDE8F08100262B48FC
:102EA000007800280CDD0020034602462946CDE9C3
:102EB0000176039400902648FFF770F90020EAE7B6
:102EC0002346324639462846FFF72CFF80464046C7
:102ED000E1E72DE9F04104460E4615464FF00008A3
:102EE0001A480078002804DD46F6C6502880BDE860
:102EF000F0811CB945F6C3502880F8E700202880EF
:102F000000BF00BF02F0BCFA804600BF00BF206ACD
:102F100008B1266208E004F10807388908B926627A
:102F200002E047F25E10288000BF00BF404602F07A
:102F3000ABFA00BF00BF00BFD9E70021054A11600E
:102F4000054A1180018070475F0000203400002096
:102F500053454D41680000206C00002070B50446C8
:102F6000002600209E4908609E4908809E4908600E
:102F70009E4908609E4908609E4805680EE000BFB3
:102F800000BF02F07DFA064600BF00BF2D6F00BFF4
:102F900000BF304602F078FA00BF00BF002DEED12E
:102FA00001F043FB02F074F90020208070BDF8B5F9
:102FB000044600266A460021022001F049FBBDF8C4
:102FC000000018B1BDF800002080F8BD00BF00BFB0
:102FD00002F056FA064600BF00BF0020864908608E
:102FE00000BF00BF304602F04FFA00BF00BF00250F
:102FF0008248006882490968884205D97F4800688C
:103000007F490968B0FBF1F525B97C4800680A21C1
:10301000B0FBF1F56A460021284601F019FB00BF1C
:1030200000BF02F02DFA064600BF00BF00206E4927
:10303000086071480068734908600120724908708F
:1030400000BF00BF304602F01FFA00BF00BF0020E3
:10305000208000BFB9E708B54FF0000800BF06E0C8
:103060006749096848006A46002101F0F1FA66489C
:1030700000780128F4D16846FFF770FF00255F480B
:1030800000685F490968884205D95C4800685C4966
:103090000968B0FBF1F525B9584800680A21B0FB72
:1030A000F1F557E0002700BF00BF02F0E9F98046C4
:1030B00000BF00BF504800685449086000204E49D6
:1030C000086000BF00BF404602F0DEF900BF00BF4D
:1030D0004C4800684D490968884213D9494800683E
:1030E00060B14A4800686421484346490968B0FB1A
:1030F000F1F0C0F164004649087006E064204449DC
:10310000087002E064204249087002F048F939482A
:10311000046807E06B4604F16402111D204600F0CC
:10312000B2FE246F002CF5D13A480078012805D171
:103130000020384908706846FFF710FF7E422A4891
:103140000068864201D9284806606A460021284660
:1031500001F07EFAA6E710B58AB0044600202649A1
:1031600008602A49086027490860274908702949EA
:1031700008702948006820B946F62C6020800AB003
:1031800010BD2648006826490968884203D246F6E1
:103190002D602080F3E723480078072803D346F208
:1031A00073202080EBE7032000210591CDE907047F
:1031B00006910846194909681B4A1268164B1B6894
:1031C000CDE90132CDE90310164800780023AFF2B3
:1031D000791216A100901A4800F084F800BFCEE7DB
:1031E00048000020420000208000002098000020BD
:1031F000A40000208C0000207000002080560008F1
:1032000068560008740000207C0000207800002030
:103210006E000020840000206C56000874560008E0
:103220007C560008645600087056000875432F4FFE
:10323000532D4949492053746174205461736B00C4
:103240005C1500200021C166FE49096811B9002102
:10325000016705E0FB4909680167FA490968C86622
:10326000F849086070470022026082604260C260D4
:10327000026142618261C261F3A202620022426283
:103280008262C2620263C2870264002106E00023F8
:1032900000F15C0242F821304A1CD1B20029F6D07C
:1032A000002200F134000261426080F82C20426369
:1032B000026302814FF0004242614FF000028261DE
:1032C000C261026242620270427082704FF0080274
:1032D000C2704FF000028263C263DDA20264A0F1FB
:1032E000340070472DE9FF4F87B004469046DDE972
:1032F0001BA5DDE91496179F00200390D5480078A0
:10330000002805DD47F24A1028800BB0BDE8F08F99
:103310001CB947F2AD102880F7E7B8F1000F03D1D0
:1033200047F24F102880F0E71EB946F62C6028803F
:10333000EBE7C9480068874203D246F62D60288033
:10334000E3E71698B84203D346F62E602880DCE700
:10335000B9F1080F03D346F273202880D5E7B9F1FD
:10336000000F06D1BD48844203D046F27320288066
:10337000CBE7B9F1070F06D1B948844203D046F232
:1033800073202880C1E72046FFF76DFF00202880CA
:103390001AF0010F11D01AF0020F0ED00596069008
:1033A00008E00021059801600598001D0590069829
:1033B000401C06900698B842F3D3169806EB80009E
:1033C0000490CDE9007A32464046049B0A9901F008
:1033D000EAFF0590C4F828800A98E0620898206205
:1033E00084F83790059820600498A060199860656B
:1033F000199818B99B480068A06501E01998A06564
:103400001A9860606662A763A4F83CA04FF0000BB6
:1034100008E0002104F15C0040F82B100BF10100E2
:103420001FFA80FBBBF1000FF3D0204601F0B8FF7C
:1034300000BF00BF00BF02F023F8039000BF00BF31
:1034400089480078401C8849087000BF00BF039875
:1034500002F01AF800BF00BF00BF94F83700FFF772
:10346000C1F92046FEF798FB2046FFF7EBFE7F48A8
:103470000088401C7D4908807D48007801282DD0B7
:1034800000BF00BF00BF01F0FBFF039000BF00BF03
:1034900075480078401E7449087008460078A0B945
:1034A00074480088002809DD00BF00BF039801F0C0
:1034B000EBFF00BF00BFFEF739FD0DE000BF00BF0E
:1034C000039801F0E1FF00BF06E000BF00BF0398D2
:1034D00001F0DAFF00BF00BF00BF16E700BF00BF6A
:1034E00000BF01F0CDFF039000BF00BF5E48007831
:1034F000401E5D49087000BF00BF039801F0C4FF83
:1035000000BF00BF00BFFEF756F800BFFDE6C26E69
:10351000016F3AB94B4B196009B10023CB66002308
:10352000036709E019B900231367C36604E0116754
:10353000CA6600230367C366704770B504460D462C
:10354000002644480078002803DD47F24E1028800A
:1035500070BD4348844203D147F24C102880F7E7FE
:103560003E48844203D147F24D102880F0E77CB9F1
:1035700000BF00BF01F084FF064600BF00BF3E4809
:10358000046800BF00BF304601F07EFF00BF00BFEF
:1035900000BF00BF00BF01F073FF064600BF00BFC1
:1035A00031480078401C3049087000BF00BF3046E9
:1035B00001F06AFF00BF00BF00BF94F83600082882
:1035C0002DD2DFE800F004090E10080A0F11204682
:1035D000FEF702FA72E071E000BF204600F0D4FD71
:1035E0006CE000BF00BF00BF204600F0CDFD94F8A6
:1035F0003400082810D2DFE800F004070508090AA3
:103600000B0600BF00BF08E000BF00BF00BF00BF47
:103610002046FEF77AFA00E000BF00BF4EE000BF90
:1036200000BF00BF01F02CFF064600BF00BF0E48E0
:103630000078401E0C4908700846007888BB0D4889
:1036400000881BE08C0000203F5461736B00000079
:1036500020000000340000207C5600088414002064
:103660000C140020600000205F000020900000206B
:103670003500002040000020B4000020002809DDB3
:1036800000BF00BF304601F0FFFE00BF00BFFEF7E5
:103690004DFC0EE000BF00BF304601F0F5FE00BF5C
:1036A00007E0FFE700BF00BF304601F0EDFE00BFBE
:1036B00000BF00BF46F62A60288049E700BF2046C9
:1036C00001F06FFE2046FFF722FFFE480088401EF3
:1036D000FC4908802046FFF7C6FDFF2084F836002D
:1036E00000BF00BF00BF01F0CBFE064600BF00BF19
:1036F000F5480078401EF449087000BF00BF30460E
:1037000001F0C2FE00BF00BF00BFFDF754FF002064
:10371000288000BF1CE72DE9F04104460D461646FF
:103720004FF000082DB146F6791030800020BDE83A
:10373000F08100BF00BF01F0A3FE804600BF00BFC4
:103740000CB9E248046804F15C0050F8257000BF31
:1037500000BF404601F098FE00BF00BF002030804F
:103760003846E4E72DE9F04104460D4617461E466B
:103770004FF0000825B146F679103080BDE8F081A1
:1037800000BF00BF01F07CFE804600BF00BF0CB947
:10379000CE48046804F15C0040F8257000BF00BF0B
:1037A000404601F071FE00BF00BF0020308000BF26
:1037B000E4E770B504460D460026C54800780028A9
:1037C00003DD47F25510288070BD00BF00BF01F037
:1037D00057FE064600BF00BF1CB1BC4800688442CB
:1037E0000AD100BF00BF304601F04EFE00BF00BF4F
:1037F00047F257102880E7E70020288094F8360029
:1038000008287BD2DFE800F004050607124355675D
:1038100000BF00BF00BF00BF00BF304601F034FE54
:1038200000BF00BF47F25310288072E000BFA648D7
:103830000078401CA449087000BF00BF304601F06A
:1038400023FE00BF00BF00BF14F8600F401E2070B1
:1038500014F8600928B9002084F836002046FEF7E5
:10386000EBF900BF00BF00BF01F00AFE064600BF33
:1038700000BF95480078401E9349087000BF00BF04
:10388000304601F001FE00BF00BF00BF41E014F868
:10389000600F401E207014F8600910B9012084F8F0
:1038A000360000BF00BF304601F0EEFD00BF00BF94
:1038B0002FE014F8600F401E207014F8600910B952
:1038C000022084F8360000BF00BF304601F0DCFD66
:1038D00000BF00BF1DE014F8600F401E207014F8F8
:1038E000600910B9032084F8360000BF00BF3046DD
:1038F00001F0CAFD00BF00BF0BE0FFE700BF00BF43
:10390000304601F0C1FD00BF00BF46F62A602880A6
:103910005AE700BFFDF74FFE00BF55E72DE9F0471E
:103920000746884614461D464FF00009684800784F
:10393000002805DD46F2AE1028800020BDE8F087A3
:103940000CB10020206000BF00BF01F099FD81464E
:1039500000BF00BF5D480068406CC8B15B480068AC
:10396000406C401E59490968486458480068466CD4
:103970001CB156480068006C206000BF00BF48467C
:1039800001F082FD00BF00BF002028803046D5E74F
:1039900018F4004F0BD000BF00BF484601F074FD83
:1039A00000BF00BF46F2B01028800020C6E746489E
:1039B000007800280BDD00BF00BF484601F064FD21
:1039C00000BF00BF46F6635028800020B6E700BF66
:1039D0003D480078401C3C49087000BF00BF484685
:1039E00001F052FD00BF00BF00BF3B46072200218F
:1039F0000846FEF738F800BF00BF00BF01F040FDE9
:103A0000814600BF00BF30480078401E2E49087034
:103A100000BF00BF484601F037FD00BF00BF00BF38
:103A2000FDF7C9FD00BF00BF01F02AFD814600BFC0
:103A300000BF2648006890F8350020B101280AD060
:103A4000032818D110E01CB120480068006C2060E9
:103A50000020288013E01CB11C480068006C206026
:103A600046F2A91028800AE00CB10020206047F23D
:103A7000D920288003E046F62B60288000BF00BFD5
:103A800012480068466C00BF00BF484601F0FCFCCD
:103A900000BF00BF304651E72DE9F8430446884691
:103AA00017461D464FF0000900BF00BF00BF01F0E0
:103AB000E7FC814600BF00BF03480078401C024974
:103AC000087007E0900000205F000020B400002094
:103AD0003400002000BF00BF484601F0D5FC00BF05
:103AE00000BF00BF0CB9FE4804682764002028808E
:103AF00094F83600082871D2DFE800F00405EAEBFC
:103B00000607ECED00BF00BF00BF0420012804D071
:103B1000022839D004286FD170E0606CFF2832D1C0
:103B200000BF00BF00BF01F0ABFC814600BF00BF7B
:103B3000EC480078401EEB49087008460078A0B9B0
:103B4000E9480088002809DD00BF00BF484601F0B1
:103B50009BFC00BF00BFFEF7E9F90DE000BF00BF0E
:103B6000484601F091FC00BF06E000BF00BF484698
:103B700001F08AFC00BF00BF00BF46F6C550288098
:103B80000020BDE8F88370E0606CA0F57F41FF394C
:103B900033D100BF00BF00BF01F072FC814600BFFF
:103BA00000BFD0480078401ECE4908700846007813
:103BB000A8B9CD480088002809DD00BF00BF4846ED
:103BC00001F062FC00BF00BFFEF7B0F90EE000BFDD
:103BD00000BF484601F058FC00BF07E0D4E000BF3A
:103BE00000BF484601F050FC00BF00BF00BF46F6D2
:103BF000C55028800020C4E736E036E0606C401CE9
:103C000031D100BF00BF00BF01F03AFC814600BFC8
:103C100000BFB4480078401EB249087008460078DA
:103C2000A0B9B1480088002809DD00BF00BF4846A0
:103C300001F02AFC00BF00BFFEF778F90DE000BFDD
:103C400000BF484601F020FC00BF06E000BF00BFF7
:103C5000484601F019FC00BF00BF00BF46F6C55042
:103C6000288000208DE700E000BF00BF606C401C92
:103C70006064666C00BF00BF00BF01F001FC8146BC
:103C800000BF00BF97480078401E9649087008465C
:103C90000078A0B994480088002809DD00BF00BF63
:103CA000484601F0F1FB00BF00BFFEF73FF90DE011
:103CB00000BF00BF484601F0E7FB00BF06E000BFC1
:103CC00000BF484601F0E0FB00BF00BF00BF8DE031
:103CD00000BF00BF00BF94F83400072822D10023A2
:103CE0001A46214618460097FEF7C3F8666C00BFD7
:103CF00000BF00BF01F0C4FB814600BF00BF794890
:103D00000078401E7749087000BF00BF484601F0A8
:103D1000BBFB00BF00BF00BF18F4004F33D1FDF75D
:103D20004AFC30E0606C401C6064666C00BF00BF01
:103D300000BF01F0A5FB814600BF00BF69480078C5
:103D4000401E6849087008460078A0B96648008897
:103D5000002809DD00BF00BF484601F095FB00BF09
:103D600000BFFEF7E3F80DE000BF00BF484601F0DA
:103D70008BFB00BF06E000BF00BF484601F084FB9C
:103D800000BF00BF00BF31E000BF00BF00BF01F0B7
:103D900077FB814600BF00BF52480078401E514962
:103DA000087008460078A0B94F480088002809DD4F
:103DB00000BF00BF484601F067FB00BF00BFFEF731
:103DC000B5F80DE000BF00BF484601F05DFB00BF45
:103DD00006E000BF00BF484601F056FB00BF00BF31
:103DE00000BF46F62A602880002600BF00BF30468C
:103DF000C7E62DE9FF4105460F46144600263B481D
:103E0000007800280EDD0020009003460246294677
:103E1000CDE9026401903648FEF7C0F9002004B0F5
:103E2000BDE8F0812346324639462846FFF734FE86
:103E300080464046F3E72DE9F04104460F4615461B
:103E40004FF0000829480078002805DD46F6C650E6
:103E500028800020BDE8F08100BF00BF01F010FB0A
:103E6000804600BF00BF0CB91D480468666C6764DB
:103E700000BF00BF404601F007FB00BF00BF0020AD
:103E800028803046E6E72DE9F04705460E461746FE
:103E90001C464FF0000A15480078002804DD47F260
:103EA00058102080BDE8F0871EB946F2D52020804A
:103EB000F8E71FB946F2D5202080F3E700BF00BF26
:103EC00001F0DEFA824600BF00BF0DB90448056864
:103ED0002868C0B900BF00BF504601F0D5FA09E01C
:103EE000B40000205F0000204000002034000020CB
:103EF0005453494700BF00BF00203060386047F28C
:103F000052102080CEE795F83C0010F0010F0DD143
:103F100000BF00BF504601F0B7FA00BF00BF00204D
:103F20003060386047F254102080BBE700BF00BF0C
:103F3000504601F0A9FA00BF00BF4FF00008D5F8C5
:103F4000249003E009F1040908F10108D9F8000000
:103F50000028F7D0C6F80080A86BA0EB08003860F6
:103F60000020208000BF9DE770B504460D46002666
:103F70007C480078002803DD47F25C10288070BD83
:103F80007948844203D147F25A102880F7E77748EE
:103F9000844203D147F25B102880F0E700BF00BFE6
:103FA00001F06EFA064600BF00BF0CB97048046805
:103FB0006F48006884420ED16E48007800280ADD00
:103FC00000BF00BF304601F05FFA00BF00BF46F6F9
:103FD00063502880D3E70020288094F83600082812
:103FE0006CD2DFE800F004313F4D5B5C5D5E00BFEA
:103FF00060480078401C5F49087000BF00BF304631
:1040000001F042FA00BF00BF00BF042084F8360070
:10401000012084F860002046FDF7DEFC00BF00BFF1
:1040200000BF01F02DFA064600BF00BF51480078DE
:10403000401E5049087000BF00BF304601F024FA0E
:1040400000BF00BF00BF44E0052084F83600012017
:1040500084F8600000BF00BF304601F015FA00BFD1
:1040600000BF36E0062084F83600012084F86000A6
:1040700000BF00BF304601F007FA00BF00BF28E0D4
:10408000072084F83600012084F8600000BF00BFDC
:10409000304601F0F9F900BF00BF1AE000BF00BFD1
:1040A00000BF94F86000401C84F8600000BF00BFAF
:1040B000304601F0E9F900BF00BF0AE000BF00BFD1
:1040C000304601F0E1F900BF00BF46F62A602880C3
:1040D00055E700BFFDF76FFA00BF50E72DE9F0414B
:1040E00004460D46164600271E480078002804DDC9
:1040F00046F6C6503080BDE8F08100BF00BF01F039
:10410000BFF9074600BF00BF0CB9194804681DB9C4
:1041100019480068606500E06565D4E915018842CA
:1041200001D9606DA06500BF00BF384601F0ACF951
:1041300000BF00BF0020308000BFDCE700210F4A35
:1041400011600F4A11800F4A11600180704708B555
:104150000748006801F026F969460020FFF7EDF9ED
:1041600008BD0000340000200C140020841400203E
:10417000B40000205F000020600000208C000020C0
:10418000900000208800002010B5C269BAB1002458
:1041900004651468844205D14169116039B1002475
:1041A0008C6104E0816943694B6103B1996100242A
:1041B00044618461C461C4649488641E948010BDA9
:1041C0002DE9F05F4FF0000B00BF00BF00BF01F012
:1041D00057F9834600BF00BFFE480078401CFD49E8
:1041E000087000BF00BF584601F04EF900BF00BF85
:1041F00000BF4FF0000AF8480068401CF64908600C
:1042000008460068F5490988B0FBF1F201FB12008D
:104210001FFA80F9F24800EBC9073C6800267EE0EF
:10422000002C7BD0D4F8148094F83600082871D282
:10423000DFE800F00408051B063B074E00BF00BF87
:1042400000BF68E0E449E06C0968401A2065E24973
:10425000E06C0968884206D1002084F836002046C8
:10426000FDF7EAFC00E0012655E0DB49E06C096857
:10427000401A2065D849E06C0968884213D10020B3
:1042800020642046FDF741FC2046FDF7D5FC0020C8
:1042900004F13404A0704FF0030060704FF0000090
:1042A00004F8340900E0012635E0CB49E06C0968E8
:1042B000401A2065C849E06C0968884206D104208C
:1042C00084F836002046FFF75FFF00E0012622E079
:1042D000C149E06C0968401A2065BF49E06C096873
:1042E000884215D1002020642046FDF70EFC2046B0
:1042F000FFF74AFF042004F13404A0704FF00300DC
:1043000060704FF0000004F8340902E006E001E0BC
:10431000012600E000BF00BF444600E00126002E59
:104320003FF47EAFCAF10005AE480068854201D96E
:10433000AC48056000BF00BF00BF01F0A1F8834694
:1043400000BF00BFA3480078401EA249087008467D
:104350000078A0B9A4480088002809DD00BF00BF8C
:10436000584601F091F800BF00BFFDF7DFFD0DE0FA
:1043700000BF00BF584601F087F800BF06E000BF4D
:1043800000BF584601F080F800BF00BF00BFBDE885
:10439000F09F1CB500BF0EE001AB6A460021084645
:1043A000FFF7BCFABDF8040028B99048007801284E
:1043B00001D1FFF705FFEFE7002108E0884A02EB93
:1043C000C100002202608280C2804A1C91B2834AEE
:1043D00012889142F2DB704710B58AB00446002083
:1043E0007D4908607F490860FFF7E6FF8048007854
:1043F000072804D346F2732020800AB010BD0320A2
:1044000000210591CDE9070406917A4802687A48AF
:1044100000687A4B1B68CDE90130CDE9032174486F
:1044200000780023AFF2950275A100907948FEF75D
:1044300059FF00BFE1E72DE9F04F0C4616461D4637
:10444000042E1ED1DFF89091D9F80090A4EB090951
:10445000A9F1010313F5803F0DD94FF00009C0F811
:104460004C90C0F85090C0F81C9047F27E29A5F8F7
:104470000090BDE8F08FC46403F10109C0F85090CA
:104480003FE084B3082E25D1D0F8489009EB04070B
:10449000DFF84491D9F80090A7EB0909A9F10103CD
:1044A000A34201D2C76406E0DFF82C91D9F800904E
:1044B000A144C0F84C90DFF820A1D0F84C90DAF875
:1044C00000A0A9EB0A09C0F85090D0F84C90C0F8B1
:1044D000489016E0DFF80091D9F80090A144C0F8A8
:1044E0004C9004650DE0FFE74FF00009C0F84C90D8
:1044F000C0F85090C0F81C9047F27E29A5F80090B3
:10450000B7E7DFF8D8A0BAF800A0D0F84C90B9FB14
:10451000FAFB0AFB1B991FFA89F8DFF8C49009EB34
:10452000C802B2F80490B9F1000F0BD14FF00009A6
:10453000C0F81490C0F8189010604FF00109A2F86C
:1045400004903EE0116834E0DFF88CA0D1F84C9084
:10455000DAF800A0A9EB0A09C1F85090D0F8509001
:10456000D1F850A0D1450ED9D1F81490B9F1000F6F
:1045700001D049691DE04FF00009C0F81490816135
:104580004861002115E0D1F81890B9F1000F07D16A
:104590004FF00009C0F8189041618861106007E091
:1045A000D1F818C0C0F818C04161CCF81400886177
:1045B00000210029C8D1B2F8049009F10109A2F83C
:1045C0000490B2F80690B2F804A0D14526DAB2F809
:1045D000049021E05F00002094000020985600081D
:1045E0003C110020980000204000002035000020F1
:1045F00084560008905600088C560008885600081B
:1046000075432F4F532D494949205469636B2054FA
:1046100061736B00D4150020A2F80690C2614FF0C0
:104620000009A5F8009000BF23E7002006E0064A35
:1046300002EBC0010022CA80421C90B2034A1288D9
:104640009042F4DB704700003C11002098560008AF
:104650002DE9F04105460E4614460027FE48007835
:10466000002804DD47F275202080BDE8F081FB487A
:104670000078002803DD46F663502080F5E736B168
:10468000022E05D0042E0AD0082E09D101E000BF69
:1046900000BF1DB947F27E202080E6E704E003E07A
:1046A00045F625602080E0E700BF00BF00BF00BFE7
:1046B00000F0E6FE074600BF00BFE8480078401C57
:1046C000E649087000BF00BF384600F0DDFE00BFBD
:1046D00000BF00BF0120E249096881F83600234687
:1046E00032462946DE480068FFF7A5FE2088A8B1BB
:1046F00000BF00BF00BF00F0C3FE074600BF00BF01
:10470000D6480078401ED549087000BF00BF384623
:1047100000F0BAFE00BF00BF00BFA6E7D0480068A7
:10472000FDF75AF900BF00BF00BF00F0A9FE074621
:1047300000BF00BFC9480078401EC849087000BFCC
:1047400000BF384600F0A0FE00BF00BF00BFFCF76E
:1047500032FF0020208000BF87E72DE9FF5F05467C
:104760000E4617469846DDE90EA400200090BA4890
:104770000078002804DD47F275202080BDE8FF9F07
:10478000B6480078002803DD46F663502080F5E740
:104790000AF00E0BBBF1000F09D0BBF1020F07D0DE
:1047A000BBF1040F10D0BBF1080F0ED101E000BF28
:1047B00000BFB8F1000F06D12FB926B91DB947F2D5
:1047C0007E202080DAE704E003E045F625602080C3
:1047D000D4E700BF3AF01E0001D0012000E0002025
:1047E00003900398012803D145F625602080C5E792
:1047F000CAF3001002900298C0B9B8F57A7F03D3CB
:1048000047F27B202080B9E73B2F03DD47F27A2077
:104810002080B3E73B2E03DD47F279202080ADE70F
:10482000632D12DD47F278202080A7E742F20F7057
:10483000864203DD47F2792020809FE7B5F57A7F35
:1048400003DB47F27820208098E78648D0F8009074
:104850004FF4FA70B0FBF9F0404400FB09F04FF45C
:104860007A71B0FBF1F14FF461606843C6EB061258
:1048700000EB8200384400FB0910019001980028E9
:1048800056D000BF00BF00BF00F0FAFD009000BF8F
:1048900000BF72480078401C7049087000BF00BF1C
:1048A000009800F0F1FD00BF00BF00BF01206C497F
:1048B000096881F8360023465A466948019900681C
:1048C000FFF7B9FD2088A8B100BF00BF00BF00F00E
:1048D000D7FD009000BF00BF60480078401E5F49D0
:1048E000087000BF00BF009800F0CEFD00BF00BF01
:1048F00000BF43E75A480068FDF76EF800BF00BFED
:1049000000BF00F0BDFD009000BF00BF534800781D
:10491000401E5249087000BF00BF009800F0B4FD6F
:1049200000BF00BF00BFFCF746FE0020208002E071
:1049300047F27E20208000BF20E770B505460C4678
:10494000002645480078002803DD47F276202080C5
:1049500070BD1DB947F251102080F9E700BF00BFBC
:1049600000F08EFD064600BF00BF95F8360008280F
:104970007AD2DFE800F0040F3E49545F96A100BFF1
:1049800000BF304600F080FD00BF00BF47F251106D
:104990002080A7E000BF31480078401C2F490870F4
:1049A00000BF00BF304600F06FFD00BF00BF00BF7A
:1049B000002085F836002846FFF7E6FB2846FDF77D
:1049C00007F900BF00BF00BF00F05AFD064600BF58
:1049D00000BF22480078401E2049087000BF00BF79
:1049E000304600F051FD00BF00BF00BF0020208016
:1049F00078E000BF00BF304600F046FD00BF00BFBA
:104A000047F2511020806DE000BF00BF304600F03B
:104A10003BFD00BF00BF47F25110208062E000BFA5
:104A200000BF304600F030FD00BF00BF47F251101C
:104A3000208057E000BF09480078401C07490870F3
:104A400000BF00BF304600F01FFD00BF00BF00BF29
:104A5000042085F8360008E0340000205F000020C4
:104A6000B40000208056000831E02846FFF78CFB98
:104A700000BF00BF00BF00F003FD064600BF00BF3F
:104A80003E480078401E3D49087000BF00BF3046D8
:104A900000F0FAFC00BF00BF00BF47F259102080B1
:104AA00020E000BF00BF304600F0EEFC00BF00BFBA
:104AB00047F25110208015E000BF00BF304600F0E3
:104AC000E3FC00BF00BF47F2511020800AE000BFA6
:104AD00000BF304600F0D8FC00BF00BF46F62A6099
:104AE000208000BF00BFFCF766FD00BF30E770B557
:104AF0000446002600BF00BF00F0C2FC064600BF0F
:104B000000BF1F48056800BF00BF304600F0BCFC76
:104B100000BF00BF00202080284670BD70B504464D
:104B20000D46002600BF00BF00F0AAFC064600BFED
:104B300000BF1348046000BF00BF304600F0A4FC73
:104B400000BF00BF0020288070BD10B586B000F007
:104B500089FC002405A800210091CDE901140390EF
:104B60000848007800EB4000074A02EB8001002370
:104B70001A460648FDF712FB06B010BD5F00002084
:104B8000940000205C000020FC1400205449434B9A
:104B90000021C162FB49096811B90021016305E0E8
:104BA000F84909680163F7490968C862F54908606E
:104BB00070472DE9F84F0446884616461F46DDE942
:104BC0000BABDDF828900D9D00200090EE4800789A
:104BD000002804DD47F243302880BDE8F88F1CB977
:104BE00045F6C3502880F8E7B9F1010F08D0B9F1B4
:104BF000020F0BD11FB947F240302880EDE709E0E2
:104C00001EB947F23F302880E7E703E045F625600C
:104C10002880E2E700BF00BF00BF00F031FC009039
:104C200000BF00BF012084F82A00D8482060C4F8E3
:104C3000048026620020A061E0616762A4F82890E9
:104C4000C4F808A0C4F80CB0206160612046FFF7EA
:104C50009FFFCF480088401CCD49088000BF00BF9F
:104C6000009800F011FC00BF00BF0020288000BFAA
:104C7000B3E7002180F82A10C6490160C6A141604F
:104C8000002101628161C161416201858160C16071
:104C9000016141617047F0B5C14E36888569B5FB49
:104CA000F6F706FB1755ACB2BE4D05EBC40215680E
:104CB000854205D10169116039B100254D6104E0DB
:104CC000416903690B6103B15961012580F82A50DC
:104CD00000250561456195886D1E9580F0BDC26A0D
:104CE000016B3AB9A74B196009B10023CB620023CD
:104CF000036309E019B900231363C36204E011637D
:104D0000CA6200230363C362704738B505460C4688
:104D10009D480078002804DD47F2433020800020C1
:104D200038BD25B947F2423020800020F8E76846B8
:104D3000FCF77BFC2846FFF7D2FF95480088401E11
:104D40009349088095F82A00F0B1012811D0022873
:104D500002D0032820D10DE02846FFF79CFF28460B
:104D6000FFF787FF6846FCF792FC002020800120B7
:104D7000D6E700BF2846FFF77CFF6846FCF787FCB4
:104D8000002020800120CBE76846FCF780FC47F23A
:104D90003D3020800020C3E76846FCF778FC47F2EE
:104DA000413020800020BBE7F8B504460D46764828
:104DB0000078002804DD47F2433028800020F8BD49
:104DC00024B947F2423028800020F8E76846FCF713
:104DD0002CFC94F82A0050B3012810D0022802D0ED
:104DE00003282CD11DE07049A0690968461AE661C4
:104DF0006846FCF74CFC002028803046DFE7208D19
:104E0000022805D1206A08B9666A02E0266A00E035
:104E1000266AE6616846FCF73AFC002028803046A6
:104E2000CDE76846FCF733FC00202880C7E76846DA
:104E3000FCF72DFC47F23D3028800020BFE7684694
:104E4000FCF725FC47F2413028800020B7E7F0B599
:104E50000C46022680F82A60012C05D1524F466A82
:104E60003F683E4486610CE0066A2EB94E4F466AA2
:104E70003F683E44866104E04B4F066A3F683E440B
:104E80008661474F3F888669B6FBF7FC07FB1C66C7
:104E9000B5B2444E06EBC502166836B90026066167
:104EA00046611060012696802CE03F4F86693F687E
:104EB000F61BC661116820E03B4F8E693F68F61B08
:104EC000CE61C669CF69BE4209D90E690EB10969C2
:104ED00013E0002606614161086100210DE04E6982
:104EE0002EB90026466101614861106004E04B69FB
:104EF000436101611861486100210029DCD1968875
:104F0000761C9680D6889788BE4201DA9688D6802D
:104F1000F0BD38B505460C461B480078002804DD76
:104F200047F243302080002038BD25B947F2423097
:104F300020800020F8E76846FCF777FB95F82A0008
:104F4000A0B3012812D0022802D0032837D10EE0E6
:104F50002846FFF7A0FE00212846FFF778FF6846A5
:104F6000FCF795FB002020800120DDE700BF002139
:104F70002846FFF76CFF6846FCF789FB002020807D
:104F80000120D1E79C00002034000020544D522025
:104F9000A00000204E4F4E453F544D5200000000EF
:104FA000B8560008A4130020A8000020FFE76846B8
:104FB000FCF76DFB47F23D3020800020B4E76846E7
:104FC000FCF765FB47F2413020800020ACE72DE97B
:104FD000F04105460C460027B4480078002805DD5E
:104FE00047F2433020800020BDE8F08125B947F228
:104FF000423020800020F7E700BF00BF00F040FAF9
:10500000074600BF00BF95F82A6036B1012E05D0D3
:10501000022E05D0032E06D101E000BF00BF00BF65
:105020000020208003E047F24130208000BF00BF15
:1050300000BF00BF384600F027FA00BF00BF30466F
:10504000D2E72DE9F84305460F4690461C4697489F
:105050000078002805DD47F2433020800020BDE8BD
:10506000F88325B947F2423020800020F7E76846F0
:10507000FCF7DBFA95F82A0000283DD0012833D050
:10508000022802D003283FD12DE02846FFF703FE77
:1050900000202080C7B1032F02D0042F15D109E0D2
:1050A000AE681EB12846E968B04702E047F24430D6
:1050B000208012E0AE681EB141462846B04702E0AB
:1050C00047F24430208008E007E06846FCF7DFFA4A
:1050D00045F6256020800020C1E700BF6846FCF748
:1050E000D6FA0120BBE700BF6846FCF7D0FA47F2CA
:1050F000473020800120B2E76846FCF7C8FA47F243
:105100003D3020800020AAE76846FCF7C0FA47F24D
:10511000413020800020A2E71CB500BF4FE001AB6A
:105120006A4600210846FEF7F9FB01A8FCF77DFA64
:105130004FF0000A5E480068401C5D490860084660
:1051400000685C490988B0FBF1F201FB12001FFA0C
:1051500080F9594800EBC9073C68D34621E0F4B117
:10516000D4F810805249A0690968884214D12046B9
:10517000FFF791FD208D022804D101212046FFF781
:1051800066FE02E0032084F82A00A56815B12046D7
:10519000E168A847444604E04FF0010B01E04FF0FE
:1051A000010BBBF1000FDAD0CAF1000601A8FCF731
:1051B0006EFA42480068864201D940480660AEE770
:1051C00070B58AB0044600203D4908603D4800683B
:1051D00040B13D4800683B490968B0FBF1F03B49EC
:1051E000086006E0384800680A21B0FBF1F0374952
:1051F0000860364800683649086000202C4908607D
:105200002E490860002508E02B4800EBC506002069
:10521000B080F0803060681C85B2264800888542E6
:10522000F2DB2C48006820B947F2463020800AB0F3
:1052300070BD2948006829490968884203D247F2AD
:1052400046302080F3E726480078072803D346F24B
:1052500073202080EBE7032000210591CDE90704AE
:10526000069108461C4909681E4A1268194B1B68BA
:10527000CDE90132CDE90310194800780023AFF2DF
:10528000671219A100901E48FEF72CF800BFCEE768
:10529000002006E0084A02EBC0010022CA80421C3E
:1052A00090B2044A12889042F4DB70473400002028
:1052B000A8000020B8560008A4130020A400002075
:1052C0009C000020A456000880560008AC00002076
:1052D000B0000020A8560008B05600087C56000810
:1052E000A0560008AC56000875432F4F532D49496E
:1052F000492054696D6572205461736B0000000091
:105300004C16002018484FF0FF010170002080F378
:1053100009881648016881F3088815484FF08051C4
:10532000016062B6FEE772B6EFF3098028B120385B
:1053300080E8F00F0F490968086000B50E48804703
:105340005DF804EB0D480E490A78027009480D49D2
:105350000A680260106890E8F00F203080F3098836
:105360004EF0040E62B6704722ED00E0BC00002053
:1053700004ED00E0B4000020635400085C0000204D
:105380005D000020B80000207047374800683749AA
:10539000096800EB8100001F3549086070477047BD
:1053A000704770477047F0B50446DDE9055602EBDB
:1053B00085004FF0807C071F3846C7F800C0071FE4
:1053C00038463C60DFF8ACC0071F3846C7F800C05D
:1053D0004FF0123C071F3846C7F800C04FF0033C9F
:1053E000071F3846C7F800C04FF0023C071F384679
:1053F000C7F800C0071F38463B60071F38463960B2
:105400004FF0113C071F3846C7F800C04FF0103C62
:10541000071F3846C7F800C04FF0093C071F384641
:10542000C7F800C04FF0083C071F3846C7F800C057
:105430004FF0073C071F3846C7F800C04FF0063C46
:10544000071F3846C7F800C04FF0053C071F384615
:10545000C7F800C04FF0043C071F3846C7F800C02B
:10546000F0BD7047704700004C56000850560008C9
:10547000BC0000204F41000872B6704762B670470A
:10548000EFF3108072B6704780F310887047B0FA5F
:1054900080F0704790FAA0F0704730BF704720BF8F
:1054A000704740EA01039B0703D009E008C9121FB7
:1054B00008C0042AFAD203E011F8013B00F8013BCE
:1054C000521EF9D27047D2B201E000F8012B491EFA
:1054D000FBD270470022F6E710B513460A46044691
:1054E0001946FFF7F0FF204610BD0000064C074D9F
:1054F00006E0E06840F0010394E8070098471034A4
:10550000AC42F6D3FAF7F6FD3058000850580008C0
:105510000FB4054B10B503A9044A029800F017F820
:1055200010BC5DF814FB0000BB100008C000002098
:1055300002E008C8121F08C1002AFAD1704770475C
:10554000002001E001C1121F002AFBD170472DE9A4
:10555000F84F9946924688460546002759E0252887
:1055600001D0514623E0002315F8011F18462E29CB
:1055700015D115F8011F04232A290DD06FF02F0231
:105580002978A1F13004092C09D800EB800002EB46
:10559000400008446D1CF3E758F8040B6D1C2A7892
:1055A00072B3632A08D0732A10D0514610464A4677
:1055B000904707F101072BE018F8042B8DF8002025
:1055C00000218DF801106E46012103E058F8046BAC
:1055D0004FF0FF315A074FF0000401D409E0641C7A
:1055E00084420BDA8C42FADB325D002AF7D105E007
:1055F000641C8C42FCDB305D0028F9D1274405E0B7
:105600000AE016F8010B51464A469047641EF8D24C
:105610006D1C28780028A2D13846BDE8F88F00001C
:10562000FC0500200C0000008000000000020000CB
:10563000FC0700200A000000400100003C09002097
:105640000C00000080000000000200003C0B002065
:1056500080000000000200000000000000000000C8
:1056600000000000060000000A0000003C0D0020C1
:105670000C0000008000000000020000400000005C
:10568000E8030000050000003C0F00200C000000B3
:1056900080000000000200000D0000006800000013
:1056A000060000000A000000A41100200C00000009
:1056B00080000000000200000D00000068000000F3
:1056C000100E0000010001007856341201000000A5
:1056D00000000000000000000000000000000000CA
:1056E00000000000000000000000000000000000BA
:1056F00000000000000000000000000000000000AA
:105700002000010000000000000000000000000078
:105710000000000000000000000000000000000089
:105720000000000001002000000000000000000058
:105730000000000000000000000000000000000069
:105740000000000000000000000000000000000059
:105750000000000000000000000000000000000049
:105760000000000120000C002000080004000400DC
:105770000000000000000000000000000000000029
:105780000000000000000000000000000000000019
:105790000000000000000000000000000000000009
:1057A00000000000000001000000000000000000F8
:1057B00000000000000000000000000000000000E9
:1057C00000000000000000000000000000000000D9
:1057D0000101010128000C0060000000040101002B
:1057E0000100010001000001780008000101000033
:1057F00000000000000000000000000000000000A9
:105800000000000000000000000000000000000098
:105810000000000000000000000000000000000088
:1058200000000000010134000800F87512030000B8
:105830005058000800000020C40000003055000847
:1058400014590008C4000020041A00004055000844
:1058500000A24A040000000000000000010203044E
:105860000607080900000000010203040102030406
:1058700006070809020406080000000000000000F6
:105880000000000000000000000000000000000018
:105890000000000000000000000000000000000008
:1058A00000000000000000000000000000000000F8
:1058B00000000000000000000000000000000000E8
:1058C00000000000000000000000000000000000D8
:1058D00000000000000000000000000000000000C8
:1058E00000000000000000000000000000000000B8
:1058F00000000000000000000000000000000000A8
:105900000000000000000000000000000000000097
:045910000000000093
:04000005080000ED02
:00000001FF
